{
  "contractName": "CashToken",
  "abi": [
    {
      "inputs": [],
      "stateMutability": "nonpayable",
      "type": "constructor"
    },
    {
      "anonymous": false,
      "inputs": [
        {
          "indexed": true,
          "internalType": "address",
          "name": "owner",
          "type": "address"
        },
        {
          "indexed": true,
          "internalType": "address",
          "name": "spender",
          "type": "address"
        },
        {
          "indexed": false,
          "internalType": "uint256",
          "name": "value",
          "type": "uint256"
        }
      ],
      "name": "Approval",
      "type": "event"
    },
    {
      "anonymous": false,
      "inputs": [
        {
          "indexed": true,
          "internalType": "address",
          "name": "to",
          "type": "address"
        },
        {
          "indexed": false,
          "internalType": "uint256",
          "name": "amount",
          "type": "uint256"
        }
      ],
      "name": "Mint",
      "type": "event"
    },
    {
      "anonymous": false,
      "inputs": [
        {
          "indexed": true,
          "internalType": "address",
          "name": "previousOwner",
          "type": "address"
        },
        {
          "indexed": true,
          "internalType": "address",
          "name": "newOwner",
          "type": "address"
        }
      ],
      "name": "OwnershipTransferred",
      "type": "event"
    },
    {
      "anonymous": false,
      "inputs": [
        {
          "indexed": true,
          "internalType": "address",
          "name": "from",
          "type": "address"
        },
        {
          "indexed": true,
          "internalType": "address",
          "name": "to",
          "type": "address"
        },
        {
          "indexed": false,
          "internalType": "uint256",
          "name": "value",
          "type": "uint256"
        }
      ],
      "name": "Transfer",
      "type": "event"
    },
    {
      "inputs": [
        {
          "internalType": "address",
          "name": "owner",
          "type": "address"
        },
        {
          "internalType": "address",
          "name": "spender",
          "type": "address"
        }
      ],
      "name": "allowance",
      "outputs": [
        {
          "internalType": "uint256",
          "name": "",
          "type": "uint256"
        }
      ],
      "stateMutability": "view",
      "type": "function",
      "constant": true
    },
    {
      "inputs": [
        {
          "internalType": "address",
          "name": "spender",
          "type": "address"
        },
        {
          "internalType": "uint256",
          "name": "amount",
          "type": "uint256"
        }
      ],
      "name": "approve",
      "outputs": [
        {
          "internalType": "bool",
          "name": "",
          "type": "bool"
        }
      ],
      "stateMutability": "nonpayable",
      "type": "function"
    },
    {
      "inputs": [
        {
          "internalType": "address",
          "name": "account",
          "type": "address"
        }
      ],
      "name": "balanceOf",
      "outputs": [
        {
          "internalType": "uint256",
          "name": "",
          "type": "uint256"
        }
      ],
      "stateMutability": "view",
      "type": "function",
      "constant": true
    },
    {
      "inputs": [],
      "name": "decimals",
      "outputs": [
        {
          "internalType": "uint8",
          "name": "",
          "type": "uint8"
        }
      ],
      "stateMutability": "view",
      "type": "function",
      "constant": true
    },
    {
      "inputs": [
        {
          "internalType": "address",
          "name": "spender",
          "type": "address"
        },
        {
          "internalType": "uint256",
          "name": "subtractedValue",
          "type": "uint256"
        }
      ],
      "name": "decreaseAllowance",
      "outputs": [
        {
          "internalType": "bool",
          "name": "",
          "type": "bool"
        }
      ],
      "stateMutability": "nonpayable",
      "type": "function"
    },
    {
      "inputs": [
        {
          "internalType": "address",
          "name": "spender",
          "type": "address"
        },
        {
          "internalType": "uint256",
          "name": "addedValue",
          "type": "uint256"
        }
      ],
      "name": "increaseAllowance",
      "outputs": [
        {
          "internalType": "bool",
          "name": "",
          "type": "bool"
        }
      ],
      "stateMutability": "nonpayable",
      "type": "function"
    },
    {
      "inputs": [],
      "name": "name",
      "outputs": [
        {
          "internalType": "string",
          "name": "",
          "type": "string"
        }
      ],
      "stateMutability": "view",
      "type": "function",
      "constant": true
    },
    {
      "inputs": [],
      "name": "owner",
      "outputs": [
        {
          "internalType": "address",
          "name": "",
          "type": "address"
        }
      ],
      "stateMutability": "view",
      "type": "function",
      "constant": true
    },
    {
      "inputs": [],
      "name": "renounceOwnership",
      "outputs": [],
      "stateMutability": "nonpayable",
      "type": "function"
    },
    {
      "inputs": [],
      "name": "symbol",
      "outputs": [
        {
          "internalType": "string",
          "name": "",
          "type": "string"
        }
      ],
      "stateMutability": "view",
      "type": "function",
      "constant": true
    },
    {
      "inputs": [],
      "name": "totalSupply",
      "outputs": [
        {
          "internalType": "uint256",
          "name": "",
          "type": "uint256"
        }
      ],
      "stateMutability": "view",
      "type": "function",
      "constant": true
    },
    {
      "inputs": [
        {
          "internalType": "address",
          "name": "to",
          "type": "address"
        },
        {
          "internalType": "uint256",
          "name": "amount",
          "type": "uint256"
        }
      ],
      "name": "transfer",
      "outputs": [
        {
          "internalType": "bool",
          "name": "",
          "type": "bool"
        }
      ],
      "stateMutability": "nonpayable",
      "type": "function"
    },
    {
      "inputs": [
        {
          "internalType": "address",
          "name": "from",
          "type": "address"
        },
        {
          "internalType": "address",
          "name": "to",
          "type": "address"
        },
        {
          "internalType": "uint256",
          "name": "amount",
          "type": "uint256"
        }
      ],
      "name": "transferFrom",
      "outputs": [
        {
          "internalType": "bool",
          "name": "",
          "type": "bool"
        }
      ],
      "stateMutability": "nonpayable",
      "type": "function"
    },
    {
      "inputs": [
        {
          "internalType": "address",
          "name": "newOwner",
          "type": "address"
        }
      ],
      "name": "transferOwnership",
      "outputs": [],
      "stateMutability": "nonpayable",
      "type": "function"
    },
    {
      "inputs": [
        {
          "internalType": "address",
          "name": "account",
          "type": "address"
        },
        {
          "internalType": "uint256",
          "name": "amount",
          "type": "uint256"
        }
      ],
      "name": "mint",
      "outputs": [],
      "stateMutability": "nonpayable",
      "type": "function"
    },
    {
      "inputs": [],
      "name": "checkBalance",
      "outputs": [
        {
          "internalType": "bool",
          "name": "",
          "type": "bool"
        }
      ],
      "stateMutability": "view",
      "type": "function",
      "constant": true
    }
  ],
  "bytecode": "0x60806040523480156200001157600080fd5b506040518060400160405280600981526020017f43617368546f6b656e00000000000000000000000000000000000000000000008152506040518060400160405280600381526020017f434854000000000000000000000000000000000000000000000000000000000081525081600390816200008f9190620006a6565b508060049081620000a19190620006a6565b505050620000d6620000c16200019c640100000000026401000000009004565b620001a4640100000000026401000000009004565b6200012a30620000f46200026a640100000000026401000000009004565b600a6200010291906200091d565b6501d1a94a20006200011591906200096e565b62000273640100000000026401000000009004565b6200019662000147620003f2640100000000026401000000009004565b620001606200026a640100000000026401000000009004565b600a6200016e91906200091d565b6501d1a94a20006200018191906200096e565b62000273640100000000026401000000009004565b62000aa5565b600033905090565b6000600560009054906101000a900473ffffffffffffffffffffffffffffffffffffffff16905081600560006101000a81548173ffffffffffffffffffffffffffffffffffffffff021916908373ffffffffffffffffffffffffffffffffffffffff1602179055508173ffffffffffffffffffffffffffffffffffffffff168173ffffffffffffffffffffffffffffffffffffffff167f8be0079c531659141344cd1fd0a4f28419497f9722a3daafe3b4186f6b6457e060405160405180910390a35050565b60006012905090565b600073ffffffffffffffffffffffffffffffffffffffff168273ffffffffffffffffffffffffffffffffffffffff1603620002e5576040517f08c379a0000000000000000000000000000000000000000000000000000000008152600401620002dc9062000a1a565b60405180910390fd5b62000302600083836200041c640100000000026401000000009004565b806002600082825462000316919062000a3c565b92505081905550806000808473ffffffffffffffffffffffffffffffffffffffff1673ffffffffffffffffffffffffffffffffffffffff168152602001908152602001600020600082825401925050819055508173ffffffffffffffffffffffffffffffffffffffff16600073ffffffffffffffffffffffffffffffffffffffff167fddf252ad1be2c89b69c2b068fc378daa952ba7f163c4a11628f55a4df523b3ef83604051620003c9919062000a88565b60405180910390a3620003ee6000838362000421640100000000026401000000009004565b5050565b6000600560009054906101000a900473ffffffffffffffffffffffffffffffffffffffff16905090565b505050565b505050565b600081519050919050565b7f4e487b7100000000000000000000000000000000000000000000000000000000600052604160045260246000fd5b7f4e487b7100000000000000000000000000000000000000000000000000000000600052602260045260246000fd5b60006002820490506001821680620004a857607f821691505b602082108103620004be57620004bd62000460565b5b50919050565b60008190508160005260206000209050919050565b60006020601f8301049050919050565b60008160020a8302905092915050565b6000600883026200052b7fffffffffffffffffffffffffffffffffffffffffffffffffffffffffffffffff82620004e9565b620005378683620004e9565b95508019841693508086168417925050509392505050565b6000819050919050565b6000819050919050565b6000620005846200057e62000578846200054f565b62000559565b6200054f565b9050919050565b6000819050919050565b620005a08362000563565b620005b8620005af826200058b565b848454620004f9565b825550505050565b600090565b620005cf620005c0565b620005dc81848462000595565b505050565b5b818110156200060457620005f8600082620005c5565b600181019050620005e2565b5050565b601f82111562000653576200061d81620004c4565b6200062884620004d9565b8101602085101562000638578190505b620006506200064785620004d9565b830182620005e1565b50505b505050565b60008160020a8304905092915050565b60006200067b6000198460080262000658565b1980831691505092915050565b600062000696838362000668565b9150826002028217905092915050565b620006b18262000426565b67ffffffffffffffff811115620006cd57620006cc62000431565b5b620006d982546200048f565b620006e682828562000608565b600060209050601f8311600181146200071e576000841562000709578287015190505b62000715858262000688565b86555062000785565b601f1984166200072e86620004c4565b60005b82811015620007585784890151825560018201915060208501945060208101905062000731565b8683101562000778578489015162000774601f89168262000668565b8355505b6001600288020188555050505b505050505050565b7f4e487b7100000000000000000000000000000000000000000000000000000000600052601160045260246000fd5b6000600282049050919050565b6000808291508390505b60018511156200081b57808604811115620007f357620007f26200078d565b5b6001851615620008035780820291505b80810290506200081385620007bc565b9450620007d3565b94509492505050565b60008262000836576001905062000909565b8162000846576000905062000909565b81600181146200085f57600281146200086a57620008a0565b600191505062000909565b60ff8411156200087f576200087e6200078d565b5b8360020a9150848211156200089957620008986200078d565b5b5062000909565b5060208310610133831016604e8410600b8410161715620008da5782820a905083811115620008d457620008d36200078d565b5b62000909565b620008e98484846001620007c9565b925090508184048111156200090357620009026200078d565b5b81810290505b9392505050565b600060ff82169050919050565b60006200092a826200054f565b9150620009378362000910565b9250620009667fffffffffffffffffffffffffffffffffffffffffffffffffffffffffffffffff848462000824565b905092915050565b60006200097b826200054f565b915062000988836200054f565b925082820262000998816200054f565b91508282048414831517620009b257620009b16200078d565b5b5092915050565b600082825260208201905092915050565b7f45524332303a206d696e7420746f20746865207a65726f206164647265737300600082015250565b600062000a02601f83620009b9565b915062000a0f82620009ca565b602082019050919050565b6000602082019050818103600083015262000a3581620009f3565b9050919050565b600062000a49826200054f565b915062000a56836200054f565b925082820190508082111562000a715762000a706200078d565b5b92915050565b62000a82816200054f565b82525050565b600060208201905062000a9f600083018462000a77565b92915050565b611a428062000ab56000396000f3fe608060405234801561001057600080fd5b506004361061011d576000357c010000000000000000000000000000000000000000000000000000000090048063715018a6116100b4578063a9059cbb11610083578063a9059cbb146102ce578063c71daccb146102fe578063dd62ed3e1461031c578063f2fde38b1461034c5761011d565b8063715018a6146102585780638da5cb5b1461026257806395d89b4114610280578063a457c2d71461029e5761011d565b8063313ce567116100f0578063313ce567146101be57806339509351146101dc57806340c10f191461020c57806370a08231146102285761011d565b806306fdde0314610122578063095ea7b31461014057806318160ddd1461017057806323b872dd1461018e575b600080fd5b61012a610368565b60405161013791906110b3565b60405180910390f35b61015a6004803603810190610155919061116e565b6103fa565b60405161016791906111c9565b60405180910390f35b61017861041d565b60405161018591906111f3565b60405180910390f35b6101a860048036038101906101a3919061120e565b610427565b6040516101b591906111c9565b60405180910390f35b6101c6610456565b6040516101d3919061127d565b60405180910390f35b6101f660048036038101906101f1919061116e565b61045f565b60405161020391906111c9565b60405180910390f35b6102266004803603810190610221919061116e565b610496565b005b610242600480360381019061023d9190611298565b6105ac565b60405161024f91906111f3565b60405180910390f35b6102606105f4565b005b61026a610608565b60405161027791906112d4565b60405180910390f35b610288610632565b60405161029591906110b3565b60405180910390f35b6102b860048036038101906102b3919061116e565b6106c4565b6040516102c591906111c9565b60405180910390f35b6102e860048036038101906102e3919061116e565b61073b565b6040516102f591906111c9565b60405180910390f35b61030661075e565b60405161031391906111c9565b60405180910390f35b610336600480360381019061033191906112ef565b6107a2565b60405161034391906111f3565b60405180910390f35b61036660048036038101906103619190611298565b610829565b005b6060600380546103779061135e565b80601f01602080910402602001604051908101604052809291908181526020018280546103a39061135e565b80156103f05780601f106103c5576101008083540402835291602001916103f0565b820191906000526020600020905b8154815290600101906020018083116103d357829003601f168201915b5050505050905090565b6000806104056108ac565b90506104128185856108b4565b600191505092915050565b6000600254905090565b6000806104326108ac565b905061043f858285610a7d565b61044a858585610b09565b60019150509392505050565b60006012905090565b60008061046a6108ac565b905061048b81858561047c85896107a2565b61048691906113be565b6108b4565b600191505092915050565b61049e610d7f565b600073ffffffffffffffffffffffffffffffffffffffff168273ffffffffffffffffffffffffffffffffffffffff160361050d576040517f08c379a00000000000000000000000000000000000000000000000000000000081526004016105049061143e565b60405180910390fd5b60008111610550576040517f08c379a0000000000000000000000000000000000000000000000000000000008152600401610547906114aa565b60405180910390fd5b61055a8282610dfd565b8173ffffffffffffffffffffffffffffffffffffffff167f0f6798a560793a54c3bcfe86a93cde1e73087d944c0ea20544137d4121396885826040516105a091906111f3565b60405180910390a25050565b60008060008373ffffffffffffffffffffffffffffffffffffffff1673ffffffffffffffffffffffffffffffffffffffff168152602001908152602001600020549050919050565b6105fc610d7f565b6106066000610f53565b565b6000600560009054906101000a900473ffffffffffffffffffffffffffffffffffffffff16905090565b6060600480546106419061135e565b80601f016020809104026020016040519081016040528092919081815260200182805461066d9061135e565b80156106ba5780601f1061068f576101008083540402835291602001916106ba565b820191906000526020600020905b81548152906001019060200180831161069d57829003601f168201915b5050505050905090565b6000806106cf6108ac565b905060006106dd82866107a2565b905083811015610722576040517f08c379a00000000000000000000000000000000000000000000000000000000081526004016107199061153c565b60405180910390fd5b61072f82868684036108b4565b60019250505092915050565b6000806107466108ac565b9050610753818585610b09565b600191505092915050565b60008061076961041d565b90506000610776306105ac565b9050600061078a610785610608565b6105ac565b9050808261079891906113be565b8314935050505090565b6000600160008473ffffffffffffffffffffffffffffffffffffffff1673ffffffffffffffffffffffffffffffffffffffff16815260200190815260200160002060008373ffffffffffffffffffffffffffffffffffffffff1673ffffffffffffffffffffffffffffffffffffffff16815260200190815260200160002054905092915050565b610831610d7f565b600073ffffffffffffffffffffffffffffffffffffffff168173ffffffffffffffffffffffffffffffffffffffff16036108a0576040517f08c379a0000000000000000000000000000000000000000000000000000000008152600401610897906115ce565b60405180910390fd5b6108a981610f53565b50565b600033905090565b600073ffffffffffffffffffffffffffffffffffffffff168373ffffffffffffffffffffffffffffffffffffffff1603610923576040517f08c379a000000000000000000000000000000000000000000000000000000000815260040161091a90611660565b60405180910390fd5b600073ffffffffffffffffffffffffffffffffffffffff168273ffffffffffffffffffffffffffffffffffffffff1603610992576040517f08c379a0000000000000000000000000000000000000000000000000000000008152600401610989906116f2565b60405180910390fd5b80600160008573ffffffffffffffffffffffffffffffffffffffff1673ffffffffffffffffffffffffffffffffffffffff16815260200190815260200160002060008473ffffffffffffffffffffffffffffffffffffffff1673ffffffffffffffffffffffffffffffffffffffff168152602001908152602001600020819055508173ffffffffffffffffffffffffffffffffffffffff168373ffffffffffffffffffffffffffffffffffffffff167f8c5be1e5ebec7d5bd14f71427d1e84f3dd0314c0f7b2291e5b200ac8c7c3b92583604051610a7091906111f3565b60405180910390a3505050565b6000610a8984846107a2565b90507fffffffffffffffffffffffffffffffffffffffffffffffffffffffffffffffff8114610b035781811015610af5576040517f08c379a0000000000000000000000000000000000000000000000000000000008152600401610aec9061175e565b60405180910390fd5b610b0284848484036108b4565b5b50505050565b600073ffffffffffffffffffffffffffffffffffffffff168373ffffffffffffffffffffffffffffffffffffffff1603610b78576040517f08c379a0000000000000000000000000000000000000000000000000000000008152600401610b6f906117f0565b60405180910390fd5b600073ffffffffffffffffffffffffffffffffffffffff168273ffffffffffffffffffffffffffffffffffffffff1603610be7576040517f08c379a0000000000000000000000000000000000000000000000000000000008152600401610bde90611882565b60405180910390fd5b610bf2838383611019565b60008060008573ffffffffffffffffffffffffffffffffffffffff1673ffffffffffffffffffffffffffffffffffffffff16815260200190815260200160002054905081811015610c78576040517f08c379a0000000000000000000000000000000000000000000000000000000008152600401610c6f90611914565b60405180910390fd5b8181036000808673ffffffffffffffffffffffffffffffffffffffff1673ffffffffffffffffffffffffffffffffffffffff16815260200190815260200160002081905550816000808573ffffffffffffffffffffffffffffffffffffffff1673ffffffffffffffffffffffffffffffffffffffff168152602001908152602001600020600082825401925050819055508273ffffffffffffffffffffffffffffffffffffffff168473ffffffffffffffffffffffffffffffffffffffff167fddf252ad1be2c89b69c2b068fc378daa952ba7f163c4a11628f55a4df523b3ef84604051610d6691906111f3565b60405180910390a3610d7984848461101e565b50505050565b610d876108ac565b73ffffffffffffffffffffffffffffffffffffffff16610da5610608565b73ffffffffffffffffffffffffffffffffffffffff1614610dfb576040517f08c379a0000000000000000000000000000000000000000000000000000000008152600401610df290611980565b60405180910390fd5b565b600073ffffffffffffffffffffffffffffffffffffffff168273ffffffffffffffffffffffffffffffffffffffff1603610e6c576040517f08c379a0000000000000000000000000000000000000000000000000000000008152600401610e63906119ec565b60405180910390fd5b610e7860008383611019565b8060026000828254610e8a91906113be565b92505081905550806000808473ffffffffffffffffffffffffffffffffffffffff1673ffffffffffffffffffffffffffffffffffffffff168152602001908152602001600020600082825401925050819055508173ffffffffffffffffffffffffffffffffffffffff16600073ffffffffffffffffffffffffffffffffffffffff167fddf252ad1be2c89b69c2b068fc378daa952ba7f163c4a11628f55a4df523b3ef83604051610f3b91906111f3565b60405180910390a3610f4f6000838361101e565b5050565b6000600560009054906101000a900473ffffffffffffffffffffffffffffffffffffffff16905081600560006101000a81548173ffffffffffffffffffffffffffffffffffffffff021916908373ffffffffffffffffffffffffffffffffffffffff1602179055508173ffffffffffffffffffffffffffffffffffffffff168173ffffffffffffffffffffffffffffffffffffffff167f8be0079c531659141344cd1fd0a4f28419497f9722a3daafe3b4186f6b6457e060405160405180910390a35050565b505050565b505050565b600081519050919050565b600082825260208201905092915050565b60005b8381101561105d578082015181840152602081019050611042565b60008484015250505050565b6000601f19601f8301169050919050565b600061108582611023565b61108f818561102e565b935061109f81856020860161103f565b6110a881611069565b840191505092915050565b600060208201905081810360008301526110cd818461107a565b905092915050565b600080fd5b600073ffffffffffffffffffffffffffffffffffffffff82169050919050565b6000611105826110da565b9050919050565b611115816110fa565b811461112057600080fd5b50565b6000813590506111328161110c565b92915050565b6000819050919050565b61114b81611138565b811461115657600080fd5b50565b60008135905061116881611142565b92915050565b60008060408385031215611185576111846110d5565b5b600061119385828601611123565b92505060206111a485828601611159565b9150509250929050565b60008115159050919050565b6111c3816111ae565b82525050565b60006020820190506111de60008301846111ba565b92915050565b6111ed81611138565b82525050565b600060208201905061120860008301846111e4565b92915050565b600080600060608486031215611227576112266110d5565b5b600061123586828701611123565b935050602061124686828701611123565b925050604061125786828701611159565b9150509250925092565b600060ff82169050919050565b61127781611261565b82525050565b6000602082019050611292600083018461126e565b92915050565b6000602082840312156112ae576112ad6110d5565b5b60006112bc84828501611123565b91505092915050565b6112ce816110fa565b82525050565b60006020820190506112e960008301846112c5565b92915050565b60008060408385031215611306576113056110d5565b5b600061131485828601611123565b925050602061132585828601611123565b9150509250929050565b7f4e487b7100000000000000000000000000000000000000000000000000000000600052602260045260246000fd5b6000600282049050600182168061137657607f821691505b6020821081036113895761138861132f565b5b50919050565b7f4e487b7100000000000000000000000000000000000000000000000000000000600052601160045260246000fd5b60006113c982611138565b91506113d483611138565b92508282019050808211156113ec576113eb61138f565b5b92915050565b7f496e76616c696420616464726573730000000000000000000000000000000000600082015250565b6000611428600f8361102e565b9150611433826113f2565b602082019050919050565b600060208201905081810360008301526114578161141b565b9050919050565b7f416d6f756e742063616e6e6f7420626520300000000000000000000000000000600082015250565b600061149460128361102e565b915061149f8261145e565b602082019050919050565b600060208201905081810360008301526114c381611487565b9050919050565b7f45524332303a2064656372656173656420616c6c6f77616e63652062656c6f7760008201527f207a65726f000000000000000000000000000000000000000000000000000000602082015250565b600061152660258361102e565b9150611531826114ca565b604082019050919050565b6000602082019050818103600083015261155581611519565b9050919050565b7f4f776e61626c653a206e6577206f776e657220697320746865207a65726f206160008201527f6464726573730000000000000000000000000000000000000000000000000000602082015250565b60006115b860268361102e565b91506115c38261155c565b604082019050919050565b600060208201905081810360008301526115e7816115ab565b9050919050565b7f45524332303a20617070726f76652066726f6d20746865207a65726f2061646460008201527f7265737300000000000000000000000000000000000000000000000000000000602082015250565b600061164a60248361102e565b9150611655826115ee565b604082019050919050565b600060208201905081810360008301526116798161163d565b9050919050565b7f45524332303a20617070726f766520746f20746865207a65726f20616464726560008201527f7373000000000000000000000000000000000000000000000000000000000000602082015250565b60006116dc60228361102e565b91506116e782611680565b604082019050919050565b6000602082019050818103600083015261170b816116cf565b9050919050565b7f45524332303a20696e73756666696369656e7420616c6c6f77616e6365000000600082015250565b6000611748601d8361102e565b915061175382611712565b602082019050919050565b600060208201905081810360008301526117778161173b565b9050919050565b7f45524332303a207472616e736665722066726f6d20746865207a65726f20616460008201527f6472657373000000000000000000000000000000000000000000000000000000602082015250565b60006117da60258361102e565b91506117e58261177e565b604082019050919050565b60006020820190508181036000830152611809816117cd565b9050919050565b7f45524332303a207472616e7366657220746f20746865207a65726f206164647260008201527f6573730000000000000000000000000000000000000000000000000000000000602082015250565b600061186c60238361102e565b915061187782611810565b604082019050919050565b6000602082019050818103600083015261189b8161185f565b9050919050565b7f45524332303a207472616e7366657220616d6f756e742065786365656473206260008201527f616c616e63650000000000000000000000000000000000000000000000000000602082015250565b60006118fe60268361102e565b9150611909826118a2565b604082019050919050565b6000602082019050818103600083015261192d816118f1565b9050919050565b7f4f776e61626c653a2063616c6c6572206973206e6f7420746865206f776e6572600082015250565b600061196a60208361102e565b915061197582611934565b602082019050919050565b600060208201905081810360008301526119998161195d565b9050919050565b7f45524332303a206d696e7420746f20746865207a65726f206164647265737300600082015250565b60006119d6601f8361102e565b91506119e1826119a0565b602082019050919050565b60006020820190508181036000830152611a05816119c9565b905091905056fea26469706673582212200f720d5a64cf878532ffdc02bee0e07f4e788cc15036f007400f52bb8b104f8464736f6c63430008140033",
  "immutableReferences": {},
  "source": "// SPDX-License-Identifier: MIT\npragma solidity ^0.8.20;\n\nimport \"@openzeppelin/contracts/token/ERC20/ERC20.sol\";\nimport \"@openzeppelin/contracts/access/Ownable.sol\";\n\ncontract CashToken is ERC20, Ownable {\n    event Mint(address indexed to, uint256 amount);\n\n    constructor() ERC20(\"CashToken\", \"CHT\") {\n        _mint(address(this), 2000000000000 * 10 ** decimals());\n        _mint(owner(), 2000000000000 * 10 ** decimals());\n    }\n\n    function mint(address account, uint256 amount) public onlyOwner {\n        require(account != address(0), \"Invalid address\"); // funzionlita' accessoria se desidero che il token sia mintabile solo da un indirizzo specifico futuro\n        require(amount > 0, \"Amount cannot be 0\");\n        _mint(account, amount);\n        emit Mint(account, amount);\n    }\n\n    function checkBalance() public view returns (bool) {\n        uint256 totalSupply = totalSupply();\n        uint256 contractBalance = balanceOf(address(this));\n        uint256 ownerBalance = balanceOf(owner());\n        return totalSupply == (contractBalance + ownerBalance);\n    }\n}\n// Path: contracts/StrategyOne.sol",
  "sourcePath": "/Volumes/One Touch/ProjectCourseBcod/Strategy/contracts/CashToken.sol",
  "compiler": {
    "name": "solc",
    "version": "0.8.20+commit.a1b79de6.Emscripten.clang"
  },
  "schemaVersion": "3.4.13",
  "updatedAt": "2023-05-22T18:25:18.973Z",
  "networkType": "ethereum",
  "devdoc": {
    "events": {
      "Approval(address,address,uint256)": {
        "details": "Emitted when the allowance of a `spender` for an `owner` is set by a call to {approve}. `value` is the new allowance."
      },
      "Transfer(address,address,uint256)": {
        "details": "Emitted when `value` tokens are moved from one account (`from`) to another (`to`). Note that `value` may be zero."
      }
    },
    "kind": "dev",
    "methods": {
      "allowance(address,address)": {
        "details": "See {IERC20-allowance}."
      },
      "approve(address,uint256)": {
        "details": "See {IERC20-approve}. NOTE: If `amount` is the maximum `uint256`, the allowance is not updated on `transferFrom`. This is semantically equivalent to an infinite approval. Requirements: - `spender` cannot be the zero address."
      },
      "balanceOf(address)": {
        "details": "See {IERC20-balanceOf}."
      },
      "decimals()": {
        "details": "Returns the number of decimals used to get its user representation. For example, if `decimals` equals `2`, a balance of `505` tokens should be displayed to a user as `5.05` (`505 / 10 ** 2`). Tokens usually opt for a value of 18, imitating the relationship between Ether and Wei. This is the value {ERC20} uses, unless this function is overridden; NOTE: This information is only used for _display_ purposes: it in no way affects any of the arithmetic of the contract, including {IERC20-balanceOf} and {IERC20-transfer}."
      },
      "decreaseAllowance(address,uint256)": {
        "details": "Atomically decreases the allowance granted to `spender` by the caller. This is an alternative to {approve} that can be used as a mitigation for problems described in {IERC20-approve}. Emits an {Approval} event indicating the updated allowance. Requirements: - `spender` cannot be the zero address. - `spender` must have allowance for the caller of at least `subtractedValue`."
      },
      "increaseAllowance(address,uint256)": {
        "details": "Atomically increases the allowance granted to `spender` by the caller. This is an alternative to {approve} that can be used as a mitigation for problems described in {IERC20-approve}. Emits an {Approval} event indicating the updated allowance. Requirements: - `spender` cannot be the zero address."
      },
      "name()": {
        "details": "Returns the name of the token."
      },
      "owner()": {
        "details": "Returns the address of the current owner."
      },
      "renounceOwnership()": {
        "details": "Leaves the contract without owner. It will not be possible to call `onlyOwner` functions anymore. Can only be called by the current owner. NOTE: Renouncing ownership will leave the contract without an owner, thereby removing any functionality that is only available to the owner."
      },
      "symbol()": {
        "details": "Returns the symbol of the token, usually a shorter version of the name."
      },
      "totalSupply()": {
        "details": "See {IERC20-totalSupply}."
      },
      "transfer(address,uint256)": {
        "details": "See {IERC20-transfer}. Requirements: - `to` cannot be the zero address. - the caller must have a balance of at least `amount`."
      },
      "transferFrom(address,address,uint256)": {
        "details": "See {IERC20-transferFrom}. Emits an {Approval} event indicating the updated allowance. This is not required by the EIP. See the note at the beginning of {ERC20}. NOTE: Does not update the allowance if the current allowance is the maximum `uint256`. Requirements: - `from` and `to` cannot be the zero address. - `from` must have a balance of at least `amount`. - the caller must have allowance for ``from``'s tokens of at least `amount`."
      },
      "transferOwnership(address)": {
        "details": "Transfers ownership of the contract to a new account (`newOwner`). Can only be called by the current owner."
      }
    },
    "version": 1
  },
  "userdoc": {
    "kind": "user",
    "methods": {},
    "version": 1
  }
}