{
  "contractName": "Coupon",
  "abi": [
    {
      "inputs": [],
      "stateMutability": "nonpayable",
      "type": "constructor"
    },
    {
      "anonymous": false,
      "inputs": [
        {
          "indexed": true,
          "internalType": "address",
          "name": "owner",
          "type": "address"
        },
        {
          "indexed": true,
          "internalType": "address",
          "name": "spender",
          "type": "address"
        },
        {
          "indexed": false,
          "internalType": "uint256",
          "name": "value",
          "type": "uint256"
        }
      ],
      "name": "Approval",
      "type": "event"
    },
    {
      "anonymous": false,
      "inputs": [
        {
          "indexed": true,
          "internalType": "address",
          "name": "to",
          "type": "address"
        },
        {
          "indexed": false,
          "internalType": "uint256",
          "name": "amount",
          "type": "uint256"
        }
      ],
      "name": "Mint",
      "type": "event"
    },
    {
      "anonymous": false,
      "inputs": [
        {
          "indexed": true,
          "internalType": "address",
          "name": "previousOwner",
          "type": "address"
        },
        {
          "indexed": true,
          "internalType": "address",
          "name": "newOwner",
          "type": "address"
        }
      ],
      "name": "OwnershipTransferred",
      "type": "event"
    },
    {
      "anonymous": false,
      "inputs": [
        {
          "indexed": true,
          "internalType": "address",
          "name": "from",
          "type": "address"
        },
        {
          "indexed": true,
          "internalType": "address",
          "name": "to",
          "type": "address"
        },
        {
          "indexed": false,
          "internalType": "uint256",
          "name": "value",
          "type": "uint256"
        }
      ],
      "name": "Transfer",
      "type": "event"
    },
    {
      "inputs": [
        {
          "internalType": "address",
          "name": "owner",
          "type": "address"
        },
        {
          "internalType": "address",
          "name": "spender",
          "type": "address"
        }
      ],
      "name": "allowance",
      "outputs": [
        {
          "internalType": "uint256",
          "name": "",
          "type": "uint256"
        }
      ],
      "stateMutability": "view",
      "type": "function",
      "constant": true
    },
    {
      "inputs": [
        {
          "internalType": "address",
          "name": "spender",
          "type": "address"
        },
        {
          "internalType": "uint256",
          "name": "amount",
          "type": "uint256"
        }
      ],
      "name": "approve",
      "outputs": [
        {
          "internalType": "bool",
          "name": "",
          "type": "bool"
        }
      ],
      "stateMutability": "nonpayable",
      "type": "function"
    },
    {
      "inputs": [
        {
          "internalType": "address",
          "name": "account",
          "type": "address"
        }
      ],
      "name": "balanceOf",
      "outputs": [
        {
          "internalType": "uint256",
          "name": "",
          "type": "uint256"
        }
      ],
      "stateMutability": "view",
      "type": "function",
      "constant": true
    },
    {
      "inputs": [],
      "name": "decimals",
      "outputs": [
        {
          "internalType": "uint8",
          "name": "",
          "type": "uint8"
        }
      ],
      "stateMutability": "view",
      "type": "function",
      "constant": true
    },
    {
      "inputs": [
        {
          "internalType": "address",
          "name": "spender",
          "type": "address"
        },
        {
          "internalType": "uint256",
          "name": "subtractedValue",
          "type": "uint256"
        }
      ],
      "name": "decreaseAllowance",
      "outputs": [
        {
          "internalType": "bool",
          "name": "",
          "type": "bool"
        }
      ],
      "stateMutability": "nonpayable",
      "type": "function"
    },
    {
      "inputs": [
        {
          "internalType": "address",
          "name": "spender",
          "type": "address"
        },
        {
          "internalType": "uint256",
          "name": "addedValue",
          "type": "uint256"
        }
      ],
      "name": "increaseAllowance",
      "outputs": [
        {
          "internalType": "bool",
          "name": "",
          "type": "bool"
        }
      ],
      "stateMutability": "nonpayable",
      "type": "function"
    },
    {
      "inputs": [],
      "name": "name",
      "outputs": [
        {
          "internalType": "string",
          "name": "",
          "type": "string"
        }
      ],
      "stateMutability": "view",
      "type": "function",
      "constant": true
    },
    {
      "inputs": [],
      "name": "owner",
      "outputs": [
        {
          "internalType": "address",
          "name": "",
          "type": "address"
        }
      ],
      "stateMutability": "view",
      "type": "function",
      "constant": true
    },
    {
      "inputs": [],
      "name": "renounceOwnership",
      "outputs": [],
      "stateMutability": "nonpayable",
      "type": "function"
    },
    {
      "inputs": [],
      "name": "symbol",
      "outputs": [
        {
          "internalType": "string",
          "name": "",
          "type": "string"
        }
      ],
      "stateMutability": "view",
      "type": "function",
      "constant": true
    },
    {
      "inputs": [],
      "name": "totalSupply",
      "outputs": [
        {
          "internalType": "uint256",
          "name": "",
          "type": "uint256"
        }
      ],
      "stateMutability": "view",
      "type": "function",
      "constant": true
    },
    {
      "inputs": [
        {
          "internalType": "address",
          "name": "to",
          "type": "address"
        },
        {
          "internalType": "uint256",
          "name": "amount",
          "type": "uint256"
        }
      ],
      "name": "transfer",
      "outputs": [
        {
          "internalType": "bool",
          "name": "",
          "type": "bool"
        }
      ],
      "stateMutability": "nonpayable",
      "type": "function"
    },
    {
      "inputs": [
        {
          "internalType": "address",
          "name": "from",
          "type": "address"
        },
        {
          "internalType": "address",
          "name": "to",
          "type": "address"
        },
        {
          "internalType": "uint256",
          "name": "amount",
          "type": "uint256"
        }
      ],
      "name": "transferFrom",
      "outputs": [
        {
          "internalType": "bool",
          "name": "",
          "type": "bool"
        }
      ],
      "stateMutability": "nonpayable",
      "type": "function"
    },
    {
      "inputs": [
        {
          "internalType": "address",
          "name": "newOwner",
          "type": "address"
        }
      ],
      "name": "transferOwnership",
      "outputs": [],
      "stateMutability": "nonpayable",
      "type": "function"
    },
    {
      "inputs": [
        {
          "internalType": "address",
          "name": "to",
          "type": "address"
        },
        {
          "internalType": "uint256",
          "name": "amount",
          "type": "uint256"
        }
      ],
      "name": "mint",
      "outputs": [],
      "stateMutability": "nonpayable",
      "type": "function"
    },
    {
      "inputs": [
        {
          "internalType": "address",
          "name": "account",
          "type": "address"
        },
        {
          "internalType": "uint256",
          "name": "amount",
          "type": "uint256"
        }
      ],
      "name": "burnFrom",
      "outputs": [],
      "stateMutability": "nonpayable",
      "type": "function"
    }
  ],
  "bytecode": "0x60806040523480156200001157600080fd5b506040518060400160405280600681526020017f436f75706f6e00000000000000000000000000000000000000000000000000008152506040518060400160405280600381526020017f43504e000000000000000000000000000000000000000000000000000000000081525081600390816200008f9190620006a4565b508060049081620000a19190620006a4565b505050620000d6620000c16200019a640100000000026401000000009004565b620001a2640100000000026401000000009004565b6200012930620000f462000268640100000000026401000000009004565b600a6200010291906200091b565b6404a817c8006200011491906200096c565b62000271640100000000026401000000009004565b6200019462000146620003f0640100000000026401000000009004565b6200015f62000268640100000000026401000000009004565b600a6200016d91906200091b565b6404a817c8006200017f91906200096c565b62000271640100000000026401000000009004565b62000aa3565b600033905090565b6000600560009054906101000a900473ffffffffffffffffffffffffffffffffffffffff16905081600560006101000a81548173ffffffffffffffffffffffffffffffffffffffff021916908373ffffffffffffffffffffffffffffffffffffffff1602179055508173ffffffffffffffffffffffffffffffffffffffff168173ffffffffffffffffffffffffffffffffffffffff167f8be0079c531659141344cd1fd0a4f28419497f9722a3daafe3b4186f6b6457e060405160405180910390a35050565b60006012905090565b600073ffffffffffffffffffffffffffffffffffffffff168273ffffffffffffffffffffffffffffffffffffffff1603620002e3576040517f08c379a0000000000000000000000000000000000000000000000000000000008152600401620002da9062000a18565b60405180910390fd5b62000300600083836200041a640100000000026401000000009004565b806002600082825462000314919062000a3a565b92505081905550806000808473ffffffffffffffffffffffffffffffffffffffff1673ffffffffffffffffffffffffffffffffffffffff168152602001908152602001600020600082825401925050819055508173ffffffffffffffffffffffffffffffffffffffff16600073ffffffffffffffffffffffffffffffffffffffff167fddf252ad1be2c89b69c2b068fc378daa952ba7f163c4a11628f55a4df523b3ef83604051620003c7919062000a86565b60405180910390a3620003ec600083836200041f640100000000026401000000009004565b5050565b6000600560009054906101000a900473ffffffffffffffffffffffffffffffffffffffff16905090565b505050565b505050565b600081519050919050565b7f4e487b7100000000000000000000000000000000000000000000000000000000600052604160045260246000fd5b7f4e487b7100000000000000000000000000000000000000000000000000000000600052602260045260246000fd5b60006002820490506001821680620004a657607f821691505b602082108103620004bc57620004bb6200045e565b5b50919050565b60008190508160005260206000209050919050565b60006020601f8301049050919050565b60008160020a8302905092915050565b600060088302620005297fffffffffffffffffffffffffffffffffffffffffffffffffffffffffffffffff82620004e7565b620005358683620004e7565b95508019841693508086168417925050509392505050565b6000819050919050565b6000819050919050565b6000620005826200057c62000576846200054d565b62000557565b6200054d565b9050919050565b6000819050919050565b6200059e8362000561565b620005b6620005ad8262000589565b848454620004f7565b825550505050565b600090565b620005cd620005be565b620005da81848462000593565b505050565b5b818110156200060257620005f6600082620005c3565b600181019050620005e0565b5050565b601f82111562000651576200061b81620004c2565b6200062684620004d7565b8101602085101562000636578190505b6200064e6200064585620004d7565b830182620005df565b50505b505050565b60008160020a8304905092915050565b6000620006796000198460080262000656565b1980831691505092915050565b600062000694838362000666565b9150826002028217905092915050565b620006af8262000424565b67ffffffffffffffff811115620006cb57620006ca6200042f565b5b620006d782546200048d565b620006e482828562000606565b600060209050601f8311600181146200071c576000841562000707578287015190505b62000713858262000686565b86555062000783565b601f1984166200072c86620004c2565b60005b8281101562000756578489015182556001820191506020850194506020810190506200072f565b8683101562000776578489015162000772601f89168262000666565b8355505b6001600288020188555050505b505050505050565b7f4e487b7100000000000000000000000000000000000000000000000000000000600052601160045260246000fd5b6000600282049050919050565b6000808291508390505b60018511156200081957808604811115620007f157620007f06200078b565b5b6001851615620008015780820291505b80810290506200081185620007ba565b9450620007d1565b94509492505050565b60008262000834576001905062000907565b8162000844576000905062000907565b81600181146200085d576002811462000868576200089e565b600191505062000907565b60ff8411156200087d576200087c6200078b565b5b8360020a9150848211156200089757620008966200078b565b5b5062000907565b5060208310610133831016604e8410600b8410161715620008d85782820a905083811115620008d257620008d16200078b565b5b62000907565b620008e78484846001620007c7565b925090508184048111156200090157620009006200078b565b5b81810290505b9392505050565b600060ff82169050919050565b600062000928826200054d565b915062000935836200090e565b9250620009647fffffffffffffffffffffffffffffffffffffffffffffffffffffffffffffffff848462000822565b905092915050565b600062000979826200054d565b915062000986836200054d565b925082820262000996816200054d565b91508282048414831517620009b057620009af6200078b565b5b5092915050565b600082825260208201905092915050565b7f45524332303a206d696e7420746f20746865207a65726f206164647265737300600082015250565b600062000a00601f83620009b7565b915062000a0d82620009c8565b602082019050919050565b6000602082019050818103600083015262000a3381620009f1565b9050919050565b600062000a47826200054d565b915062000a54836200054d565b925082820190508082111562000a6f5762000a6e6200078b565b5b92915050565b62000a80816200054d565b82525050565b600060208201905062000a9d600083018462000a75565b92915050565b611d038062000ab36000396000f3fe608060405234801561001057600080fd5b506004361061011d576000357c010000000000000000000000000000000000000000000000000000000090048063715018a6116100b4578063a457c2d711610083578063a457c2d7146102ba578063a9059cbb146102ea578063dd62ed3e1461031a578063f2fde38b1461034a5761011d565b8063715018a61461025857806379cc6790146102625780638da5cb5b1461027e57806395d89b411461029c5761011d565b8063313ce567116100f0578063313ce567146101be57806339509351146101dc57806340c10f191461020c57806370a08231146102285761011d565b806306fdde0314610122578063095ea7b31461014057806318160ddd1461017057806323b872dd1461018e575b600080fd5b61012a610366565b6040516101379190611250565b60405180910390f35b61015a6004803603810190610155919061130b565b6103f8565b6040516101679190611366565b60405180910390f35b61017861041b565b6040516101859190611390565b60405180910390f35b6101a860048036038101906101a391906113ab565b610425565b6040516101b59190611366565b60405180910390f35b6101c6610454565b6040516101d3919061141a565b60405180910390f35b6101f660048036038101906101f1919061130b565b61045d565b6040516102039190611366565b60405180910390f35b6102266004803603810190610221919061130b565b610494565b005b610242600480360381019061023d9190611435565b6105aa565b60405161024f9190611390565b60405180910390f35b6102606105f2565b005b61027c6004803603810190610277919061130b565b610606565b005b61028661061c565b6040516102939190611471565b60405180910390f35b6102a4610646565b6040516102b19190611250565b60405180910390f35b6102d460048036038101906102cf919061130b565b6106d8565b6040516102e19190611366565b60405180910390f35b61030460048036038101906102ff919061130b565b61074f565b6040516103119190611366565b60405180910390f35b610334600480360381019061032f919061148c565b610772565b6040516103419190611390565b60405180910390f35b610364600480360381019061035f9190611435565b6107f9565b005b606060038054610375906114fb565b80601f01602080910402602001604051908101604052809291908181526020018280546103a1906114fb565b80156103ee5780601f106103c3576101008083540402835291602001916103ee565b820191906000526020600020905b8154815290600101906020018083116103d157829003601f168201915b5050505050905090565b60008061040361087c565b9050610410818585610884565b600191505092915050565b6000600254905090565b60008061043061087c565b905061043d858285610a4d565b610448858585610ad9565b60019150509392505050565b60006012905090565b60008061046861087c565b905061048981858561047a8589610772565b610484919061155b565b610884565b600191505092915050565b61049c610d4f565b600073ffffffffffffffffffffffffffffffffffffffff168273ffffffffffffffffffffffffffffffffffffffff160361050b576040517f08c379a0000000000000000000000000000000000000000000000000000000008152600401610502906115db565b60405180910390fd5b6000811161054e576040517f08c379a000000000000000000000000000000000000000000000000000000000815260040161054590611647565b60405180910390fd5b6105588282610dcd565b8173ffffffffffffffffffffffffffffffffffffffff167f0f6798a560793a54c3bcfe86a93cde1e73087d944c0ea20544137d41213968858260405161059e9190611390565b60405180910390a25050565b60008060008373ffffffffffffffffffffffffffffffffffffffff1673ffffffffffffffffffffffffffffffffffffffff168152602001908152602001600020549050919050565b6105fa610d4f565b6106046000610f23565b565b61060e610d4f565b6106188282610fe9565b5050565b6000600560009054906101000a900473ffffffffffffffffffffffffffffffffffffffff16905090565b606060048054610655906114fb565b80601f0160208091040260200160405190810160405280929190818152602001828054610681906114fb565b80156106ce5780601f106106a3576101008083540402835291602001916106ce565b820191906000526020600020905b8154815290600101906020018083116106b157829003601f168201915b5050505050905090565b6000806106e361087c565b905060006106f18286610772565b905083811015610736576040517f08c379a000000000000000000000000000000000000000000000000000000000815260040161072d906116d9565b60405180910390fd5b6107438286868403610884565b60019250505092915050565b60008061075a61087c565b9050610767818585610ad9565b600191505092915050565b6000600160008473ffffffffffffffffffffffffffffffffffffffff1673ffffffffffffffffffffffffffffffffffffffff16815260200190815260200160002060008373ffffffffffffffffffffffffffffffffffffffff1673ffffffffffffffffffffffffffffffffffffffff16815260200190815260200160002054905092915050565b610801610d4f565b600073ffffffffffffffffffffffffffffffffffffffff168173ffffffffffffffffffffffffffffffffffffffff1603610870576040517f08c379a00000000000000000000000000000000000000000000000000000000081526004016108679061176b565b60405180910390fd5b61087981610f23565b50565b600033905090565b600073ffffffffffffffffffffffffffffffffffffffff168373ffffffffffffffffffffffffffffffffffffffff16036108f3576040517f08c379a00000000000000000000000000000000000000000000000000000000081526004016108ea906117fd565b60405180910390fd5b600073ffffffffffffffffffffffffffffffffffffffff168273ffffffffffffffffffffffffffffffffffffffff1603610962576040517f08c379a00000000000000000000000000000000000000000000000000000000081526004016109599061188f565b60405180910390fd5b80600160008573ffffffffffffffffffffffffffffffffffffffff1673ffffffffffffffffffffffffffffffffffffffff16815260200190815260200160002060008473ffffffffffffffffffffffffffffffffffffffff1673ffffffffffffffffffffffffffffffffffffffff168152602001908152602001600020819055508173ffffffffffffffffffffffffffffffffffffffff168373ffffffffffffffffffffffffffffffffffffffff167f8c5be1e5ebec7d5bd14f71427d1e84f3dd0314c0f7b2291e5b200ac8c7c3b92583604051610a409190611390565b60405180910390a3505050565b6000610a598484610772565b90507fffffffffffffffffffffffffffffffffffffffffffffffffffffffffffffffff8114610ad35781811015610ac5576040517f08c379a0000000000000000000000000000000000000000000000000000000008152600401610abc906118fb565b60405180910390fd5b610ad28484848403610884565b5b50505050565b600073ffffffffffffffffffffffffffffffffffffffff168373ffffffffffffffffffffffffffffffffffffffff1603610b48576040517f08c379a0000000000000000000000000000000000000000000000000000000008152600401610b3f9061198d565b60405180910390fd5b600073ffffffffffffffffffffffffffffffffffffffff168273ffffffffffffffffffffffffffffffffffffffff1603610bb7576040517f08c379a0000000000000000000000000000000000000000000000000000000008152600401610bae90611a1f565b60405180910390fd5b610bc28383836111b6565b60008060008573ffffffffffffffffffffffffffffffffffffffff1673ffffffffffffffffffffffffffffffffffffffff16815260200190815260200160002054905081811015610c48576040517f08c379a0000000000000000000000000000000000000000000000000000000008152600401610c3f90611ab1565b60405180910390fd5b8181036000808673ffffffffffffffffffffffffffffffffffffffff1673ffffffffffffffffffffffffffffffffffffffff16815260200190815260200160002081905550816000808573ffffffffffffffffffffffffffffffffffffffff1673ffffffffffffffffffffffffffffffffffffffff168152602001908152602001600020600082825401925050819055508273ffffffffffffffffffffffffffffffffffffffff168473ffffffffffffffffffffffffffffffffffffffff167fddf252ad1be2c89b69c2b068fc378daa952ba7f163c4a11628f55a4df523b3ef84604051610d369190611390565b60405180910390a3610d498484846111bb565b50505050565b610d5761087c565b73ffffffffffffffffffffffffffffffffffffffff16610d7561061c565b73ffffffffffffffffffffffffffffffffffffffff1614610dcb576040517f08c379a0000000000000000000000000000000000000000000000000000000008152600401610dc290611b1d565b60405180910390fd5b565b600073ffffffffffffffffffffffffffffffffffffffff168273ffffffffffffffffffffffffffffffffffffffff1603610e3c576040517f08c379a0000000000000000000000000000000000000000000000000000000008152600401610e3390611b89565b60405180910390fd5b610e48600083836111b6565b8060026000828254610e5a919061155b565b92505081905550806000808473ffffffffffffffffffffffffffffffffffffffff1673ffffffffffffffffffffffffffffffffffffffff168152602001908152602001600020600082825401925050819055508173ffffffffffffffffffffffffffffffffffffffff16600073ffffffffffffffffffffffffffffffffffffffff167fddf252ad1be2c89b69c2b068fc378daa952ba7f163c4a11628f55a4df523b3ef83604051610f0b9190611390565b60405180910390a3610f1f600083836111bb565b5050565b6000600560009054906101000a900473ffffffffffffffffffffffffffffffffffffffff16905081600560006101000a81548173ffffffffffffffffffffffffffffffffffffffff021916908373ffffffffffffffffffffffffffffffffffffffff1602179055508173ffffffffffffffffffffffffffffffffffffffff168173ffffffffffffffffffffffffffffffffffffffff167f8be0079c531659141344cd1fd0a4f28419497f9722a3daafe3b4186f6b6457e060405160405180910390a35050565b600073ffffffffffffffffffffffffffffffffffffffff168273ffffffffffffffffffffffffffffffffffffffff1603611058576040517f08c379a000000000000000000000000000000000000000000000000000000000815260040161104f90611c1b565b60405180910390fd5b611064826000836111b6565b60008060008473ffffffffffffffffffffffffffffffffffffffff1673ffffffffffffffffffffffffffffffffffffffff168152602001908152602001600020549050818110156110ea576040517f08c379a00000000000000000000000000000000000000000000000000000000081526004016110e190611cad565b60405180910390fd5b8181036000808573ffffffffffffffffffffffffffffffffffffffff1673ffffffffffffffffffffffffffffffffffffffff1681526020019081526020016000208190555081600260008282540392505081905550600073ffffffffffffffffffffffffffffffffffffffff168373ffffffffffffffffffffffffffffffffffffffff167fddf252ad1be2c89b69c2b068fc378daa952ba7f163c4a11628f55a4df523b3ef8460405161119d9190611390565b60405180910390a36111b1836000846111bb565b505050565b505050565b505050565b600081519050919050565b600082825260208201905092915050565b60005b838110156111fa5780820151818401526020810190506111df565b60008484015250505050565b6000601f19601f8301169050919050565b6000611222826111c0565b61122c81856111cb565b935061123c8185602086016111dc565b61124581611206565b840191505092915050565b6000602082019050818103600083015261126a8184611217565b905092915050565b600080fd5b600073ffffffffffffffffffffffffffffffffffffffff82169050919050565b60006112a282611277565b9050919050565b6112b281611297565b81146112bd57600080fd5b50565b6000813590506112cf816112a9565b92915050565b6000819050919050565b6112e8816112d5565b81146112f357600080fd5b50565b600081359050611305816112df565b92915050565b6000806040838503121561132257611321611272565b5b6000611330858286016112c0565b9250506020611341858286016112f6565b9150509250929050565b60008115159050919050565b6113608161134b565b82525050565b600060208201905061137b6000830184611357565b92915050565b61138a816112d5565b82525050565b60006020820190506113a56000830184611381565b92915050565b6000806000606084860312156113c4576113c3611272565b5b60006113d2868287016112c0565b93505060206113e3868287016112c0565b92505060406113f4868287016112f6565b9150509250925092565b600060ff82169050919050565b611414816113fe565b82525050565b600060208201905061142f600083018461140b565b92915050565b60006020828403121561144b5761144a611272565b5b6000611459848285016112c0565b91505092915050565b61146b81611297565b82525050565b60006020820190506114866000830184611462565b92915050565b600080604083850312156114a3576114a2611272565b5b60006114b1858286016112c0565b92505060206114c2858286016112c0565b9150509250929050565b7f4e487b7100000000000000000000000000000000000000000000000000000000600052602260045260246000fd5b6000600282049050600182168061151357607f821691505b602082108103611526576115256114cc565b5b50919050565b7f4e487b7100000000000000000000000000000000000000000000000000000000600052601160045260246000fd5b6000611566826112d5565b9150611571836112d5565b92508282019050808211156115895761158861152c565b5b92915050565b7f496e76616c696420616464726573730000000000000000000000000000000000600082015250565b60006115c5600f836111cb565b91506115d08261158f565b602082019050919050565b600060208201905081810360008301526115f4816115b8565b9050919050565b7f416d6f756e742063616e6e6f7420626520300000000000000000000000000000600082015250565b60006116316012836111cb565b915061163c826115fb565b602082019050919050565b6000602082019050818103600083015261166081611624565b9050919050565b7f45524332303a2064656372656173656420616c6c6f77616e63652062656c6f7760008201527f207a65726f000000000000000000000000000000000000000000000000000000602082015250565b60006116c36025836111cb565b91506116ce82611667565b604082019050919050565b600060208201905081810360008301526116f2816116b6565b9050919050565b7f4f776e61626c653a206e6577206f776e657220697320746865207a65726f206160008201527f6464726573730000000000000000000000000000000000000000000000000000602082015250565b60006117556026836111cb565b9150611760826116f9565b604082019050919050565b6000602082019050818103600083015261178481611748565b9050919050565b7f45524332303a20617070726f76652066726f6d20746865207a65726f2061646460008201527f7265737300000000000000000000000000000000000000000000000000000000602082015250565b60006117e76024836111cb565b91506117f28261178b565b604082019050919050565b60006020820190508181036000830152611816816117da565b9050919050565b7f45524332303a20617070726f766520746f20746865207a65726f20616464726560008201527f7373000000000000000000000000000000000000000000000000000000000000602082015250565b60006118796022836111cb565b91506118848261181d565b604082019050919050565b600060208201905081810360008301526118a88161186c565b9050919050565b7f45524332303a20696e73756666696369656e7420616c6c6f77616e6365000000600082015250565b60006118e5601d836111cb565b91506118f0826118af565b602082019050919050565b60006020820190508181036000830152611914816118d8565b9050919050565b7f45524332303a207472616e736665722066726f6d20746865207a65726f20616460008201527f6472657373000000000000000000000000000000000000000000000000000000602082015250565b60006119776025836111cb565b91506119828261191b565b604082019050919050565b600060208201905081810360008301526119a68161196a565b9050919050565b7f45524332303a207472616e7366657220746f20746865207a65726f206164647260008201527f6573730000000000000000000000000000000000000000000000000000000000602082015250565b6000611a096023836111cb565b9150611a14826119ad565b604082019050919050565b60006020820190508181036000830152611a38816119fc565b9050919050565b7f45524332303a207472616e7366657220616d6f756e742065786365656473206260008201527f616c616e63650000000000000000000000000000000000000000000000000000602082015250565b6000611a9b6026836111cb565b9150611aa682611a3f565b604082019050919050565b60006020820190508181036000830152611aca81611a8e565b9050919050565b7f4f776e61626c653a2063616c6c6572206973206e6f7420746865206f776e6572600082015250565b6000611b076020836111cb565b9150611b1282611ad1565b602082019050919050565b60006020820190508181036000830152611b3681611afa565b9050919050565b7f45524332303a206d696e7420746f20746865207a65726f206164647265737300600082015250565b6000611b73601f836111cb565b9150611b7e82611b3d565b602082019050919050565b60006020820190508181036000830152611ba281611b66565b9050919050565b7f45524332303a206275726e2066726f6d20746865207a65726f2061646472657360008201527f7300000000000000000000000000000000000000000000000000000000000000602082015250565b6000611c056021836111cb565b9150611c1082611ba9565b604082019050919050565b60006020820190508181036000830152611c3481611bf8565b9050919050565b7f45524332303a206275726e20616d6f756e7420657863656564732062616c616e60008201527f6365000000000000000000000000000000000000000000000000000000000000602082015250565b6000611c976022836111cb565b9150611ca282611c3b565b604082019050919050565b60006020820190508181036000830152611cc681611c8a565b905091905056fea26469706673582212203578f17a933fda56609889a1698624cf91c46c3f4e8ccf1cd833230190ca1d2b64736f6c63430008140033",
  "immutableReferences": {},
  "source": "// SPDX-License-Identifier: MIT\npragma solidity ^0.8.20;\n\nimport \"@openzeppelin/contracts/token/ERC20/ERC20.sol\";\nimport \"@openzeppelin/contracts/token/ERC20/extensions/ERC20Burnable.sol\";\nimport \"@openzeppelin/contracts/access/Ownable.sol\";\nimport \"./IMintableToken.sol\";\n\ncontract Coupon is ERC20, Ownable, IMintableToken {\n    event Mint(address indexed to, uint256 amount);\n\n    constructor() ERC20(\"Coupon\", \"CPN\") {\n        _mint(address(this), 20000000000 * 10 ** decimals());\n        _mint(owner(), 20000000000 * 10 ** decimals());\n    }\n\n    function mint(address to, uint256 amount) public onlyOwner {\n        require(to != address(0), \"Invalid address\");\n        require(amount > 0, \"Amount cannot be 0\");\n        _mint(to, amount);\n        emit Mint(to, amount);\n    }\n\n    function burnFrom(\n        address account,\n        uint256 amount\n    ) external override onlyOwner {\n        _burn(account, amount);\n    }\n}\n\n// Path: contracts/StrategyOne.sol",
  "sourcePath": "/Volumes/One Touch/ProjectCourseBcod/Strategy/contracts/Coupon.sol",
  "compiler": {
    "name": "solc",
    "version": "0.8.20+commit.a1b79de6.Emscripten.clang"
  },
  "schemaVersion": "3.4.13",
  "updatedAt": "2023-05-22T18:25:18.997Z",
  "networkType": "ethereum",
  "devdoc": {
    "events": {
      "Approval(address,address,uint256)": {
        "details": "Emitted when the allowance of a `spender` for an `owner` is set by a call to {approve}. `value` is the new allowance."
      },
      "Transfer(address,address,uint256)": {
        "details": "Emitted when `value` tokens are moved from one account (`from`) to another (`to`). Note that `value` may be zero."
      }
    },
    "kind": "dev",
    "methods": {
      "allowance(address,address)": {
        "details": "See {IERC20-allowance}."
      },
      "approve(address,uint256)": {
        "details": "See {IERC20-approve}. NOTE: If `amount` is the maximum `uint256`, the allowance is not updated on `transferFrom`. This is semantically equivalent to an infinite approval. Requirements: - `spender` cannot be the zero address."
      },
      "balanceOf(address)": {
        "details": "See {IERC20-balanceOf}."
      },
      "decimals()": {
        "details": "Returns the number of decimals used to get its user representation. For example, if `decimals` equals `2`, a balance of `505` tokens should be displayed to a user as `5.05` (`505 / 10 ** 2`). Tokens usually opt for a value of 18, imitating the relationship between Ether and Wei. This is the value {ERC20} uses, unless this function is overridden; NOTE: This information is only used for _display_ purposes: it in no way affects any of the arithmetic of the contract, including {IERC20-balanceOf} and {IERC20-transfer}."
      },
      "decreaseAllowance(address,uint256)": {
        "details": "Atomically decreases the allowance granted to `spender` by the caller. This is an alternative to {approve} that can be used as a mitigation for problems described in {IERC20-approve}. Emits an {Approval} event indicating the updated allowance. Requirements: - `spender` cannot be the zero address. - `spender` must have allowance for the caller of at least `subtractedValue`."
      },
      "increaseAllowance(address,uint256)": {
        "details": "Atomically increases the allowance granted to `spender` by the caller. This is an alternative to {approve} that can be used as a mitigation for problems described in {IERC20-approve}. Emits an {Approval} event indicating the updated allowance. Requirements: - `spender` cannot be the zero address."
      },
      "name()": {
        "details": "Returns the name of the token."
      },
      "owner()": {
        "details": "Returns the address of the current owner."
      },
      "renounceOwnership()": {
        "details": "Leaves the contract without owner. It will not be possible to call `onlyOwner` functions anymore. Can only be called by the current owner. NOTE: Renouncing ownership will leave the contract without an owner, thereby removing any functionality that is only available to the owner."
      },
      "symbol()": {
        "details": "Returns the symbol of the token, usually a shorter version of the name."
      },
      "totalSupply()": {
        "details": "See {IERC20-totalSupply}."
      },
      "transfer(address,uint256)": {
        "details": "See {IERC20-transfer}. Requirements: - `to` cannot be the zero address. - the caller must have a balance of at least `amount`."
      },
      "transferFrom(address,address,uint256)": {
        "details": "See {IERC20-transferFrom}. Emits an {Approval} event indicating the updated allowance. This is not required by the EIP. See the note at the beginning of {ERC20}. NOTE: Does not update the allowance if the current allowance is the maximum `uint256`. Requirements: - `from` and `to` cannot be the zero address. - `from` must have a balance of at least `amount`. - the caller must have allowance for ``from``'s tokens of at least `amount`."
      },
      "transferOwnership(address)": {
        "details": "Transfers ownership of the contract to a new account (`newOwner`). Can only be called by the current owner."
      }
    },
    "version": 1
  },
  "userdoc": {
    "kind": "user",
    "methods": {},
    "version": 1
  }
}