{
  "contractName": "StrategyTwo",
  "abi": [
    {
      "inputs": [
        {
          "internalType": "address",
          "name": "_akkToken",
          "type": "address"
        },
        {
          "internalType": "address",
          "name": "_usdtCash",
          "type": "address"
        },
        {
          "internalType": "uint256",
          "name": "_rate",
          "type": "uint256"
        }
      ],
      "stateMutability": "nonpayable",
      "type": "constructor"
    },
    {
      "anonymous": false,
      "inputs": [
        {
          "indexed": true,
          "internalType": "address",
          "name": "user",
          "type": "address"
        }
      ],
      "name": "AddedToWhitelist",
      "type": "event"
    },
    {
      "anonymous": false,
      "inputs": [
        {
          "indexed": true,
          "internalType": "address",
          "name": "user",
          "type": "address"
        },
        {
          "indexed": false,
          "internalType": "uint256",
          "name": "amount",
          "type": "uint256"
        }
      ],
      "name": "AkkTokenBalanceUpdated",
      "type": "event"
    },
    {
      "anonymous": false,
      "inputs": [
        {
          "indexed": true,
          "internalType": "address",
          "name": "user",
          "type": "address"
        },
        {
          "indexed": false,
          "internalType": "uint256",
          "name": "cashTokenAmount",
          "type": "uint256"
        },
        {
          "indexed": false,
          "internalType": "uint256",
          "name": "akkTokenAmount",
          "type": "uint256"
        },
        {
          "indexed": false,
          "internalType": "enum StrategyTwo.AccumulationDuration",
          "name": "duration",
          "type": "uint8"
        }
      ],
      "name": "AkkTokenBought",
      "type": "event"
    },
    {
      "anonymous": false,
      "inputs": [
        {
          "indexed": false,
          "internalType": "uint256",
          "name": "amount",
          "type": "uint256"
        }
      ],
      "name": "AkkTokenRemaining",
      "type": "event"
    },
    {
      "anonymous": false,
      "inputs": [
        {
          "indexed": true,
          "internalType": "address",
          "name": "user",
          "type": "address"
        },
        {
          "indexed": false,
          "internalType": "uint256",
          "name": "akkTokenAmount",
          "type": "uint256"
        }
      ],
      "name": "AkkTokenWithdrawn",
      "type": "event"
    },
    {
      "anonymous": false,
      "inputs": [
        {
          "indexed": true,
          "internalType": "address",
          "name": "user",
          "type": "address"
        },
        {
          "indexed": false,
          "internalType": "uint256",
          "name": "cashTokenAmount",
          "type": "uint256"
        }
      ],
      "name": "CashTokenWithdrawn",
      "type": "event"
    },
    {
      "anonymous": false,
      "inputs": [
        {
          "indexed": true,
          "internalType": "address",
          "name": "previousOwner",
          "type": "address"
        },
        {
          "indexed": true,
          "internalType": "address",
          "name": "newOwner",
          "type": "address"
        }
      ],
      "name": "OwnershipTransferred",
      "type": "event"
    },
    {
      "anonymous": false,
      "inputs": [
        {
          "indexed": false,
          "internalType": "uint256",
          "name": "rate",
          "type": "uint256"
        }
      ],
      "name": "RateSet",
      "type": "event"
    },
    {
      "anonymous": false,
      "inputs": [
        {
          "indexed": false,
          "internalType": "address",
          "name": "add",
          "type": "address"
        },
        {
          "indexed": false,
          "internalType": "uint256",
          "name": "amm",
          "type": "uint256"
        }
      ],
      "name": "debug",
      "type": "event"
    },
    {
      "inputs": [],
      "name": "MIN_AK_TOKEN_AMOUNT",
      "outputs": [
        {
          "internalType": "uint256",
          "name": "",
          "type": "uint256"
        }
      ],
      "stateMutability": "view",
      "type": "function",
      "constant": true
    },
    {
      "inputs": [],
      "name": "akkToken",
      "outputs": [
        {
          "internalType": "contract IMintableToken",
          "name": "",
          "type": "address"
        }
      ],
      "stateMutability": "view",
      "type": "function",
      "constant": true
    },
    {
      "inputs": [],
      "name": "owner",
      "outputs": [
        {
          "internalType": "address",
          "name": "",
          "type": "address"
        }
      ],
      "stateMutability": "view",
      "type": "function",
      "constant": true
    },
    {
      "inputs": [],
      "name": "rate",
      "outputs": [
        {
          "internalType": "uint256",
          "name": "",
          "type": "uint256"
        }
      ],
      "stateMutability": "view",
      "type": "function",
      "constant": true
    },
    {
      "inputs": [],
      "name": "renounceOwnership",
      "outputs": [],
      "stateMutability": "nonpayable",
      "type": "function"
    },
    {
      "inputs": [
        {
          "internalType": "address",
          "name": "newOwner",
          "type": "address"
        }
      ],
      "name": "transferOwnership",
      "outputs": [],
      "stateMutability": "nonpayable",
      "type": "function"
    },
    {
      "inputs": [],
      "name": "usdtCash",
      "outputs": [
        {
          "internalType": "contract USDTCash",
          "name": "",
          "type": "address"
        }
      ],
      "stateMutability": "view",
      "type": "function",
      "constant": true
    },
    {
      "inputs": [
        {
          "internalType": "address",
          "name": "",
          "type": "address"
        }
      ],
      "name": "users",
      "outputs": [
        {
          "internalType": "uint256",
          "name": "balance",
          "type": "uint256"
        },
        {
          "internalType": "uint256",
          "name": "firstDepositTime",
          "type": "uint256"
        },
        {
          "internalType": "uint256",
          "name": "lastDepositTime",
          "type": "uint256"
        },
        {
          "internalType": "enum StrategyTwo.AccumulationDuration",
          "name": "duration",
          "type": "uint8"
        }
      ],
      "stateMutability": "view",
      "type": "function",
      "constant": true
    },
    {
      "inputs": [
        {
          "internalType": "enum StrategyTwo.AccumulationDuration",
          "name": "_duration",
          "type": "uint8"
        }
      ],
      "name": "calculateDuration",
      "outputs": [
        {
          "internalType": "uint256",
          "name": "",
          "type": "uint256"
        }
      ],
      "stateMutability": "pure",
      "type": "function",
      "constant": true
    },
    {
      "inputs": [
        {
          "internalType": "uint256",
          "name": "_amount",
          "type": "uint256"
        },
        {
          "internalType": "enum StrategyTwo.AccumulationDuration",
          "name": "_duration",
          "type": "uint8"
        }
      ],
      "name": "buyAkkToken",
      "outputs": [],
      "stateMutability": "nonpayable",
      "type": "function"
    },
    {
      "inputs": [
        {
          "internalType": "uint256",
          "name": "_rate",
          "type": "uint256"
        }
      ],
      "name": "setRate",
      "outputs": [],
      "stateMutability": "nonpayable",
      "type": "function"
    },
    {
      "inputs": [
        {
          "internalType": "uint256",
          "name": "_amount",
          "type": "uint256"
        }
      ],
      "name": "withdrawAkkToken",
      "outputs": [],
      "stateMutability": "nonpayable",
      "type": "function"
    },
    {
      "inputs": [],
      "name": "getUSDTCashTokenBalance",
      "outputs": [
        {
          "internalType": "uint256",
          "name": "",
          "type": "uint256"
        }
      ],
      "stateMutability": "view",
      "type": "function",
      "constant": true
    },
    {
      "inputs": [],
      "name": "getMyAkTokenBalanceUser",
      "outputs": [
        {
          "internalType": "uint256",
          "name": "_amount",
          "type": "uint256"
        }
      ],
      "stateMutability": "view",
      "type": "function",
      "constant": true
    },
    {
      "inputs": [
        {
          "internalType": "address",
          "name": "ContractAddress",
          "type": "address"
        }
      ],
      "name": "getBalanceAkTokenStTwo",
      "outputs": [
        {
          "internalType": "uint256",
          "name": "_amount",
          "type": "uint256"
        }
      ],
      "stateMutability": "view",
      "type": "function",
      "constant": true
    },
    {
      "inputs": [
        {
          "internalType": "address",
          "name": "ContractAddress",
          "type": "address"
        }
      ],
      "name": "getUSDTBalanceStTwo",
      "outputs": [
        {
          "internalType": "uint256",
          "name": "_amount",
          "type": "uint256"
        }
      ],
      "stateMutability": "view",
      "type": "function",
      "constant": true
    }
  ],
  "bytecode": "0x60806040523480156200001157600080fd5b5060405162002e6938038062002e69833981810160405281019062000037919062000273565b620000696200005462000102640100000000026401000000009004565b6200010a640100000000026401000000009004565b6001808190555082600260006101000a81548173ffffffffffffffffffffffffffffffffffffffff021916908373ffffffffffffffffffffffffffffffffffffffff16021790555081600360006101000a81548173ffffffffffffffffffffffffffffffffffffffff021916908373ffffffffffffffffffffffffffffffffffffffff16021790555080600481905550505050620002cf565b600033905090565b60008060009054906101000a900473ffffffffffffffffffffffffffffffffffffffff169050816000806101000a81548173ffffffffffffffffffffffffffffffffffffffff021916908373ffffffffffffffffffffffffffffffffffffffff1602179055508173ffffffffffffffffffffffffffffffffffffffff168173ffffffffffffffffffffffffffffffffffffffff167f8be0079c531659141344cd1fd0a4f28419497f9722a3daafe3b4186f6b6457e060405160405180910390a35050565b600080fd5b600073ffffffffffffffffffffffffffffffffffffffff82169050919050565b60006200020082620001d3565b9050919050565b6200021281620001f3565b81146200021e57600080fd5b50565b600081519050620002328162000207565b92915050565b6000819050919050565b6200024d8162000238565b81146200025957600080fd5b50565b6000815190506200026d8162000242565b92915050565b6000806000606084860312156200028f576200028e620001ce565b5b60006200029f8682870162000221565b9350506020620002b28682870162000221565b9250506040620002c5868287016200025c565b9150509250925092565b612b8a80620002df6000396000f3fe608060405234801561001057600080fd5b506004361061011b576000357c010000000000000000000000000000000000000000000000000000000090048063715018a6116100b4578063a87430ba11610083578063a87430ba14610292578063d6ed99f0146102c5578063f2fde38b146102f5578063f91bd58c146103115761011b565b8063715018a61461023057806379a770351461023a5780638da5cb5b146102565780639631f8d3146102745761011b565b80632c4e722e116100f05780632c4e722e146101a85780632df687a0146101c657806334fcf437146101f657806359e2e1aa146102125761011b565b806202b6ac14610120578062a9dc101461013e57806318df7a8f1461015c5780632ad2b49b14610178575b600080fd5b61012861032f565b6040516101359190611e4e565b60405180910390f35b610146610355565b6040516101539190611e82565b60405180910390f35b61017660048036038101906101719190611ef3565b610414565b005b610192600480360381019061018d9190611f33565b610aae565b60405161019f9190611e82565b60405180910390f35b6101b0610bcb565b6040516101bd9190611e82565b60405180910390f35b6101e060048036038101906101db9190611f9e565b610bd1565b6040516101ed9190611e82565b60405180910390f35b610210600480360381019061020b9190611fcb565b610c92565b005b61021a610cdd565b6040516102279190611e82565b60405180910390f35b610238610d9c565b005b610254600480360381019061024f9190611fcb565b610db0565b005b61025e611515565b60405161026b9190612007565b60405180910390f35b61027c61153e565b6040516102899190611e82565b60405180910390f35b6102ac60048036038101906102a79190611f9e565b61154a565b6040516102bc9493929190612099565b60405180910390f35b6102df60048036038101906102da9190611f9e565b611587565b6040516102ec9190611e82565b60405180910390f35b61030f600480360381019061030a9190611f9e565b611648565b005b6103196116cb565b60405161032691906120ff565b60405180910390f35b600360009054906101000a900473ffffffffffffffffffffffffffffffffffffffff1681565b6000600360009054906101000a900473ffffffffffffffffffffffffffffffffffffffff1673ffffffffffffffffffffffffffffffffffffffff166370a08231336040518263ffffffff167c01000000000000000000000000000000000000000000000000000000000281526004016103ce9190612007565b602060405180830381865afa1580156103eb573d6000803e3d6000fd5b505050506040513d601f19601f8201168201806040525081019061040f919061212f565b905090565b61041c6116f1565b600082905060006004548261043191906121ba565b905060008203610476576040517f08c379a000000000000000000000000000000000000000000000000000000000815260040161046d90612248565b60405180910390fd5b80600360009054906101000a900473ffffffffffffffffffffffffffffffffffffffff1673ffffffffffffffffffffffffffffffffffffffff166370a08231336040518263ffffffff167c01000000000000000000000000000000000000000000000000000000000281526004016104ee9190612007565b602060405180830381865afa15801561050b573d6000803e3d6000fd5b505050506040513d601f19601f8201168201806040525081019061052f919061212f565b1015610570576040517f08c379a0000000000000000000000000000000000000000000000000000000008152600401610567906122b4565b60405180910390fd5b678ac7230489e800008210156105bb576040517f08c379a00000000000000000000000000000000000000000000000000000000081526004016105b290612320565b60405180910390fd5b600060038111156105cf576105ce612022565b5b8360038111156105e2576105e1612022565b5b14806106125750600160038111156105fd576105fc612022565b5b8360038111156106105761060f612022565b5b145b8061064157506002600381111561062c5761062b612022565b5b83600381111561063f5761063e612022565b5b145b8061066f575060038081111561065a57610659612022565b5b83600381111561066d5761066c612022565b5b145b6106ae576040517f08c379a00000000000000000000000000000000000000000000000000000000081526004016106a59061238c565b60405180910390fd5b6106db600360009054906101000a900473ffffffffffffffffffffffffffffffffffffffff163383611740565b610709600360009054906101000a900473ffffffffffffffffffffffffffffffffffffffff1633308461188a565b6000600260009054906101000a900473ffffffffffffffffffffffffffffffffffffffff1673ffffffffffffffffffffffffffffffffffffffff166370a08231306040518263ffffffff167c01000000000000000000000000000000000000000000000000000000000281526004016107829190612007565b602060405180830381865afa15801561079f573d6000803e3d6000fd5b505050506040513d601f19601f820116820180604052508101906107c3919061212f565b90508281101561088457600260009054906101000a900473ffffffffffffffffffffffffffffffffffffffff1673ffffffffffffffffffffffffffffffffffffffff166340c10f1930838661081891906123ac565b6040518363ffffffff167c01000000000000000000000000000000000000000000000000000000000281526004016108519291906123e0565b600060405180830381600087803b15801561086b57600080fd5b505af115801561087f573d6000803e3d6000fd5b505050505b6108b1600260009054906101000a900473ffffffffffffffffffffffffffffffffffffffff16338561192f565b82600560003373ffffffffffffffffffffffffffffffffffffffff1673ffffffffffffffffffffffffffffffffffffffff16815260200190815260200160002060000160008282546109039190612409565b9250508190555042600560003373ffffffffffffffffffffffffffffffffffffffff1673ffffffffffffffffffffffffffffffffffffffff168152602001908152602001600020600201819055506000600560003373ffffffffffffffffffffffffffffffffffffffff1673ffffffffffffffffffffffffffffffffffffffff1681526020019081526020016000206001015403610a4d5742600560003373ffffffffffffffffffffffffffffffffffffffff1673ffffffffffffffffffffffffffffffffffffffff1681526020019081526020016000206001018190555083600560003373ffffffffffffffffffffffffffffffffffffffff1673ffffffffffffffffffffffffffffffffffffffff16815260200190815260200160002060030160006101000a81548160ff02191690836003811115610a4757610a46612022565b5b02179055505b3373ffffffffffffffffffffffffffffffffffffffff167fd7fcfbc59c6c3ef70dde86f47c947a51cdddd9a31197193ffcef9c130a6cf36d838587604051610a979392919061243d565b60405180910390a2505050610aaa6119d1565b5050565b6000806003811115610ac357610ac2612022565b5b826003811115610ad657610ad5612022565b5b03610ae457600a9050610bc6565b60016003811115610af857610af7612022565b5b826003811115610b0b57610b0a612022565b5b03610b1c5763096601809050610bc6565b60026003811115610b3057610b2f612022565b5b826003811115610b4357610b42612022565b5b03610b54576312cc03009050610bc6565b600380811115610b6757610b66612022565b5b826003811115610b7a57610b79612022565b5b03610b8b57631c3204809050610bc6565b6040517f08c379a0000000000000000000000000000000000000000000000000000000008152600401610bbd906124c0565b60405180910390fd5b919050565b60045481565b6000600260009054906101000a900473ffffffffffffffffffffffffffffffffffffffff1673ffffffffffffffffffffffffffffffffffffffff166370a08231836040518263ffffffff167c0100000000000000000000000000000000000000000000000000000000028152600401610c4a9190612007565b602060405180830381865afa158015610c67573d6000803e3d6000fd5b505050506040513d601f19601f82011682018060405250810190610c8b919061212f565b9050919050565b610c9a6119da565b806004819055507faaeb483bfbd8cfd510c2bf9558f92d3b588e733adf62f05e2e3de2486d13279d600454604051610cd29190611e82565b60405180910390a150565b6000600260009054906101000a900473ffffffffffffffffffffffffffffffffffffffff1673ffffffffffffffffffffffffffffffffffffffff166370a08231336040518263ffffffff167c0100000000000000000000000000000000000000000000000000000000028152600401610d569190612007565b602060405180830381865afa158015610d73573d6000803e3d6000fd5b505050506040513d601f19601f82011682018060405250810190610d97919061212f565b905090565b610da46119da565b610dae6000611a58565b565b610db86116f1565b60008111610dfb576040517f08c379a0000000000000000000000000000000000000000000000000000000008152600401610df29061252c565b60405180910390fd5b80600560003373ffffffffffffffffffffffffffffffffffffffff1673ffffffffffffffffffffffffffffffffffffffff168152602001908152602001600020600001541015610e80576040517f08c379a0000000000000000000000000000000000000000000000000000000008152600401610e7790612598565b60405180910390fd5b6000819050600060045482610e9591906121ba565b9050610eef600560003373ffffffffffffffffffffffffffffffffffffffff1673ffffffffffffffffffffffffffffffffffffffff16815260200190815260200160002060030160009054906101000a900460ff16610aae565b600560003373ffffffffffffffffffffffffffffffffffffffff1673ffffffffffffffffffffffffffffffffffffffff16815260200190815260200160002060010154610f3c9190612409565b4211611061577f5e425538c7e29a3d46eeeb3adb5e33e85e1548fb34404f88df642c95e2e0f9b73383600560003373ffffffffffffffffffffffffffffffffffffffff1673ffffffffffffffffffffffffffffffffffffffff16815260200190815260200160002060000154610fb291906123ac565b604051610fc09291906123e0565b60405180910390a181600560003373ffffffffffffffffffffffffffffffffffffffff1673ffffffffffffffffffffffffffffffffffffffff1681526020019081526020016000206000015461101691906123ac565b678ac7230489e800001115611060576040517f08c379a000000000000000000000000000000000000000000000000000000000815260040161105790612676565b60405180910390fd5b5b81600560003373ffffffffffffffffffffffffffffffffffffffff1673ffffffffffffffffffffffffffffffffffffffff16815260200190815260200160002060000160008282546110b391906123ac565b925050819055506110e8600260009054906101000a900473ffffffffffffffffffffffffffffffffffffffff1633308561188a565b600260009054906101000a900473ffffffffffffffffffffffffffffffffffffffff1673ffffffffffffffffffffffffffffffffffffffff166379cc679030846040518363ffffffff167c01000000000000000000000000000000000000000000000000000000000281526004016111619291906123e0565b600060405180830381600087803b15801561117b57600080fd5b505af115801561118f573d6000803e3d6000fd5b505050506000600360009054906101000a900473ffffffffffffffffffffffffffffffffffffffff1673ffffffffffffffffffffffffffffffffffffffff166370a08231306040518263ffffffff167c010000000000000000000000000000000000000000000000000000000002815260040161120c9190612007565b602060405180830381865afa158015611229573d6000803e3d6000fd5b505050506040513d601f19601f8201168201806040525081019061124d919061212f565b90508181101561130e57600360009054906101000a900473ffffffffffffffffffffffffffffffffffffffff1673ffffffffffffffffffffffffffffffffffffffff166340c10f193083856112a291906123ac565b6040518363ffffffff167c01000000000000000000000000000000000000000000000000000000000281526004016112db9291906123e0565b600060405180830381600087803b1580156112f557600080fd5b505af1158015611309573d6000803e3d6000fd5b505050505b61133b600360009054906101000a900473ffffffffffffffffffffffffffffffffffffffff16338461192f565b3373ffffffffffffffffffffffffffffffffffffffff167fc23438195fe8be4c5c988b4930db4ef2d076c730f8d560e220ea9105391f9d8b846040516113819190611e82565b60405180910390a23373ffffffffffffffffffffffffffffffffffffffff167fb0ec936b489c141c9724e6e56d0f546de3da7fe870e87661d50edba5a4e4234a600560003373ffffffffffffffffffffffffffffffffffffffff1673ffffffffffffffffffffffffffffffffffffffff168152602001908152602001600020600001546040516114119190611e82565b60405180910390a27f4bb6b05c6573b90c916ba0533b3b5330a9c169e12b2346c5815c09a0d07b6bfa600260009054906101000a900473ffffffffffffffffffffffffffffffffffffffff1673ffffffffffffffffffffffffffffffffffffffff166370a08231306040518263ffffffff167c01000000000000000000000000000000000000000000000000000000000281526004016114b19190612007565b602060405180830381865afa1580156114ce573d6000803e3d6000fd5b505050506040513d601f19601f820116820180604052508101906114f2919061212f565b6040516114ff9190611e82565b60405180910390a15050506115126119d1565b50565b60008060009054906101000a900473ffffffffffffffffffffffffffffffffffffffff16905090565b678ac7230489e8000081565b60056020528060005260406000206000915090508060000154908060010154908060020154908060030160009054906101000a900460ff16905084565b6000600360009054906101000a900473ffffffffffffffffffffffffffffffffffffffff1673ffffffffffffffffffffffffffffffffffffffff166370a08231836040518263ffffffff167c01000000000000000000000000000000000000000000000000000000000281526004016116009190612007565b602060405180830381865afa15801561161d573d6000803e3d6000fd5b505050506040513d601f19601f82011682018060405250810190611641919061212f565b9050919050565b6116506119da565b600073ffffffffffffffffffffffffffffffffffffffff168173ffffffffffffffffffffffffffffffffffffffff16036116bf576040517f08c379a00000000000000000000000000000000000000000000000000000000081526004016116b690612708565b60405180910390fd5b6116c881611a58565b50565b600260009054906101000a900473ffffffffffffffffffffffffffffffffffffffff1681565b600260015403611736576040517f08c379a000000000000000000000000000000000000000000000000000000000815260040161172d90612774565b60405180910390fd5b6002600181905550565b6000818473ffffffffffffffffffffffffffffffffffffffff1663dd62ed3e30866040518363ffffffff167c010000000000000000000000000000000000000000000000000000000002815260040161179a929190612794565b602060405180830381865afa1580156117b7573d6000803e3d6000fd5b505050506040513d601f19601f820116820180604052508101906117db919061212f565b6117e59190612409565b90506118848463095ea7b37c01000000000000000000000000000000000000000000000000000000000285846040516024016118229291906123e0565b604051602081830303815290604052907bffffffffffffffffffffffffffffffffffffffffffffffffffffffff19166020820180517bffffffffffffffffffffffffffffffffffffffffffffffffffffffff8381831617835250505050611b1c565b50505050565b611929846323b872dd7c0100000000000000000000000000000000000000000000000000000000028585856040516024016118c7939291906127bd565b604051602081830303815290604052907bffffffffffffffffffffffffffffffffffffffffffffffffffffffff19166020820180517bffffffffffffffffffffffffffffffffffffffffffffffffffffffff8381831617835250505050611b1c565b50505050565b6119cc8363a9059cbb7c010000000000000000000000000000000000000000000000000000000002848460405160240161196a9291906123e0565b604051602081830303815290604052907bffffffffffffffffffffffffffffffffffffffffffffffffffffffff19166020820180517bffffffffffffffffffffffffffffffffffffffffffffffffffffffff8381831617835250505050611b1c565b505050565b60018081905550565b6119e2611be3565b73ffffffffffffffffffffffffffffffffffffffff16611a00611515565b73ffffffffffffffffffffffffffffffffffffffff1614611a56576040517f08c379a0000000000000000000000000000000000000000000000000000000008152600401611a4d90612840565b60405180910390fd5b565b60008060009054906101000a900473ffffffffffffffffffffffffffffffffffffffff169050816000806101000a81548173ffffffffffffffffffffffffffffffffffffffff021916908373ffffffffffffffffffffffffffffffffffffffff1602179055508173ffffffffffffffffffffffffffffffffffffffff168173ffffffffffffffffffffffffffffffffffffffff167f8be0079c531659141344cd1fd0a4f28419497f9722a3daafe3b4186f6b6457e060405160405180910390a35050565b6000611b7e826040518060400160405280602081526020017f5361666545524332303a206c6f772d6c6576656c2063616c6c206661696c65648152508573ffffffffffffffffffffffffffffffffffffffff16611beb9092919063ffffffff16565b9050600081511115611bde5780806020019051810190611b9e9190612898565b611bdd576040517f08c379a0000000000000000000000000000000000000000000000000000000008152600401611bd490612937565b60405180910390fd5b5b505050565b600033905090565b6060611bfa8484600085611c03565b90509392505050565b6060823073ffffffffffffffffffffffffffffffffffffffff16311015611c5f576040517f08c379a0000000000000000000000000000000000000000000000000000000008152600401611c56906129c9565b60405180910390fd5b6000808673ffffffffffffffffffffffffffffffffffffffff168587604051611c889190612a5a565b60006040518083038185875af1925050503d8060008114611cc5576040519150601f19603f3d011682016040523d82523d6000602084013e611cca565b606091505b5091509150611cdb87838387611ce7565b92505050949350505050565b60608315611d49576000835103611d4157611d0185611d5c565b611d40576040517f08c379a0000000000000000000000000000000000000000000000000000000008152600401611d3790612abd565b60405180910390fd5b5b829050611d54565b611d538383611d7f565b5b949350505050565b6000808273ffffffffffffffffffffffffffffffffffffffff163b119050919050565b600082511115611d925781518083602001fd5b806040517f08c379a0000000000000000000000000000000000000000000000000000000008152600401611dc69190612b32565b60405180910390fd5b600073ffffffffffffffffffffffffffffffffffffffff82169050919050565b6000819050919050565b6000611e14611e0f611e0a84611dcf565b611def565b611dcf565b9050919050565b6000611e2682611df9565b9050919050565b6000611e3882611e1b565b9050919050565b611e4881611e2d565b82525050565b6000602082019050611e636000830184611e3f565b92915050565b6000819050919050565b611e7c81611e69565b82525050565b6000602082019050611e976000830184611e73565b92915050565b600080fd5b611eab81611e69565b8114611eb657600080fd5b50565b600081359050611ec881611ea2565b92915050565b60048110611edb57600080fd5b50565b600081359050611eed81611ece565b92915050565b60008060408385031215611f0a57611f09611e9d565b5b6000611f1885828601611eb9565b9250506020611f2985828601611ede565b9150509250929050565b600060208284031215611f4957611f48611e9d565b5b6000611f5784828501611ede565b91505092915050565b6000611f6b82611dcf565b9050919050565b611f7b81611f60565b8114611f8657600080fd5b50565b600081359050611f9881611f72565b92915050565b600060208284031215611fb457611fb3611e9d565b5b6000611fc284828501611f89565b91505092915050565b600060208284031215611fe157611fe0611e9d565b5b6000611fef84828501611eb9565b91505092915050565b61200181611f60565b82525050565b600060208201905061201c6000830184611ff8565b92915050565b7f4e487b7100000000000000000000000000000000000000000000000000000000600052602160045260246000fd5b6004811061206257612061612022565b5b50565b600081905061207382612051565b919050565b600061208382612065565b9050919050565b61209381612078565b82525050565b60006080820190506120ae6000830187611e73565b6120bb6020830186611e73565b6120c86040830185611e73565b6120d5606083018461208a565b95945050505050565b60006120e982611e1b565b9050919050565b6120f9816120de565b82525050565b600060208201905061211460008301846120f0565b92915050565b60008151905061212981611ea2565b92915050565b60006020828403121561214557612144611e9d565b5b60006121538482850161211a565b91505092915050565b7f4e487b7100000000000000000000000000000000000000000000000000000000600052601260045260246000fd5b7f4e487b7100000000000000000000000000000000000000000000000000000000600052601160045260246000fd5b60006121c582611e69565b91506121d083611e69565b9250826121e0576121df61215c565b5b828204905092915050565b600082825260208201905092915050565b7f43616e206e6f7420627579203020416b6b546f6b656e20000000000000000000600082015250565b60006122326017836121eb565b915061223d826121fc565b602082019050919050565b6000602082019050818103600083015261226181612225565b9050919050565b7f4e6f7420656e6f756768204361736820546f6b656e0000000000000000000000600082015250565b600061229e6015836121eb565b91506122a982612268565b602082019050919050565b600060208201905081810360008301526122cd81612291565b9050919050565b7f416d6f756e7420746f6f206c6f77000000000000000000000000000000000000600082015250565b600061230a600e836121eb565b9150612315826122d4565b602082019050919050565b60006020820190508181036000830152612339816122fd565b9050919050565b7f496e76616c6964206475726174696f6e00000000000000000000000000000000600082015250565b60006123766010836121eb565b915061238182612340565b602082019050919050565b600060208201905081810360008301526123a581612369565b9050919050565b60006123b782611e69565b91506123c283611e69565b92508282039050818111156123da576123d961218b565b5b92915050565b60006040820190506123f56000830185611ff8565b6124026020830184611e73565b9392505050565b600061241482611e69565b915061241f83611e69565b92508282019050808211156124375761243661218b565b5b92915050565b60006060820190506124526000830186611e73565b61245f6020830185611e73565b61246c604083018461208a565b949350505050565b7f4e4f2056414c4944204455524154494f4e000000000000000000000000000000600082015250565b60006124aa6011836121eb565b91506124b582612474565b602082019050919050565b600060208201905081810360008301526124d98161249d565b9050919050565b7f416d6f756e74206d7573742062652067726561746572207468616e2030000000600082015250565b6000612516601d836121eb565b9150612521826124e0565b602082019050919050565b6000602082019050818103600083015261254581612509565b9050919050565b7f496e73756666696369656e742062616c616e6365000000000000000000000000600082015250565b60006125826014836121eb565b915061258d8261254c565b602082019050919050565b600060208201905081810360008301526125b181612575565b9050919050565b7f596f752063616e6e6f7420776974686472617720616c6c2074686520746f6b6560008201527f6e732c2062757420796f75206d757374206c6561766520313020416b546f6b6560208201527f6e7320756e74696c2074686520656e64206f6620746865207465726d206f662060408201527f74686520616363756d756c6174696f6e20706c616e0000000000000000000000606082015250565b60006126606075836121eb565b915061266b826125b8565b608082019050919050565b6000602082019050818103600083015261268f81612653565b9050919050565b7f4f776e61626c653a206e6577206f776e657220697320746865207a65726f206160008201527f6464726573730000000000000000000000000000000000000000000000000000602082015250565b60006126f26026836121eb565b91506126fd82612696565b604082019050919050565b60006020820190508181036000830152612721816126e5565b9050919050565b7f5265656e7472616e637947756172643a207265656e7472616e742063616c6c00600082015250565b600061275e601f836121eb565b915061276982612728565b602082019050919050565b6000602082019050818103600083015261278d81612751565b9050919050565b60006040820190506127a96000830185611ff8565b6127b66020830184611ff8565b9392505050565b60006060820190506127d26000830186611ff8565b6127df6020830185611ff8565b6127ec6040830184611e73565b949350505050565b7f4f776e61626c653a2063616c6c6572206973206e6f7420746865206f776e6572600082015250565b600061282a6020836121eb565b9150612835826127f4565b602082019050919050565b600060208201905081810360008301526128598161281d565b9050919050565b60008115159050919050565b61287581612860565b811461288057600080fd5b50565b6000815190506128928161286c565b92915050565b6000602082840312156128ae576128ad611e9d565b5b60006128bc84828501612883565b91505092915050565b7f5361666545524332303a204552433230206f7065726174696f6e20646964206e60008201527f6f74207375636365656400000000000000000000000000000000000000000000602082015250565b6000612921602a836121eb565b915061292c826128c5565b604082019050919050565b6000602082019050818103600083015261295081612914565b9050919050565b7f416464726573733a20696e73756666696369656e742062616c616e636520666f60008201527f722063616c6c0000000000000000000000000000000000000000000000000000602082015250565b60006129b36026836121eb565b91506129be82612957565b604082019050919050565b600060208201905081810360008301526129e2816129a6565b9050919050565b600081519050919050565b600081905092915050565b60005b83811015612a1d578082015181840152602081019050612a02565b60008484015250505050565b6000612a34826129e9565b612a3e81856129f4565b9350612a4e8185602086016129ff565b80840191505092915050565b6000612a668284612a29565b915081905092915050565b7f416464726573733a2063616c6c20746f206e6f6e2d636f6e7472616374000000600082015250565b6000612aa7601d836121eb565b9150612ab282612a71565b602082019050919050565b60006020820190508181036000830152612ad681612a9a565b9050919050565b600081519050919050565b6000601f19601f8301169050919050565b6000612b0482612add565b612b0e81856121eb565b9350612b1e8185602086016129ff565b612b2781612ae8565b840191505092915050565b60006020820190508181036000830152612b4c8184612af9565b90509291505056fea2646970667358221220446173163bd180210d12a84b8158809f171c896adbaf1577ff7987c72dd66a4c64736f6c63430008140033",
  "immutableReferences": {},
  "source": "// SPDX-License-Identifier: MIT\npragma solidity ^0.8.20;\n\nimport \"@openzeppelin/contracts/access/Ownable.sol\";\nimport \"@openzeppelin/contracts/security/ReentrancyGuard.sol\";\nimport \"@openzeppelin/contracts/token/ERC20/utils/SafeERC20.sol\";\nimport \"./IMintableToken.sol\";\nimport \"./USDTCash.sol\";\nimport \"./AkToken.sol\";\n\ncontract StrategyTwo is Ownable, ReentrancyGuard {\n    using SafeERC20 for USDTCash;\n    using SafeERC20 for IERC20;\n\n    IMintableToken public akkToken;\n    USDTCash public usdtCash;\n    uint256 public rate; // Tasso di conversione USDTCash/AkToken\n\n    uint256 public constant MIN_AK_TOKEN_AMOUNT = 10e18; // Quantit minima di Cash Token richiesta per l'acquisto di AkToken\n\n    //tenere traccia del saldo dell'utente e dell'ultima volta che ha depositato\n    struct User {\n        uint256 balance;\n        uint256 firstDepositTime;\n        uint256 lastDepositTime;\n        AccumulationDuration duration; // Durata del piano di accumulo (in secondi)\n        \n    }\n\n    enum AccumulationDuration {\n        DEV, // Durata di 10 secondi per il test dello sviluppatore\n        FIVE_YEARS, // Durata di 5 anni\n        TEN_YEARS, // Durata di 10 anni\n        FIFTEEN_YEARS // Durata di 15 anni\n    }\n\n    mapping(address => User) public users; // Mapping degli utenti\n\n \n\n    // Dichiarazione degli eventi per notificare le azioni eseguite dal contratto\n    event AkkTokenBought(\n        address indexed user,\n        uint256 cashTokenAmount,\n        uint256 akkTokenAmount,\n        AccumulationDuration duration\n\n    );\n    event CashTokenWithdrawn(address indexed user, uint256 cashTokenAmount);\n    event RateSet(uint256 rate);\n    event AkkTokenWithdrawn(address indexed user, uint256 akkTokenAmount);\n    event AddedToWhitelist(address indexed user);\n    event AkkTokenBalanceUpdated(address indexed user, uint256 amount);\n    event AkkTokenRemaining(uint256 amount);\n    event debug(address add,uint256 amm);\n\n    // Dichiarazione del costruttore per inizializzare le variabili di stato\n    constructor(address _akkToken, address _usdtCash, uint256 _rate) {\n        akkToken = IMintableToken(_akkToken);\n        usdtCash = USDTCash(_usdtCash);\n        rate = _rate;\n    }\n    function calculateDuration(AccumulationDuration _duration) public pure returns (uint256){\n        if(_duration == AccumulationDuration.DEV){\n            return 10;\n        }else if(_duration == AccumulationDuration.FIVE_YEARS){\n            return 60*60*24*365*5;\n        }else if(_duration == AccumulationDuration.TEN_YEARS){\n            return 60*60*24*365*10;\n        }else if(_duration == AccumulationDuration.FIFTEEN_YEARS){\n            return 60*60*24*365*15;\n        }else{\n            //require(false, \"NO VALID DURATION\");\n            revert(\"NO VALID DURATION\");\n        }\n    }\n    function buyAkkToken(\n        uint256 _amount, // akktoken\n        AccumulationDuration _duration\n    ) external nonReentrant {\n        uint256 akkTokenAmount = _amount;\n        //                     10    / 5   => 2\n        uint256 usdtCashAmount = akkTokenAmount / rate;\n        require(akkTokenAmount != 0, \"Can not buy 0 AkkToken \");\n        require(\n            usdtCash.balanceOf(msg.sender) >= usdtCashAmount,\n            \"Not enough Cash Token\"\n        );\n\n        require(akkTokenAmount >= MIN_AK_TOKEN_AMOUNT, \"Amount too low\");\n        require(\n            _duration == AccumulationDuration.DEV ||\n                _duration == AccumulationDuration.FIVE_YEARS ||\n                _duration == AccumulationDuration.TEN_YEARS ||\n                _duration == AccumulationDuration.FIFTEEN_YEARS,\n            \"Invalid duration\"\n        );\n\n       \n\n        // Approva l'importo per il trasferimento dei cash token\n        SafeERC20.safeIncreaseAllowance(usdtCash, msg.sender, usdtCashAmount); /// fino a qua\n\n\n        // contratto riceve tot cash contispondente al rate toke/ cash\n        SafeERC20.safeTransferFrom(\n            usdtCash,\n            msg.sender,\n            address(this),\n            usdtCashAmount\n        );\n\n        // Verifica se ci sono abbastanza akkToken e minta se necessario\n        uint256 balance = akkToken.balanceOf(address(this));\n        if (balance < akkTokenAmount) {\n            akkToken.mint(address(this), akkTokenAmount - balance);\n        }\n\n        SafeERC20.safeTransfer(akkToken, msg.sender, akkTokenAmount);\n\n        // Aggiornamento del saldo dell'utente, dell'ultima volta che ha depositato e della durata del piano di accumulo\n        // comprare multiple volte consecutive\n        users[msg.sender].balance += akkTokenAmount;\n        users[msg.sender].lastDepositTime = block.timestamp;\n\n        if (users[msg.sender].firstDepositTime == 0) {\n            // il primo deposito\n            users[msg.sender].firstDepositTime = block.timestamp;\n            users[msg.sender].duration = _duration;\n        }\n\n        // Emissione dell'evento AkkTokenBought per notificare l'acquisto di Akk Token da parte dell'utente\n        emit AkkTokenBought(msg.sender, usdtCashAmount, akkTokenAmount, _duration);\n    }\n\n    // Metodo che consente all'owner di impostare il tasso di conversione USDTCash/AkToken\n    function setRate(uint256 _rate) external onlyOwner {\n        rate = _rate;\n\n        // Emissione dell'evento RateSet per notificare l'aggiornamento del tasso di conversione\n        emit RateSet(rate);\n    }\n\n    // Metodo che consente all'owner di ritirare gli Akk Token accumulati dal contratto\n    function withdrawAkkToken(uint256 _amount) external nonReentrant {\n        require(_amount > 0, \"Amount must be greater than 0\");\n        require(users[msg.sender].balance >= _amount, \"Insufficient balance\");\n        uint256 akkTokenAmount = _amount;\n        //                               20    / 5  => 4\n        uint256 usdtCashAmount = akkTokenAmount / rate;\n        //  35                                    30                        10\n        if (block.timestamp <= (users[msg.sender].firstDepositTime +  calculateDuration(users[msg.sender].duration))){\n            emit debug(msg.sender,users[msg.sender].balance - akkTokenAmount);\n            // true ergo la duration non e finita\n            //             10            <=                         10 - 1 == 9\n            require( MIN_AK_TOKEN_AMOUNT <= (users[msg.sender].balance - akkTokenAmount)  ,\"You cannot withdraw all the tokens, but you must leave 10 AkTokens until the end of the term of the accumulation plan\");\n        }\n        users[msg.sender].balance -= akkTokenAmount;\n\n        // Trasferisce la quantit di akkToken user => StrategyTwo\n        // lato cliente approvazione di akktoken.approve(strategy.address,akktoken,account)\n        SafeERC20.safeTransferFrom(\n            akkToken,\n            msg.sender,\n            address(this),\n            akkTokenAmount\n        );\n\n        // Brucia gli AkToken ricevuti dall'utente\n        akkToken.burnFrom(address(this), akkTokenAmount);\n\n        // Mint usdtCash se non sufficiente disponibile;\n        uint256 balance = usdtCash.balanceOf(address(this));\n        if (balance < usdtCashAmount) {\n            usdtCash.mint(address(this), usdtCashAmount - balance);\n        }\n\n        // Trasferisci l'importo totale all'utente;\n        SafeERC20.safeTransfer(usdtCash, msg.sender, usdtCashAmount);\n\n        // Emissione dell'evento AkkTokenWithdrawn per notificare il prelievo degli Akk Token da parte dell'utente\n        emit AkkTokenWithdrawn(msg.sender, akkTokenAmount);\n\n        // Emissione dell'evento AkkTokenBalanceUpdated per notificare il saldo di AkToken rimanente per l'utente\n        emit AkkTokenBalanceUpdated(msg.sender, users[msg.sender].balance);\n\n        // Emissione dell'evento AkkTokenRemaining per notificare il saldo di AkToken rimanente all'interno del contratto StrategyTwo\n        emit AkkTokenRemaining(akkToken.balanceOf(address(this)));\n    }\n    function getUSDTCashTokenBalance() public view returns (uint256) {\n        // restituisce il saldo dei Usdt dell'utente\n        return usdtCash.balanceOf(msg.sender);\n    }\n\n    \n   \n     function getMyAkTokenBalanceUser() public view returns (uint256 _amount) {\n        // restituisce il saldo dei AkToken dell'utente\n        //emit debug(msg.sender,akkToken.balanceOf(msg.sender));\n        return akkToken.balanceOf(msg.sender);\n    }\n    \n   function getBalanceAkTokenStTwo(\n        address ContractAddress\n    ) public view returns (uint256 _amount) {\n        return akkToken.balanceOf(ContractAddress); \n    }\n\n    function getUSDTBalanceStTwo(\n        address ContractAddress\n    ) public view returns (uint256 _amount) {\n        return usdtCash.balanceOf(ContractAddress); \n    }\n\n}\n\n// second Strategy",
  "sourcePath": "/Volumes/One Touch/ProjectCourseBcod/Strategy/contracts/StrategyTwo.sol",
  "compiler": {
    "name": "solc",
    "version": "0.8.20+commit.a1b79de6.Emscripten.clang"
  },
  "schemaVersion": "3.4.13",
  "updatedAt": "2023-05-21T10:02:43.723Z",
  "networkType": "ethereum",
  "devdoc": {
    "kind": "dev",
    "methods": {
      "owner()": {
        "details": "Returns the address of the current owner."
      },
      "renounceOwnership()": {
        "details": "Leaves the contract without owner. It will not be possible to call `onlyOwner` functions anymore. Can only be called by the current owner. NOTE: Renouncing ownership will leave the contract without an owner, thereby removing any functionality that is only available to the owner."
      },
      "transferOwnership(address)": {
        "details": "Transfers ownership of the contract to a new account (`newOwner`). Can only be called by the current owner."
      }
    },
    "version": 1
  },
  "userdoc": {
    "kind": "user",
    "methods": {},
    "version": 1
  }
}