{
  "contractName": "StrategyTwo",
  "abi": [
    {
      "inputs": [
        {
          "internalType": "address",
          "name": "_akkToken",
          "type": "address"
        },
        {
          "internalType": "address",
          "name": "_usdtCash",
          "type": "address"
        },
        {
          "internalType": "uint256",
          "name": "_rate",
          "type": "uint256"
        }
      ],
      "stateMutability": "nonpayable",
      "type": "constructor"
    },
    {
      "anonymous": false,
      "inputs": [
        {
          "indexed": true,
          "internalType": "address",
          "name": "user",
          "type": "address"
        }
      ],
      "name": "AddedToWhitelist",
      "type": "event"
    },
    {
      "anonymous": false,
      "inputs": [
        {
          "indexed": true,
          "internalType": "address",
          "name": "user",
          "type": "address"
        },
        {
          "indexed": false,
          "internalType": "uint256",
          "name": "amount",
          "type": "uint256"
        }
      ],
      "name": "AkkTokenBalanceUpdated",
      "type": "event"
    },
    {
      "anonymous": false,
      "inputs": [
        {
          "indexed": true,
          "internalType": "address",
          "name": "user",
          "type": "address"
        },
        {
          "indexed": false,
          "internalType": "uint256",
          "name": "cashTokenAmount",
          "type": "uint256"
        },
        {
          "indexed": false,
          "internalType": "uint256",
          "name": "akkTokenAmount",
          "type": "uint256"
        },
        {
          "indexed": false,
          "internalType": "enum StrategyTwo.AccumulationDuration",
          "name": "duration",
          "type": "uint8"
        }
      ],
      "name": "AkkTokenBought",
      "type": "event"
    },
    {
      "anonymous": false,
      "inputs": [
        {
          "indexed": false,
          "internalType": "uint256",
          "name": "amount",
          "type": "uint256"
        }
      ],
      "name": "AkkTokenRemaining",
      "type": "event"
    },
    {
      "anonymous": false,
      "inputs": [
        {
          "indexed": true,
          "internalType": "address",
          "name": "user",
          "type": "address"
        },
        {
          "indexed": false,
          "internalType": "uint256",
          "name": "akkTokenAmount",
          "type": "uint256"
        }
      ],
      "name": "AkkTokenWithdrawn",
      "type": "event"
    },
    {
      "anonymous": false,
      "inputs": [
        {
          "indexed": true,
          "internalType": "address",
          "name": "user",
          "type": "address"
        },
        {
          "indexed": false,
          "internalType": "uint256",
          "name": "cashTokenAmount",
          "type": "uint256"
        }
      ],
      "name": "CashTokenWithdrawn",
      "type": "event"
    },
    {
      "anonymous": false,
      "inputs": [
        {
          "indexed": true,
          "internalType": "address",
          "name": "previousOwner",
          "type": "address"
        },
        {
          "indexed": true,
          "internalType": "address",
          "name": "newOwner",
          "type": "address"
        }
      ],
      "name": "OwnershipTransferred",
      "type": "event"
    },
    {
      "anonymous": false,
      "inputs": [
        {
          "indexed": false,
          "internalType": "uint256",
          "name": "rate",
          "type": "uint256"
        }
      ],
      "name": "RateSet",
      "type": "event"
    },
    {
      "anonymous": false,
      "inputs": [
        {
          "indexed": false,
          "internalType": "address",
          "name": "add",
          "type": "address"
        },
        {
          "indexed": false,
          "internalType": "uint256",
          "name": "amm",
          "type": "uint256"
        }
      ],
      "name": "debug",
      "type": "event"
    },
    {
      "inputs": [],
      "name": "MIN_CASH_TOKEN_AMOUNT",
      "outputs": [
        {
          "internalType": "uint256",
          "name": "",
          "type": "uint256"
        }
      ],
      "stateMutability": "view",
      "type": "function",
      "constant": true
    },
    {
      "inputs": [],
      "name": "akkToken",
      "outputs": [
        {
          "internalType": "contract IMintableToken",
          "name": "",
          "type": "address"
        }
      ],
      "stateMutability": "view",
      "type": "function",
      "constant": true
    },
    {
      "inputs": [],
      "name": "owner",
      "outputs": [
        {
          "internalType": "address",
          "name": "",
          "type": "address"
        }
      ],
      "stateMutability": "view",
      "type": "function",
      "constant": true
    },
    {
      "inputs": [],
      "name": "rate",
      "outputs": [
        {
          "internalType": "uint256",
          "name": "",
          "type": "uint256"
        }
      ],
      "stateMutability": "view",
      "type": "function",
      "constant": true
    },
    {
      "inputs": [],
      "name": "renounceOwnership",
      "outputs": [],
      "stateMutability": "nonpayable",
      "type": "function"
    },
    {
      "inputs": [
        {
          "internalType": "address",
          "name": "newOwner",
          "type": "address"
        }
      ],
      "name": "transferOwnership",
      "outputs": [],
      "stateMutability": "nonpayable",
      "type": "function"
    },
    {
      "inputs": [],
      "name": "usdtCash",
      "outputs": [
        {
          "internalType": "contract USDTCash",
          "name": "",
          "type": "address"
        }
      ],
      "stateMutability": "view",
      "type": "function",
      "constant": true
    },
    {
      "inputs": [
        {
          "internalType": "address",
          "name": "",
          "type": "address"
        }
      ],
      "name": "users",
      "outputs": [
        {
          "internalType": "uint256",
          "name": "balance",
          "type": "uint256"
        },
        {
          "internalType": "uint256",
          "name": "firstDepositTime",
          "type": "uint256"
        },
        {
          "internalType": "uint256",
          "name": "lastDepositTime",
          "type": "uint256"
        },
        {
          "internalType": "enum StrategyTwo.AccumulationDuration",
          "name": "duration",
          "type": "uint8"
        }
      ],
      "stateMutability": "view",
      "type": "function",
      "constant": true
    },
    {
      "inputs": [
        {
          "internalType": "enum StrategyTwo.AccumulationDuration",
          "name": "_duration",
          "type": "uint8"
        }
      ],
      "name": "calculateDuration",
      "outputs": [
        {
          "internalType": "uint256",
          "name": "",
          "type": "uint256"
        }
      ],
      "stateMutability": "pure",
      "type": "function",
      "constant": true
    },
    {
      "inputs": [
        {
          "internalType": "uint256",
          "name": "_amount",
          "type": "uint256"
        },
        {
          "internalType": "enum StrategyTwo.AccumulationDuration",
          "name": "_duration",
          "type": "uint8"
        }
      ],
      "name": "buyAkkToken",
      "outputs": [],
      "stateMutability": "nonpayable",
      "type": "function"
    },
    {
      "inputs": [
        {
          "internalType": "uint256",
          "name": "_rate",
          "type": "uint256"
        }
      ],
      "name": "setRate",
      "outputs": [],
      "stateMutability": "nonpayable",
      "type": "function"
    },
    {
      "inputs": [
        {
          "internalType": "uint256",
          "name": "_amount",
          "type": "uint256"
        }
      ],
      "name": "withdrawAkkToken",
      "outputs": [],
      "stateMutability": "nonpayable",
      "type": "function"
    },
    {
      "inputs": [],
      "name": "getUSDTCashTokenBalance",
      "outputs": [
        {
          "internalType": "uint256",
          "name": "",
          "type": "uint256"
        }
      ],
      "stateMutability": "view",
      "type": "function",
      "constant": true
    },
    {
      "inputs": [],
      "name": "getMyAkTokenBalanceUser",
      "outputs": [
        {
          "internalType": "uint256",
          "name": "_amount",
          "type": "uint256"
        }
      ],
      "stateMutability": "view",
      "type": "function",
      "constant": true
    },
    {
      "inputs": [
        {
          "internalType": "address",
          "name": "ContractAddress",
          "type": "address"
        }
      ],
      "name": "getBalanceAkTokenStTwo",
      "outputs": [
        {
          "internalType": "uint256",
          "name": "_amount",
          "type": "uint256"
        }
      ],
      "stateMutability": "view",
      "type": "function",
      "constant": true
    },
    {
      "inputs": [
        {
          "internalType": "address",
          "name": "ContractAddress",
          "type": "address"
        }
      ],
      "name": "getUSDTBalanceStTwo",
      "outputs": [
        {
          "internalType": "uint256",
          "name": "_amount",
          "type": "uint256"
        }
      ],
      "stateMutability": "view",
      "type": "function",
      "constant": true
    }
  ],
  "bytecode": "0x60806040523480156200001157600080fd5b5060405162002db738038062002db7833981810160405281019062000037919062000273565b620000696200005462000102640100000000026401000000009004565b6200010a640100000000026401000000009004565b6001808190555082600260006101000a81548173ffffffffffffffffffffffffffffffffffffffff021916908373ffffffffffffffffffffffffffffffffffffffff16021790555081600360006101000a81548173ffffffffffffffffffffffffffffffffffffffff021916908373ffffffffffffffffffffffffffffffffffffffff16021790555080600481905550505050620002cf565b600033905090565b60008060009054906101000a900473ffffffffffffffffffffffffffffffffffffffff169050816000806101000a81548173ffffffffffffffffffffffffffffffffffffffff021916908373ffffffffffffffffffffffffffffffffffffffff1602179055508173ffffffffffffffffffffffffffffffffffffffff168173ffffffffffffffffffffffffffffffffffffffff167f8be0079c531659141344cd1fd0a4f28419497f9722a3daafe3b4186f6b6457e060405160405180910390a35050565b600080fd5b600073ffffffffffffffffffffffffffffffffffffffff82169050919050565b60006200020082620001d3565b9050919050565b6200021281620001f3565b81146200021e57600080fd5b50565b600081519050620002328162000207565b92915050565b6000819050919050565b6200024d8162000238565b81146200025957600080fd5b50565b6000815190506200026d8162000242565b92915050565b6000806000606084860312156200028f576200028e620001ce565b5b60006200029f8682870162000221565b9350506020620002b28682870162000221565b9250506040620002c5868287016200025c565b9150509250925092565b612ad880620002df6000396000f3fe608060405234801561001057600080fd5b506004361061011b576000357c010000000000000000000000000000000000000000000000000000000090048063715018a6116100b4578063d6ed99f011610083578063d6ed99f0146102a7578063d942fde7146102d7578063f2fde38b146102f5578063f91bd58c146103115761011b565b8063715018a61461023057806379a770351461023a5780638da5cb5b14610256578063a87430ba146102745761011b565b80632c4e722e116100f05780632c4e722e146101a85780632df687a0146101c657806334fcf437146101f657806359e2e1aa146102125761011b565b806202b6ac14610120578062a9dc101461013e57806318df7a8f1461015c5780632ad2b49b14610178575b600080fd5b61012861032f565b6040516101359190611dc2565b60405180910390f35b610146610355565b6040516101539190611df6565b60405180910390f35b61017660048036038101906101719190611e67565b610414565b005b610192600480360381019061018d9190611ea7565b610aa9565b60405161019f9190611df6565b60405180910390f35b6101b0610bc6565b6040516101bd9190611df6565b60405180910390f35b6101e060048036038101906101db9190611f12565b610bcc565b6040516101ed9190611df6565b60405180910390f35b610210600480360381019061020b9190611f3f565b610c8d565b005b61021a610cd8565b6040516102279190611df6565b60405180910390f35b610238610d97565b005b610254600480360381019061024f9190611f3f565b610dab565b005b61025e611489565b60405161026b9190611f7b565b60405180910390f35b61028e60048036038101906102899190611f12565b6114b2565b60405161029e949392919061200d565b60405180910390f35b6102c160048036038101906102bc9190611f12565b6114ef565b6040516102ce9190611df6565b60405180910390f35b6102df6115b0565b6040516102ec9190611df6565b60405180910390f35b61030f600480360381019061030a9190611f12565b6115bc565b005b61031961163f565b6040516103269190612073565b60405180910390f35b600360009054906101000a900473ffffffffffffffffffffffffffffffffffffffff1681565b6000600360009054906101000a900473ffffffffffffffffffffffffffffffffffffffff1673ffffffffffffffffffffffffffffffffffffffff166370a08231336040518263ffffffff167c01000000000000000000000000000000000000000000000000000000000281526004016103ce9190611f7b565b602060405180830381865afa1580156103eb573d6000803e3d6000fd5b505050506040513d601f19601f8201168201806040525081019061040f91906120a3565b905090565b61041c611665565b6000829050600060045482610431919061212e565b905060008203610476576040517f08c379a000000000000000000000000000000000000000000000000000000000815260040161046d906121bc565b60405180910390fd5b80600360009054906101000a900473ffffffffffffffffffffffffffffffffffffffff1673ffffffffffffffffffffffffffffffffffffffff166370a08231336040518263ffffffff167c01000000000000000000000000000000000000000000000000000000000281526004016104ee9190611f7b565b602060405180830381865afa15801561050b573d6000803e3d6000fd5b505050506040513d601f19601f8201168201806040525081019061052f91906120a3565b1015610570576040517f08c379a000000000000000000000000000000000000000000000000000000000815260040161056790612228565b60405180910390fd5b67016345785d8a00008110156105bb576040517f08c379a00000000000000000000000000000000000000000000000000000000081526004016105b290612294565b60405180910390fd5b600060038111156105cf576105ce611f96565b5b8360038111156105e2576105e1611f96565b5b14806106125750600160038111156105fd576105fc611f96565b5b8360038111156106105761060f611f96565b5b145b8061064157506002600381111561062c5761062b611f96565b5b83600381111561063f5761063e611f96565b5b145b8061066f575060038081111561065a57610659611f96565b5b83600381111561066d5761066c611f96565b5b145b6106ae576040517f08c379a00000000000000000000000000000000000000000000000000000000081526004016106a590612300565b60405180910390fd5b6106db600360009054906101000a900473ffffffffffffffffffffffffffffffffffffffff1633836116b4565b610709600360009054906101000a900473ffffffffffffffffffffffffffffffffffffffff163330846117fe565b6000600260009054906101000a900473ffffffffffffffffffffffffffffffffffffffff1673ffffffffffffffffffffffffffffffffffffffff166370a08231306040518263ffffffff167c01000000000000000000000000000000000000000000000000000000000281526004016107829190611f7b565b602060405180830381865afa15801561079f573d6000803e3d6000fd5b505050506040513d601f19601f820116820180604052508101906107c391906120a3565b90508281101561088457600260009054906101000a900473ffffffffffffffffffffffffffffffffffffffff1673ffffffffffffffffffffffffffffffffffffffff166340c10f193083866108189190612320565b6040518363ffffffff167c0100000000000000000000000000000000000000000000000000000000028152600401610851929190612354565b600060405180830381600087803b15801561086b57600080fd5b505af115801561087f573d6000803e3d6000fd5b505050505b6108b1600260009054906101000a900473ffffffffffffffffffffffffffffffffffffffff1633856118a3565b82600560003373ffffffffffffffffffffffffffffffffffffffff1673ffffffffffffffffffffffffffffffffffffffff1681526020019081526020016000206000016000828254610903919061237d565b9250508190555042600560003373ffffffffffffffffffffffffffffffffffffffff1673ffffffffffffffffffffffffffffffffffffffff168152602001908152602001600020600201819055506000600560003373ffffffffffffffffffffffffffffffffffffffff1673ffffffffffffffffffffffffffffffffffffffff1681526020019081526020016000206001015403610a485742600560003373ffffffffffffffffffffffffffffffffffffffff1673ffffffffffffffffffffffffffffffffffffffff168152602001908152602001600020505083600560003373ffffffffffffffffffffffffffffffffffffffff1673ffffffffffffffffffffffffffffffffffffffff16815260200190815260200160002060030160006101000a81548160ff02191690836003811115610a4257610a41611f96565b5b02179055505b3373ffffffffffffffffffffffffffffffffffffffff167fd7fcfbc59c6c3ef70dde86f47c947a51cdddd9a31197193ffcef9c130a6cf36d838587604051610a92939291906123b1565b60405180910390a2505050610aa5611945565b5050565b6000806003811115610abe57610abd611f96565b5b826003811115610ad157610ad0611f96565b5b03610adf57600a9050610bc1565b60016003811115610af357610af2611f96565b5b826003811115610b0657610b05611f96565b5b03610b175763096601809050610bc1565b60026003811115610b2b57610b2a611f96565b5b826003811115610b3e57610b3d611f96565b5b03610b4f576312cc03009050610bc1565b600380811115610b6257610b61611f96565b5b826003811115610b7557610b74611f96565b5b03610b8657631c3204809050610bc1565b6040517f08c379a0000000000000000000000000000000000000000000000000000000008152600401610bb890612434565b60405180910390fd5b919050565b60045481565b6000600260009054906101000a900473ffffffffffffffffffffffffffffffffffffffff1673ffffffffffffffffffffffffffffffffffffffff166370a08231836040518263ffffffff167c0100000000000000000000000000000000000000000000000000000000028152600401610c459190611f7b565b602060405180830381865afa158015610c62573d6000803e3d6000fd5b505050506040513d601f19601f82011682018060405250810190610c8691906120a3565b9050919050565b610c9561194e565b806004819055507faaeb483bfbd8cfd510c2bf9558f92d3b588e733adf62f05e2e3de2486d13279d600454604051610ccd9190611df6565b60405180910390a150565b6000600260009054906101000a900473ffffffffffffffffffffffffffffffffffffffff1673ffffffffffffffffffffffffffffffffffffffff166370a08231336040518263ffffffff167c0100000000000000000000000000000000000000000000000000000000028152600401610d519190611f7b565b602060405180830381865afa158015610d6e573d6000803e3d6000fd5b505050506040513d601f19601f82011682018060405250810190610d9291906120a3565b905090565b610d9f61194e565b610da960006119cc565b565b610db3611665565b60008111610df6576040517f08c379a0000000000000000000000000000000000000000000000000000000008152600401610ded906124a0565b60405180910390fd5b80600560003373ffffffffffffffffffffffffffffffffffffffff1673ffffffffffffffffffffffffffffffffffffffff168152602001908152602001600020600001541015610e7b576040517f08c379a0000000000000000000000000000000000000000000000000000000008152600401610e729061250c565b60405180910390fd5b6000819050600060045482610e90919061212e565b9050610eea600560003373ffffffffffffffffffffffffffffffffffffffff1673ffffffffffffffffffffffffffffffffffffffff16815260200190815260200160002060030160009054906101000a900460ff16610aa9565b600560003373ffffffffffffffffffffffffffffffffffffffff1673ffffffffffffffffffffffffffffffffffffffff16815260200190815260200160002060010154610f37919061237d565b4211610fd55767016345785d8a000082600560003373ffffffffffffffffffffffffffffffffffffffff1673ffffffffffffffffffffffffffffffffffffffff16815260200190815260200160002060000154610f949190612320565b11610fd4576040517f08c379a0000000000000000000000000000000000000000000000000000000008152600401610fcb906125c4565b60405180910390fd5b5b81600560003373ffffffffffffffffffffffffffffffffffffffff1673ffffffffffffffffffffffffffffffffffffffff16815260200190815260200160002060000160008282546110279190612320565b9250508190555061105c600260009054906101000a900473ffffffffffffffffffffffffffffffffffffffff163330856117fe565b600260009054906101000a900473ffffffffffffffffffffffffffffffffffffffff1673ffffffffffffffffffffffffffffffffffffffff166379cc679030846040518363ffffffff167c01000000000000000000000000000000000000000000000000000000000281526004016110d5929190612354565b600060405180830381600087803b1580156110ef57600080fd5b505af1158015611103573d6000803e3d6000fd5b505050506000600360009054906101000a900473ffffffffffffffffffffffffffffffffffffffff1673ffffffffffffffffffffffffffffffffffffffff166370a08231306040518263ffffffff167c01000000000000000000000000000000000000000000000000000000000281526004016111809190611f7b565b602060405180830381865afa15801561119d573d6000803e3d6000fd5b505050506040513d601f19601f820116820180604052508101906111c191906120a3565b90508181101561128257600360009054906101000a900473ffffffffffffffffffffffffffffffffffffffff1673ffffffffffffffffffffffffffffffffffffffff166340c10f193083856112169190612320565b6040518363ffffffff167c010000000000000000000000000000000000000000000000000000000002815260040161124f929190612354565b600060405180830381600087803b15801561126957600080fd5b505af115801561127d573d6000803e3d6000fd5b505050505b6112af600360009054906101000a900473ffffffffffffffffffffffffffffffffffffffff1633846118a3565b3373ffffffffffffffffffffffffffffffffffffffff167fc23438195fe8be4c5c988b4930db4ef2d076c730f8d560e220ea9105391f9d8b846040516112f59190611df6565b60405180910390a23373ffffffffffffffffffffffffffffffffffffffff167fb0ec936b489c141c9724e6e56d0f546de3da7fe870e87661d50edba5a4e4234a600560003373ffffffffffffffffffffffffffffffffffffffff1673ffffffffffffffffffffffffffffffffffffffff168152602001908152602001600020600001546040516113859190611df6565b60405180910390a27f4bb6b05c6573b90c916ba0533b3b5330a9c169e12b2346c5815c09a0d07b6bfa600260009054906101000a900473ffffffffffffffffffffffffffffffffffffffff1673ffffffffffffffffffffffffffffffffffffffff166370a08231306040518263ffffffff167c01000000000000000000000000000000000000000000000000000000000281526004016114259190611f7b565b602060405180830381865afa158015611442573d6000803e3d6000fd5b505050506040513d601f19601f8201168201806040525081019061146691906120a3565b6040516114739190611df6565b60405180910390a1505050611486611945565b50565b60008060009054906101000a900473ffffffffffffffffffffffffffffffffffffffff16905090565b60056020528060005260406000206000915090508060000154908060010154908060020154908060030160009054906101000a900460ff16905084565b6000600360009054906101000a900473ffffffffffffffffffffffffffffffffffffffff1673ffffffffffffffffffffffffffffffffffffffff166370a08231836040518263ffffffff167c01000000000000000000000000000000000000000000000000000000000281526004016115689190611f7b565b602060405180830381865afa158015611585573d6000803e3d6000fd5b505050506040513d601f19601f820116820180604052508101906115a991906120a3565b9050919050565b67016345785d8a000081565b6115c461194e565b600073ffffffffffffffffffffffffffffffffffffffff168173ffffffffffffffffffffffffffffffffffffffff1603611633576040517f08c379a000000000000000000000000000000000000000000000000000000000815260040161162a90612656565b60405180910390fd5b61163c816119cc565b50565b600260009054906101000a900473ffffffffffffffffffffffffffffffffffffffff1681565b6002600154036116aa576040517f08c379a00000000000000000000000000000000000000000000000000000000081526004016116a1906126c2565b60405180910390fd5b6002600181905550565b6000818473ffffffffffffffffffffffffffffffffffffffff1663dd62ed3e30866040518363ffffffff167c010000000000000000000000000000000000000000000000000000000002815260040161170e9291906126e2565b602060405180830381865afa15801561172b573d6000803e3d6000fd5b505050506040513d601f19601f8201168201806040525081019061174f91906120a3565b611759919061237d565b90506117f88463095ea7b37c0100000000000000000000000000000000000000000000000000000000028584604051602401611796929190612354565b604051602081830303815290604052907bffffffffffffffffffffffffffffffffffffffffffffffffffffffff19166020820180517bffffffffffffffffffffffffffffffffffffffffffffffffffffffff8381831617835250505050611a90565b50505050565b61189d846323b872dd7c01000000000000000000000000000000000000000000000000000000000285858560405160240161183b9392919061270b565b604051602081830303815290604052907bffffffffffffffffffffffffffffffffffffffffffffffffffffffff19166020820180517bffffffffffffffffffffffffffffffffffffffffffffffffffffffff8381831617835250505050611a90565b50505050565b6119408363a9059cbb7c01000000000000000000000000000000000000000000000000000000000284846040516024016118de929190612354565b604051602081830303815290604052907bffffffffffffffffffffffffffffffffffffffffffffffffffffffff19166020820180517bffffffffffffffffffffffffffffffffffffffffffffffffffffffff8381831617835250505050611a90565b505050565b60018081905550565b611956611b57565b73ffffffffffffffffffffffffffffffffffffffff16611974611489565b73ffffffffffffffffffffffffffffffffffffffff16146119ca576040517f08c379a00000000000000000000000000000000000000000000000000000000081526004016119c19061278e565b60405180910390fd5b565b60008060009054906101000a900473ffffffffffffffffffffffffffffffffffffffff169050816000806101000a81548173ffffffffffffffffffffffffffffffffffffffff021916908373ffffffffffffffffffffffffffffffffffffffff1602179055508173ffffffffffffffffffffffffffffffffffffffff168173ffffffffffffffffffffffffffffffffffffffff167f8be0079c531659141344cd1fd0a4f28419497f9722a3daafe3b4186f6b6457e060405160405180910390a35050565b6000611af2826040518060400160405280602081526020017f5361666545524332303a206c6f772d6c6576656c2063616c6c206661696c65648152508573ffffffffffffffffffffffffffffffffffffffff16611b5f9092919063ffffffff16565b9050600081511115611b525780806020019051810190611b1291906127e6565b611b51576040517f08c379a0000000000000000000000000000000000000000000000000000000008152600401611b4890612885565b60405180910390fd5b5b505050565b600033905090565b6060611b6e8484600085611b77565b90509392505050565b6060823073ffffffffffffffffffffffffffffffffffffffff16311015611bd3576040517f08c379a0000000000000000000000000000000000000000000000000000000008152600401611bca90612917565b60405180910390fd5b6000808673ffffffffffffffffffffffffffffffffffffffff168587604051611bfc91906129a8565b60006040518083038185875af1925050503d8060008114611c39576040519150601f19603f3d011682016040523d82523d6000602084013e611c3e565b606091505b5091509150611c4f87838387611c5b565b92505050949350505050565b60608315611cbd576000835103611cb557611c7585611cd0565b611cb4576040517f08c379a0000000000000000000000000000000000000000000000000000000008152600401611cab90612a0b565b60405180910390fd5b5b829050611cc8565b611cc78383611cf3565b5b949350505050565b6000808273ffffffffffffffffffffffffffffffffffffffff163b119050919050565b600082511115611d065781518083602001fd5b806040517f08c379a0000000000000000000000000000000000000000000000000000000008152600401611d3a9190612a80565b60405180910390fd5b600073ffffffffffffffffffffffffffffffffffffffff82169050919050565b6000819050919050565b6000611d88611d83611d7e84611d43565b611d63565b611d43565b9050919050565b6000611d9a82611d6d565b9050919050565b6000611dac82611d8f565b9050919050565b611dbc81611da1565b82525050565b6000602082019050611dd76000830184611db3565b92915050565b6000819050919050565b611df081611ddd565b82525050565b6000602082019050611e0b6000830184611de7565b92915050565b600080fd5b611e1f81611ddd565b8114611e2a57600080fd5b50565b600081359050611e3c81611e16565b92915050565b60048110611e4f57600080fd5b50565b600081359050611e6181611e42565b92915050565b60008060408385031215611e7e57611e7d611e11565b5b6000611e8c85828601611e2d565b9250506020611e9d85828601611e52565b9150509250929050565b600060208284031215611ebd57611ebc611e11565b5b6000611ecb84828501611e52565b91505092915050565b6000611edf82611d43565b9050919050565b611eef81611ed4565b8114611efa57600080fd5b50565b600081359050611f0c81611ee6565b92915050565b600060208284031215611f2857611f27611e11565b5b6000611f3684828501611efd565b91505092915050565b600060208284031215611f5557611f54611e11565b5b6000611f6384828501611e2d565b91505092915050565b611f7581611ed4565b82525050565b6000602082019050611f906000830184611f6c565b92915050565b7f4e487b7100000000000000000000000000000000000000000000000000000000600052602160045260246000fd5b60048110611fd657611fd5611f96565b5b50565b6000819050611fe782611fc5565b919050565b6000611ff782611fd9565b9050919050565b61200781611fec565b82525050565b60006080820190506120226000830187611de7565b61202f6020830186611de7565b61203c6040830185611de7565b6120496060830184611ffe565b95945050505050565b600061205d82611d8f565b9050919050565b61206d81612052565b82525050565b60006020820190506120886000830184612064565b92915050565b60008151905061209d81611e16565b92915050565b6000602082840312156120b9576120b8611e11565b5b60006120c78482850161208e565b91505092915050565b7f4e487b7100000000000000000000000000000000000000000000000000000000600052601260045260246000fd5b7f4e487b7100000000000000000000000000000000000000000000000000000000600052601160045260246000fd5b600061213982611ddd565b915061214483611ddd565b925082612154576121536120d0565b5b828204905092915050565b600082825260208201905092915050565b7f43616e206e6f7420627579203020416b6b546f6b656e20000000000000000000600082015250565b60006121a660178361215f565b91506121b182612170565b602082019050919050565b600060208201905081810360008301526121d581612199565b9050919050565b7f4e6f7420656e6f756768204361736820546f6b656e0000000000000000000000600082015250565b600061221260158361215f565b915061221d826121dc565b602082019050919050565b6000602082019050818103600083015261224181612205565b9050919050565b7f416d6f756e7420746f6f206c6f77000000000000000000000000000000000000600082015250565b600061227e600e8361215f565b915061228982612248565b602082019050919050565b600060208201905081810360008301526122ad81612271565b9050919050565b7f496e76616c6964206475726174696f6e00000000000000000000000000000000600082015250565b60006122ea60108361215f565b91506122f5826122b4565b602082019050919050565b60006020820190508181036000830152612319816122dd565b9050919050565b600061232b82611ddd565b915061233683611ddd565b925082820390508181111561234e5761234d6120ff565b5b92915050565b60006040820190506123696000830185611f6c565b6123766020830184611de7565b9392505050565b600061238882611ddd565b915061239383611ddd565b92508282019050808211156123ab576123aa6120ff565b5b92915050565b60006060820190506123c66000830186611de7565b6123d36020830185611de7565b6123e06040830184611ffe565b949350505050565b7f4e4f2056414c4944204455524154494f4e000000000000000000000000000000600082015250565b600061241e60118361215f565b9150612429826123e8565b602082019050919050565b6000602082019050818103600083015261244d81612411565b9050919050565b7f416d6f756e74206d7573742062652067726561746572207468616e2030000000600082015250565b600061248a601d8361215f565b915061249582612454565b602082019050919050565b600060208201905081810360008301526124b98161247d565b9050919050565b7f496e73756666696369656e742062616c616e6365000000000000000000000000600082015250565b60006124f660148361215f565b9150612501826124c0565b602082019050919050565b60006020820190508181036000830152612525816124e9565b9050919050565b7f204e6f6e2070756f69207072656c6576657265207175616e746920746f6b656e60008201527f2070657263686520737570657261726120696c206c696d697465207072696d6160208201527f2064656c2066696e650000000000000000000000000000000000000000000000604082015250565b60006125ae60498361215f565b91506125b98261252c565b606082019050919050565b600060208201905081810360008301526125dd816125a1565b9050919050565b7f4f776e61626c653a206e6577206f776e657220697320746865207a65726f206160008201527f6464726573730000000000000000000000000000000000000000000000000000602082015250565b600061264060268361215f565b915061264b826125e4565b604082019050919050565b6000602082019050818103600083015261266f81612633565b9050919050565b7f5265656e7472616e637947756172643a207265656e7472616e742063616c6c00600082015250565b60006126ac601f8361215f565b91506126b782612676565b602082019050919050565b600060208201905081810360008301526126db8161269f565b9050919050565b60006040820190506126f76000830185611f6c565b6127046020830184611f6c565b9392505050565b60006060820190506127206000830186611f6c565b61272d6020830185611f6c565b61273a6040830184611de7565b949350505050565b7f4f776e61626c653a2063616c6c6572206973206e6f7420746865206f776e6572600082015250565b600061277860208361215f565b915061278382612742565b602082019050919050565b600060208201905081810360008301526127a78161276b565b9050919050565b60008115159050919050565b6127c3816127ae565b81146127ce57600080fd5b50565b6000815190506127e0816127ba565b92915050565b6000602082840312156127fc576127fb611e11565b5b600061280a848285016127d1565b91505092915050565b7f5361666545524332303a204552433230206f7065726174696f6e20646964206e60008201527f6f74207375636365656400000000000000000000000000000000000000000000602082015250565b600061286f602a8361215f565b915061287a82612813565b604082019050919050565b6000602082019050818103600083015261289e81612862565b9050919050565b7f416464726573733a20696e73756666696369656e742062616c616e636520666f60008201527f722063616c6c0000000000000000000000000000000000000000000000000000602082015250565b600061290160268361215f565b915061290c826128a5565b604082019050919050565b60006020820190508181036000830152612930816128f4565b9050919050565b600081519050919050565b600081905092915050565b60005b8381101561296b578082015181840152602081019050612950565b60008484015250505050565b600061298282612937565b61298c8185612942565b935061299c81856020860161294d565b80840191505092915050565b60006129b48284612977565b915081905092915050565b7f416464726573733a2063616c6c20746f206e6f6e2d636f6e7472616374000000600082015250565b60006129f5601d8361215f565b9150612a00826129bf565b602082019050919050565b60006020820190508181036000830152612a24816129e8565b9050919050565b600081519050919050565b6000601f19601f8301169050919050565b6000612a5282612a2b565b612a5c818561215f565b9350612a6c81856020860161294d565b612a7581612a36565b840191505092915050565b60006020820190508181036000830152612a9a8184612a47565b90509291505056fea2646970667358221220b9648d111436edda7e3a8cc1ce5f21b51bc0593e7daa7e45f73fe9f5a7c3bcf464736f6c63430008140033",
  "immutableReferences": {},
  "source": "// SPDX-License-Identifier: MIT\npragma solidity ^0.8.20;\n\nimport \"@openzeppelin/contracts/access/Ownable.sol\";\nimport \"@openzeppelin/contracts/security/ReentrancyGuard.sol\";\nimport \"@openzeppelin/contracts/token/ERC20/utils/SafeERC20.sol\";\nimport \"./IMintableToken.sol\";\nimport \"./USDTCash.sol\";\nimport \"./AkToken.sol\";\n\ncontract StrategyTwo is Ownable, ReentrancyGuard {\n    using SafeERC20 for USDTCash;\n    using SafeERC20 for IERC20;\n\n    IMintableToken public akkToken;\n    USDTCash public usdtCash;\n    uint256 public rate; // Tasso di conversione USDTCash/AkToken\n\n    uint256 public constant MIN_CASH_TOKEN_AMOUNT = 0.1e18; // Quantit minima di Cash Token richiesta per l'acquisto di AkToken\n\n    //tenere traccia del saldo dell'utente e dell'ultima volta che ha depositato\n    struct User {\n        uint256 balance;\n        uint256 firstDepositTime;\n        uint256 lastDepositTime;\n        AccumulationDuration duration; // Durata del piano di accumulo (in secondi)\n        \n    }\n\n    enum AccumulationDuration {\n        DEV, // Durata di 10 secondi per il test dello sviluppatore\n        FIVE_YEARS, // Durata di 5 anni\n        TEN_YEARS, // Durata di 10 anni\n        FIFTEEN_YEARS // Durata di 15 anni\n    }\n\n    mapping(address => User) public users; // Mapping degli utenti\n\n \n\n    // Dichiarazione degli eventi per notificare le azioni eseguite dal contratto\n    event AkkTokenBought(\n        address indexed user,\n        uint256 cashTokenAmount,\n        uint256 akkTokenAmount,\n        AccumulationDuration duration\n\n    );\n    event CashTokenWithdrawn(address indexed user, uint256 cashTokenAmount);\n    event RateSet(uint256 rate);\n    event AkkTokenWithdrawn(address indexed user, uint256 akkTokenAmount);\n    event AddedToWhitelist(address indexed user);\n    event AkkTokenBalanceUpdated(address indexed user, uint256 amount);\n    event AkkTokenRemaining(uint256 amount);\n    event debug(address add,uint256 amm);\n\n    // Dichiarazione del costruttore per inizializzare le variabili di stato\n    constructor(address _akkToken, address _usdtCash, uint256 _rate) {\n        akkToken = IMintableToken(_akkToken);\n        usdtCash = USDTCash(_usdtCash);\n        rate = _rate;\n    }\n    function calculateDuration(AccumulationDuration _duration) public pure returns (uint256){\n        if(_duration == AccumulationDuration.DEV){\n            return 10;\n        }else if(_duration == AccumulationDuration.FIVE_YEARS){\n            return 60*60*24*365*5;\n        }else if(_duration == AccumulationDuration.TEN_YEARS){\n            return 60*60*24*365*10;\n        }else if(_duration == AccumulationDuration.FIFTEEN_YEARS){\n            return 60*60*24*365*15;\n        }else{\n            //require(false, \"NO VALID DURATION\");\n            revert(\"NO VALID DURATION\");\n        }\n    }\n    function buyAkkToken(\n        uint256 _amount, // akktoken\n        AccumulationDuration _duration\n    ) external nonReentrant {\n        uint256 akkTokenAmount = _amount;\n        //                     10    / 5   => 2\n        uint256 usdtCashAmount = akkTokenAmount / rate;\n        require(akkTokenAmount != 0, \"Can not buy 0 AkkToken \");\n        require(\n            usdtCash.balanceOf(msg.sender) >= usdtCashAmount,\n            \"Not enough Cash Token\"\n        );\n\n        require(usdtCashAmount >= MIN_CASH_TOKEN_AMOUNT, \"Amount too low\");\n        require(\n            _duration == AccumulationDuration.DEV ||\n                _duration == AccumulationDuration.FIVE_YEARS ||\n                _duration == AccumulationDuration.TEN_YEARS ||\n                _duration == AccumulationDuration.FIFTEEN_YEARS,\n            \"Invalid duration\"\n        );\n\n       \n\n        // Approva l'importo per il trasferimento dei cash token\n        SafeERC20.safeIncreaseAllowance(usdtCash, msg.sender, usdtCashAmount); /// fino a qua\n\n\n        // contratto riceve tot cash contispondente al rate toke/ cash\n        SafeERC20.safeTransferFrom(\n            usdtCash,\n            msg.sender,\n            address(this),\n            usdtCashAmount\n        );\n\n        // Verifica se ci sono abbastanza akkToken e minta se necessario\n        uint256 balance = akkToken.balanceOf(address(this));\n        if (balance < akkTokenAmount) {\n            akkToken.mint(address(this), akkTokenAmount - balance);\n        }\n\n        SafeERC20.safeTransfer(akkToken, msg.sender, akkTokenAmount);\n\n        // Aggiornamento del saldo dell'utente, dell'ultima volta che ha depositato e della durata del piano di accumulo\n        // comprare multiple volte consecutive\n        users[msg.sender].balance += akkTokenAmount;\n        users[msg.sender].lastDepositTime = block.timestamp;\n\n        if (users[msg.sender].firstDepositTime == 0) {\n            // il primo deposito\n            users[msg.sender].firstDepositTime == block.timestamp;\n            users[msg.sender].duration = _duration;\n        }\n\n        // Emissione dell'evento AkkTokenBought per notificare l'acquisto di Akk Token da parte dell'utente\n        emit AkkTokenBought(msg.sender, usdtCashAmount, akkTokenAmount, _duration);\n    }\n\n    // Metodo che consente all'owner di impostare il tasso di conversione USDTCash/AkToken\n    function setRate(uint256 _rate) external onlyOwner {\n        rate = _rate;\n\n        // Emissione dell'evento RateSet per notificare l'aggiornamento del tasso di conversione\n        emit RateSet(rate);\n    }\n\n    // Metodo che consente all'owner di ritirare gli Akk Token accumulati dal contratto\n    function withdrawAkkToken(uint256 _amount) external nonReentrant {\n        require(_amount > 0, \"Amount must be greater than 0\");\n        require(users[msg.sender].balance >= _amount, \"Insufficient balance\");\n        uint256 akkTokenAmount = _amount;\n        //                               20    / 5  => 4\n        uint256 usdtCashAmount = akkTokenAmount / rate;\n        //  35                                    30                 10\n        if (block.timestamp <= (users[msg.sender].firstDepositTime +  calculateDuration(users[msg.sender].duration)))\n            // true ergo la duration non e finita\n            //             100                      1           => 99 >    50\n            require( (users[msg.sender].balance - akkTokenAmount) > MIN_CASH_TOKEN_AMOUNT,\" Non puoi prelevere quanti token perche superara il limite prima del fine\");\n\n        users[msg.sender].balance -= akkTokenAmount;\n\n        // Trasferisce la quantit di akkToken user => StrategyTwo\n        // lato cliente approvazione di akktoken.approve(strategy.address,akktoken,account)\n        SafeERC20.safeTransferFrom(\n            akkToken,\n            msg.sender,\n            address(this),\n            akkTokenAmount\n        );\n\n        // Brucia gli AkToken ricevuti dall'utente\n        akkToken.burnFrom(address(this), akkTokenAmount);\n\n        // Mint usdtCash se non sufficiente disponibile;\n        uint256 balance = usdtCash.balanceOf(address(this));\n        if (balance < usdtCashAmount) {\n            usdtCash.mint(address(this), usdtCashAmount - balance);\n        }\n\n        // Trasferisci l'importo totale all'utente;\n        SafeERC20.safeTransfer(usdtCash, msg.sender, usdtCashAmount);\n\n        // Emissione dell'evento AkkTokenWithdrawn per notificare il prelievo degli Akk Token da parte dell'utente\n        emit AkkTokenWithdrawn(msg.sender, akkTokenAmount);\n\n        // Emissione dell'evento AkkTokenBalanceUpdated per notificare il saldo di AkToken rimanente per l'utente\n        emit AkkTokenBalanceUpdated(msg.sender, users[msg.sender].balance);\n\n        // Emissione dell'evento AkkTokenRemaining per notificare il saldo di AkToken rimanente all'interno del contratto StrategyTwo\n        emit AkkTokenRemaining(akkToken.balanceOf(address(this)));\n    }\n    function getUSDTCashTokenBalance() public view returns (uint256) {\n        // restituisce il saldo dei Usdt dell'utente\n        return usdtCash.balanceOf(msg.sender);\n    }\n\n    \n   \n     function getMyAkTokenBalanceUser() public view returns (uint256 _amount) {\n        // restituisce il saldo dei AkToken dell'utente\n        //emit debug(msg.sender,akkToken.balanceOf(msg.sender));\n        return akkToken.balanceOf(msg.sender);\n    }\n    \n   function getBalanceAkTokenStTwo(\n        address ContractAddress\n    ) public view returns (uint256 _amount) {\n        return akkToken.balanceOf(ContractAddress); \n    }\n\n    function getUSDTBalanceStTwo(\n        address ContractAddress\n    ) public view returns (uint256 _amount) {\n        return usdtCash.balanceOf(ContractAddress); \n    }\n\n    //function getAkTokenBalanceUser() public view returns (uint256 _amount) {\n    //    return users[msg.sender].balance; \n   // }\n}\n\n// second Strategy",
  "sourcePath": "/Volumes/One Touch/ProjectCourseBcod/Strategy/contracts/StrategyTwo.sol",
  "compiler": {
    "name": "solc",
    "version": "0.8.20+commit.a1b79de6.Emscripten.clang"
  },
  "schemaVersion": "3.4.13",
  "updatedAt": "2023-05-18T16:26:51.494Z",
  "networkType": "ethereum",
  "devdoc": {
    "kind": "dev",
    "methods": {
      "owner()": {
        "details": "Returns the address of the current owner."
      },
      "renounceOwnership()": {
        "details": "Leaves the contract without owner. It will not be possible to call `onlyOwner` functions anymore. Can only be called by the current owner. NOTE: Renouncing ownership will leave the contract without an owner, thereby removing any functionality that is only available to the owner."
      },
      "transferOwnership(address)": {
        "details": "Transfers ownership of the contract to a new account (`newOwner`). Can only be called by the current owner."
      }
    },
    "version": 1
  },
  "userdoc": {
    "kind": "user",
    "methods": {},
    "version": 1
  }
}