{
  "contractName": "StrategyOne",
  "abi": [
    {
      "inputs": [
        {
          "internalType": "contract IMintableToken",
          "name": "_coupon",
          "type": "address"
        },
        {
          "internalType": "contract IMintableToken",
          "name": "_cashToken",
          "type": "address"
        }
      ],
      "stateMutability": "nonpayable",
      "type": "constructor"
    },
    {
      "anonymous": false,
      "inputs": [
        {
          "indexed": true,
          "internalType": "address",
          "name": "user",
          "type": "address"
        }
      ],
      "name": "AddedToWhitelist",
      "type": "event"
    },
    {
      "anonymous": false,
      "inputs": [
        {
          "indexed": true,
          "internalType": "address",
          "name": "user",
          "type": "address"
        },
        {
          "indexed": false,
          "internalType": "uint256",
          "name": "amount",
          "type": "uint256"
        }
      ],
      "name": "CouponIssued",
      "type": "event"
    },
    {
      "anonymous": false,
      "inputs": [
        {
          "indexed": true,
          "internalType": "address",
          "name": "previousOwner",
          "type": "address"
        },
        {
          "indexed": true,
          "internalType": "address",
          "name": "newOwner",
          "type": "address"
        }
      ],
      "name": "OwnershipTransferred",
      "type": "event"
    },
    {
      "anonymous": false,
      "inputs": [
        {
          "indexed": false,
          "internalType": "uint256",
          "name": "newRate",
          "type": "uint256"
        }
      ],
      "name": "RewardRateChanged",
      "type": "event"
    },
    {
      "anonymous": false,
      "inputs": [
        {
          "indexed": false,
          "internalType": "uint256",
          "name": "amount",
          "type": "uint256"
        }
      ],
      "name": "RewardReleased",
      "type": "event"
    },
    {
      "anonymous": false,
      "inputs": [
        {
          "indexed": true,
          "internalType": "address",
          "name": "user",
          "type": "address"
        },
        {
          "indexed": false,
          "internalType": "uint256",
          "name": "amount",
          "type": "uint256"
        }
      ],
      "name": "Staked",
      "type": "event"
    },
    {
      "anonymous": false,
      "inputs": [
        {
          "indexed": false,
          "internalType": "uint256",
          "name": "amount",
          "type": "uint256"
        }
      ],
      "name": "TopUp",
      "type": "event"
    },
    {
      "anonymous": false,
      "inputs": [
        {
          "indexed": true,
          "internalType": "address",
          "name": "user",
          "type": "address"
        },
        {
          "indexed": false,
          "internalType": "uint256",
          "name": "amount",
          "type": "uint256"
        }
      ],
      "name": "UnStaked",
      "type": "event"
    },
    {
      "anonymous": false,
      "inputs": [
        {
          "indexed": false,
          "internalType": "uint256",
          "name": "amount",
          "type": "uint256"
        }
      ],
      "name": "Withdrawn",
      "type": "event"
    },
    {
      "inputs": [],
      "name": "cashToken",
      "outputs": [
        {
          "internalType": "contract IMintableToken",
          "name": "",
          "type": "address"
        }
      ],
      "stateMutability": "view",
      "type": "function",
      "constant": true
    },
    {
      "inputs": [],
      "name": "owner",
      "outputs": [
        {
          "internalType": "address",
          "name": "",
          "type": "address"
        }
      ],
      "stateMutability": "view",
      "type": "function",
      "constant": true
    },
    {
      "inputs": [],
      "name": "renounceOwnership",
      "outputs": [],
      "stateMutability": "nonpayable",
      "type": "function"
    },
    {
      "inputs": [
        {
          "internalType": "address",
          "name": "",
          "type": "address"
        }
      ],
      "name": "stakingData",
      "outputs": [
        {
          "internalType": "uint256",
          "name": "amount",
          "type": "uint256"
        },
        {
          "internalType": "uint256",
          "name": "startStake",
          "type": "uint256"
        },
        {
          "internalType": "uint256",
          "name": "endStake",
          "type": "uint256"
        },
        {
          "internalType": "uint256",
          "name": "interestRate",
          "type": "uint256"
        },
        {
          "internalType": "uint256",
          "name": "duration",
          "type": "uint256"
        },
        {
          "internalType": "bool",
          "name": "isCouponIssued",
          "type": "bool"
        }
      ],
      "stateMutability": "view",
      "type": "function",
      "constant": true
    },
    {
      "inputs": [
        {
          "internalType": "address",
          "name": "newOwner",
          "type": "address"
        }
      ],
      "name": "transferOwnership",
      "outputs": [],
      "stateMutability": "nonpayable",
      "type": "function"
    },
    {
      "inputs": [
        {
          "internalType": "address",
          "name": "",
          "type": "address"
        }
      ],
      "name": "whitelist",
      "outputs": [
        {
          "internalType": "bool",
          "name": "",
          "type": "bool"
        }
      ],
      "stateMutability": "view",
      "type": "function",
      "constant": true
    },
    {
      "inputs": [
        {
          "internalType": "uint256",
          "name": "_amount",
          "type": "uint256"
        },
        {
          "internalType": "enum StrategyOne.StakeDuration",
          "name": "_duration",
          "type": "uint8"
        }
      ],
      "name": "stake",
      "outputs": [],
      "stateMutability": "nonpayable",
      "type": "function"
    },
    {
      "inputs": [
        {
          "internalType": "address",
          "name": "_user",
          "type": "address"
        }
      ],
      "name": "hasStakedTokens",
      "outputs": [
        {
          "internalType": "bool",
          "name": "",
          "type": "bool"
        }
      ],
      "stateMutability": "view",
      "type": "function",
      "constant": true
    },
    {
      "inputs": [],
      "name": "unstake",
      "outputs": [],
      "stateMutability": "nonpayable",
      "type": "function"
    },
    {
      "inputs": [],
      "name": "getCashTokenBalance",
      "outputs": [
        {
          "internalType": "uint256",
          "name": "",
          "type": "uint256"
        }
      ],
      "stateMutability": "view",
      "type": "function",
      "constant": true
    },
    {
      "inputs": [],
      "name": "getCouponBalance",
      "outputs": [
        {
          "internalType": "uint256",
          "name": "",
          "type": "uint256"
        }
      ],
      "stateMutability": "view",
      "type": "function",
      "constant": true
    },
    {
      "inputs": [
        {
          "internalType": "address",
          "name": "_user",
          "type": "address"
        }
      ],
      "name": "getStakingDataAmount",
      "outputs": [
        {
          "internalType": "uint256",
          "name": "",
          "type": "uint256"
        }
      ],
      "stateMutability": "view",
      "type": "function",
      "constant": true
    },
    {
      "inputs": [],
      "name": "CouponAddress",
      "outputs": [
        {
          "internalType": "address",
          "name": "",
          "type": "address"
        }
      ],
      "stateMutability": "view",
      "type": "function",
      "constant": true
    },
    {
      "inputs": [],
      "name": "CashTokenAddress",
      "outputs": [
        {
          "internalType": "address",
          "name": "",
          "type": "address"
        }
      ],
      "stateMutability": "view",
      "type": "function",
      "constant": true
    },
    {
      "inputs": [
        {
          "internalType": "address",
          "name": "_user",
          "type": "address"
        }
      ],
      "name": "getUnstakeTime",
      "outputs": [
        {
          "internalType": "uint256",
          "name": "",
          "type": "uint256"
        }
      ],
      "stateMutability": "view",
      "type": "function",
      "constant": true
    },
    {
      "inputs": [
        {
          "internalType": "address",
          "name": "_user",
          "type": "address"
        }
      ],
      "name": "getInterestRate",
      "outputs": [
        {
          "internalType": "uint256",
          "name": "",
          "type": "uint256"
        }
      ],
      "stateMutability": "view",
      "type": "function",
      "constant": true
    },
    {
      "inputs": [
        {
          "internalType": "address",
          "name": "_user",
          "type": "address"
        }
      ],
      "name": "getDuration",
      "outputs": [
        {
          "internalType": "uint256",
          "name": "",
          "type": "uint256"
        }
      ],
      "stateMutability": "view",
      "type": "function",
      "constant": true
    },
    {
      "inputs": [
        {
          "internalType": "address",
          "name": "_user",
          "type": "address"
        }
      ],
      "name": "getIsCouponIssued",
      "outputs": [
        {
          "internalType": "bool",
          "name": "",
          "type": "bool"
        }
      ],
      "stateMutability": "view",
      "type": "function",
      "constant": true
    },
    {
      "inputs": [
        {
          "internalType": "address",
          "name": "_user",
          "type": "address"
        }
      ],
      "name": "totalRewards",
      "outputs": [
        {
          "internalType": "uint256",
          "name": "",
          "type": "uint256"
        }
      ],
      "stateMutability": "view",
      "type": "function",
      "constant": true
    },
    {
      "inputs": [
        {
          "internalType": "address",
          "name": "_user",
          "type": "address"
        }
      ],
      "name": "totalStaked",
      "outputs": [
        {
          "internalType": "uint256",
          "name": "",
          "type": "uint256"
        }
      ],
      "stateMutability": "view",
      "type": "function",
      "constant": true
    },
    {
      "inputs": [
        {
          "internalType": "address",
          "name": "ContractAddress",
          "type": "address"
        }
      ],
      "name": "getBalance",
      "outputs": [
        {
          "internalType": "uint256",
          "name": "_amount",
          "type": "uint256"
        }
      ],
      "stateMutability": "view",
      "type": "function",
      "constant": true
    },
    {
      "inputs": [],
      "name": "getOwner",
      "outputs": [
        {
          "internalType": "address",
          "name": "",
          "type": "address"
        }
      ],
      "stateMutability": "view",
      "type": "function",
      "constant": true
    },
    {
      "inputs": [
        {
          "internalType": "address",
          "name": "ContractAddress",
          "type": "address"
        }
      ],
      "name": "getReward",
      "outputs": [
        {
          "internalType": "uint256",
          "name": "_amount",
          "type": "uint256"
        }
      ],
      "stateMutability": "view",
      "type": "function",
      "constant": true
    },
    {
      "inputs": [
        {
          "internalType": "address",
          "name": "ContractAddress",
          "type": "address"
        }
      ],
      "name": "getStakingBalance",
      "outputs": [
        {
          "internalType": "uint256",
          "name": "_amount",
          "type": "uint256"
        }
      ],
      "stateMutability": "view",
      "type": "function",
      "constant": true
    }
  ],
  "bytecode": "0x60806040523480156200001157600080fd5b50604051620032e9380380620032e9833981810160405281019062000037919062000247565b6001600081905550620000716200005c620000fb640100000000026401000000009004565b62000103640100000000026401000000009004565b81600260006101000a81548173ffffffffffffffffffffffffffffffffffffffff021916908373ffffffffffffffffffffffffffffffffffffffff16021790555080600360006101000a81548173ffffffffffffffffffffffffffffffffffffffff021916908373ffffffffffffffffffffffffffffffffffffffff16021790555050506200028e565b600033905090565b6000600160009054906101000a900473ffffffffffffffffffffffffffffffffffffffff16905081600160006101000a81548173ffffffffffffffffffffffffffffffffffffffff021916908373ffffffffffffffffffffffffffffffffffffffff1602179055508173ffffffffffffffffffffffffffffffffffffffff168173ffffffffffffffffffffffffffffffffffffffff167f8be0079c531659141344cd1fd0a4f28419497f9722a3daafe3b4186f6b6457e060405160405180910390a35050565b600080fd5b600073ffffffffffffffffffffffffffffffffffffffff82169050919050565b6000620001fb82620001ce565b9050919050565b60006200020f82620001ee565b9050919050565b620002218162000202565b81146200022d57600080fd5b50565b600081519050620002418162000216565b92915050565b60008060408385031215620002615762000260620001c9565b5b6000620002718582860162000230565b9250506020620002848582860162000230565b9150509250929050565b61304b806200029e6000396000f3fe608060405234801561001057600080fd5b5060043610610175576000357c0100000000000000000000000000000000000000000000000000000000900480638da5cb5b116100e0578063b04ef9c211610099578063b04ef9c2146103fc578063c00007b01461042c578063d3ea0f891461045c578063eca511391461048c578063f2fde38b146104c1578063f8b2cb4f146104dd57610175565b80638da5cb5b146103005780639b19251a1461031e5780639bfd8d611461034e5780639d3748521461037e578063a7224687146103ae578063ab7573dd146103cc57610175565b80634505275111610132578063450527511461023c5780635f5724c11461025a5780636e3d48201461028a578063715018a6146102ba578063752bb330146102c4578063893d20e8146102e257610175565b806301c44b351461017a5780630fdae43b146101aa57806310087fb1146101da5780631b7a461e146101f657806321657871146102145780632def662014610232575b600080fd5b610194600480360381019061018f91906123cc565b61050d565b6040516101a19190612412565b60405180910390f35b6101c460048036038101906101bf91906123cc565b610559565b6040516101d19190612412565b60405180910390f35b6101f460048036038101906101ef919061247e565b6105a5565b005b6101fe610c50565b60405161020b9190612412565b60405180910390f35b61021c610d0f565b60405161022991906124cd565b60405180910390f35b61023a610d39565b005b61024461154a565b6040516102519190612412565b60405180910390f35b610274600480360381019061026f91906123cc565b611609565b6040516102819190612503565b60405180910390f35b6102a4600480360381019061029f91906123cc565b611657565b6040516102b19190612412565b60405180910390f35b6102c26116f0565b005b6102cc611704565b6040516102d991906124cd565b60405180910390f35b6102ea61172e565b6040516102f791906124cd565b60405180910390f35b61030861173d565b60405161031591906124cd565b60405180910390f35b610338600480360381019061033391906123cc565b611767565b6040516103459190612503565b60405180910390f35b610368600480360381019061036391906123cc565b611787565b6040516103759190612412565b60405180910390f35b610398600480360381019061039391906123cc565b611843565b6040516103a59190612503565b60405180910390f35b6103b661189c565b6040516103c3919061257d565b60405180910390f35b6103e660048036038101906103e191906123cc565b6118c2565b6040516103f39190612412565b60405180910390f35b610416600480360381019061041191906123cc565b6119a2565b6040516104239190612412565b60405180910390f35b610446600480360381019061044191906123cc565b6119ee565b6040516104539190612412565b60405180910390f35b610476600480360381019061047191906123cc565b611aaf565b6040516104839190612412565b60405180910390f35b6104a660048036038101906104a191906123cc565b611afb565b6040516104b896959493929190612598565b60405180910390f35b6104db60048036038101906104d691906123cc565b611b44565b005b6104f760048036038101906104f291906123cc565b611bc7565b6040516105049190612412565b60405180910390f35b6000600460008373ffffffffffffffffffffffffffffffffffffffff1673ffffffffffffffffffffffffffffffffffffffff168152602001908152602001600020600001549050919050565b6000600460008373ffffffffffffffffffffffffffffffffffffffff1673ffffffffffffffffffffffffffffffffffffffff168152602001908152602001600020600401549050919050565b6105ad611c88565b600082116105f0576040517f08c379a00000000000000000000000000000000000000000000000000000000081526004016105e790612656565b60405180910390fd5b81600360009054906101000a900473ffffffffffffffffffffffffffffffffffffffff1673ffffffffffffffffffffffffffffffffffffffff166370a08231336040518263ffffffff167c010000000000000000000000000000000000000000000000000000000002815260040161066891906124cd565b602060405180830381865afa158015610685573d6000803e3d6000fd5b505050506040513d601f19601f820116820180604052508101906106a9919061268b565b10156106ea576040517f08c379a00000000000000000000000000000000000000000000000000000000081526004016106e190612704565b60405180910390fd5b6001600560003373ffffffffffffffffffffffffffffffffffffffff1673ffffffffffffffffffffffffffffffffffffffff16815260200190815260200160002060006101000a81548160ff0219169083151502179055503373ffffffffffffffffffffffffffffffffffffffff167fa850ae9193f515cbae8d35e8925bd2be26627fc91bce650b8652ed254e9cab0360405160405180910390a26107b2600360009054906101000a900473ffffffffffffffffffffffffffffffffffffffff163384611cd7565b6107e0600360009054906101000a900473ffffffffffffffffffffffffffffffffffffffff16333085611e21565b6000600260009054906101000a900473ffffffffffffffffffffffffffffffffffffffff1673ffffffffffffffffffffffffffffffffffffffff166370a08231306040518263ffffffff167c010000000000000000000000000000000000000000000000000000000002815260040161085991906124cd565b602060405180830381865afa158015610876573d6000803e3d6000fd5b505050506040513d601f19601f8201168201806040525081019061089a919061268b565b905082600260009054906101000a900473ffffffffffffffffffffffffffffffffffffffff1673ffffffffffffffffffffffffffffffffffffffff166370a08231306040518263ffffffff167c010000000000000000000000000000000000000000000000000000000002815260040161091491906124cd565b602060405180830381865afa158015610931573d6000803e3d6000fd5b505050506040513d601f19601f82011682018060405250810190610955919061268b565b1015610a1257600260009054906101000a900473ffffffffffffffffffffffffffffffffffffffff1673ffffffffffffffffffffffffffffffffffffffff166340c10f193083866109a69190612753565b6040518363ffffffff167c01000000000000000000000000000000000000000000000000000000000281526004016109df929190612787565b600060405180830381600087803b1580156109f957600080fd5b505af1158015610a0d573d6000803e3d6000fd5b505050505b610a3f600260009054906101000a900473ffffffffffffffffffffffffffffffffffffffff163385611ec6565b600080806002811115610a5557610a546127b0565b5b846002811115610a6857610a676127b0565b5b03610a7c5760029150620151809050610b2e565b60016002811115610a9057610a8f6127b0565b5b846002811115610aa357610aa26127b0565b5b03610ab7576005915062278d009050610b2d565b600280811115610aca57610ac96127b0565b5b846002811115610add57610adc6127b0565b5b03610af157600a91506276a7009050610b2c565b6040517f08c379a0000000000000000000000000000000000000000000000000000000008152600401610b239061282b565b60405180910390fd5b5b5b6040518060c001604052808681526020014281526020016000815260200183815260200182815260200160001515815250600460003373ffffffffffffffffffffffffffffffffffffffff1673ffffffffffffffffffffffffffffffffffffffff168152602001908152602001600020600082015181600001556020820151816001015560408201518160020155606082015181600301556080820151816004015560a08201518160050160006101000a81548160ff0219169083151502179055509050503373ffffffffffffffffffffffffffffffffffffffff167f9e71bc8eea02a63969f509818f2dafb9254532904319f9dbda79b67bd34a5f3d86604051610c399190612412565b60405180910390a2505050610c4c611f68565b5050565b6000600360009054906101000a900473ffffffffffffffffffffffffffffffffffffffff1673ffffffffffffffffffffffffffffffffffffffff166370a08231336040518263ffffffff167c0100000000000000000000000000000000000000000000000000000000028152600401610cc991906124cd565b602060405180830381865afa158015610ce6573d6000803e3d6000fd5b505050506040513d601f19601f82011682018060405250810190610d0a919061268b565b905090565b6000600360009054906101000a900473ffffffffffffffffffffffffffffffffffffffff16905090565b610d41611c88565b6000600460003373ffffffffffffffffffffffffffffffffffffffff1673ffffffffffffffffffffffffffffffffffffffff16815260200190815260200160002090506000816000015411610dcb576040517f08c379a0000000000000000000000000000000000000000000000000000000008152600401610dc290612897565b60405180910390fd5b80600401548160010154610ddf91906128b7565b421015610e21576040517f08c379a0000000000000000000000000000000000000000000000000000000008152600401610e1890612937565b60405180910390fd5b6000816002015414610e68576040517f08c379a0000000000000000000000000000000000000000000000000000000008152600401610e5f906129a3565b60405180910390fd5b60006283d600826001015442610e7e9190612753565b83600301548460000154610e9291906129c3565b610e9c91906129c3565b610ea69190612a34565b90506000818360000154610eba91906128b7565b905082600401548360010154610ed091906128b7565b421015610fd2576000600260009054906101000a900473ffffffffffffffffffffffffffffffffffffffff1673ffffffffffffffffffffffffffffffffffffffff166370a08231336040518263ffffffff167c0100000000000000000000000000000000000000000000000000000000028152600401610f5091906124cd565b602060405180830381865afa158015610f6d573d6000803e3d6000fd5b505050506040513d601f19601f82011682018060405250810190610f91919061268b565b14610fd1576040517f08c379a0000000000000000000000000000000000000000000000000000000008152600401610fc890612ad7565b60405180910390fd5b5b8260050160009054906101000a900460ff16156111e957600560003373ffffffffffffffffffffffffffffffffffffffff1673ffffffffffffffffffffffffffffffffffffffff16815260200190815260200160002060009054906101000a900460ff16611075576040517f08c379a000000000000000000000000000000000000000000000000000000000815260040161106c90612b43565b60405180910390fd5b600260009054906101000a900473ffffffffffffffffffffffffffffffffffffffff1673ffffffffffffffffffffffffffffffffffffffff166379cc679033846040518363ffffffff167c01000000000000000000000000000000000000000000000000000000000281526004016110ee929190612787565b600060405180830381600087803b15801561110857600080fd5b505af115801561111c573d6000803e3d6000fd5b5050505060008360050160006101000a81548160ff021916908315150217905550600260009054906101000a900473ffffffffffffffffffffffffffffffffffffffff1673ffffffffffffffffffffffffffffffffffffffff166379cc679030846040518363ffffffff167c01000000000000000000000000000000000000000000000000000000000281526004016111b6929190612787565b600060405180830381600087803b1580156111d057600080fd5b505af11580156111e4573d6000803e3d6000fd5b505050505b6000600260009054906101000a900473ffffffffffffffffffffffffffffffffffffffff1673ffffffffffffffffffffffffffffffffffffffff166370a08231306040518263ffffffff167c010000000000000000000000000000000000000000000000000000000002815260040161126291906124cd565b602060405180830381865afa15801561127f573d6000803e3d6000fd5b505050506040513d601f19601f820116820180604052508101906112a3919061268b565b905081600360009054906101000a900473ffffffffffffffffffffffffffffffffffffffff1673ffffffffffffffffffffffffffffffffffffffff166370a08231306040518263ffffffff167c010000000000000000000000000000000000000000000000000000000002815260040161131d91906124cd565b602060405180830381865afa15801561133a573d6000803e3d6000fd5b505050506040513d601f19601f8201168201806040525081019061135e919061268b565b101561141b57600360009054906101000a900473ffffffffffffffffffffffffffffffffffffffff1673ffffffffffffffffffffffffffffffffffffffff166340c10f193083856113af9190612753565b6040518363ffffffff167c01000000000000000000000000000000000000000000000000000000000281526004016113e8929190612787565b600060405180830381600087803b15801561140257600080fd5b505af1158015611416573d6000803e3d6000fd5b505050505b611448600360009054906101000a900473ffffffffffffffffffffffffffffffffffffffff163384611ec6565b600084600001819055506000846001018190555042846002018190555060008460030181905550600084600401819055506000600560003373ffffffffffffffffffffffffffffffffffffffff1673ffffffffffffffffffffffffffffffffffffffff16815260200190815260200160002060006101000a81548160ff02191690831515021790555060008460050160006101000a81548160ff0219169083151502179055503373ffffffffffffffffffffffffffffffffffffffff167f79d3df6837cc49ff0e09fd3258e6e45594e0703445bb06825e9d75156eaee8f0836040516115349190612412565b60405180910390a250505050611548611f68565b565b6000600260009054906101000a900473ffffffffffffffffffffffffffffffffffffffff1673ffffffffffffffffffffffffffffffffffffffff166370a08231336040518263ffffffff167c01000000000000000000000000000000000000000000000000000000000281526004016115c391906124cd565b602060405180830381865afa1580156115e0573d6000803e3d6000fd5b505050506040513d601f19601f82011682018060405250810190611604919061268b565b905090565b600080600460008473ffffffffffffffffffffffffffffffffffffffff1673ffffffffffffffffffffffffffffffffffffffff16815260200190815260200160002060000154119050919050565b6000600460008373ffffffffffffffffffffffffffffffffffffffff1673ffffffffffffffffffffffffffffffffffffffff16815260200190815260200160002060040154600460008473ffffffffffffffffffffffffffffffffffffffff1673ffffffffffffffffffffffffffffffffffffffff168152602001908152602001600020600101546116e991906128b7565b9050919050565b6116f8611f72565b6117026000611ff0565b565b6000600260009054906101000a900473ffffffffffffffffffffffffffffffffffffffff16905090565b600061173861173d565b905090565b6000600160009054906101000a900473ffffffffffffffffffffffffffffffffffffffff16905090565b60056020528060005260406000206000915054906101000a900460ff1681565b600080600460008473ffffffffffffffffffffffffffffffffffffffff1673ffffffffffffffffffffffffffffffffffffffff1681526020019081526020016000206040518060c001604052908160008201548152602001600182015481526020016002820154815260200160038201548152602001600482015481526020016005820160009054906101000a900460ff161515151581525050905061182c836118c2565b816000015161183b91906128b7565b915050919050565b6000600460008373ffffffffffffffffffffffffffffffffffffffff1673ffffffffffffffffffffffffffffffffffffffff16815260200190815260200160002060050160009054906101000a900460ff169050919050565b600360009054906101000a900473ffffffffffffffffffffffffffffffffffffffff1681565b600080600460008473ffffffffffffffffffffffffffffffffffffffff1673ffffffffffffffffffffffffffffffffffffffff1681526020019081526020016000206040518060c001604052908160008201548152602001600182015481526020016002820154815260200160038201548152602001600482015481526020016005820160009054906101000a900460ff16151515158152505090506283d6008160200151426119729190612753565b8260600151836000015161198691906129c3565b61199091906129c3565b61199a9190612a34565b915050919050565b6000600460008373ffffffffffffffffffffffffffffffffffffffff1673ffffffffffffffffffffffffffffffffffffffff168152602001908152602001600020600001549050919050565b6000600360009054906101000a900473ffffffffffffffffffffffffffffffffffffffff1673ffffffffffffffffffffffffffffffffffffffff166370a08231836040518263ffffffff167c0100000000000000000000000000000000000000000000000000000000028152600401611a6791906124cd565b602060405180830381865afa158015611a84573d6000803e3d6000fd5b505050506040513d601f19601f82011682018060405250810190611aa8919061268b565b9050919050565b6000600460008373ffffffffffffffffffffffffffffffffffffffff1673ffffffffffffffffffffffffffffffffffffffff168152602001908152602001600020600301549050919050565b60046020528060005260406000206000915090508060000154908060010154908060020154908060030154908060040154908060050160009054906101000a900460ff16905086565b611b4c611f72565b600073ffffffffffffffffffffffffffffffffffffffff168173ffffffffffffffffffffffffffffffffffffffff1603611bbb576040517f08c379a0000000000000000000000000000000000000000000000000000000008152600401611bb290612bd5565b60405180910390fd5b611bc481611ff0565b50565b6000600360009054906101000a900473ffffffffffffffffffffffffffffffffffffffff1673ffffffffffffffffffffffffffffffffffffffff166370a08231836040518263ffffffff167c0100000000000000000000000000000000000000000000000000000000028152600401611c4091906124cd565b602060405180830381865afa158015611c5d573d6000803e3d6000fd5b505050506040513d601f19601f82011682018060405250810190611c81919061268b565b9050919050565b600260005403611ccd576040517f08c379a0000000000000000000000000000000000000000000000000000000008152600401611cc490612c41565b60405180910390fd5b6002600081905550565b6000818473ffffffffffffffffffffffffffffffffffffffff1663dd62ed3e30866040518363ffffffff167c0100000000000000000000000000000000000000000000000000000000028152600401611d31929190612c61565b602060405180830381865afa158015611d4e573d6000803e3d6000fd5b505050506040513d601f19601f82011682018060405250810190611d72919061268b565b611d7c91906128b7565b9050611e1b8463095ea7b37c0100000000000000000000000000000000000000000000000000000000028584604051602401611db9929190612787565b604051602081830303815290604052907bffffffffffffffffffffffffffffffffffffffffffffffffffffffff19166020820180517bffffffffffffffffffffffffffffffffffffffffffffffffffffffff83818316178352505050506120b6565b50505050565b611ec0846323b872dd7c010000000000000000000000000000000000000000000000000000000002858585604051602401611e5e93929190612c8a565b604051602081830303815290604052907bffffffffffffffffffffffffffffffffffffffffffffffffffffffff19166020820180517bffffffffffffffffffffffffffffffffffffffffffffffffffffffff83818316178352505050506120b6565b50505050565b611f638363a9059cbb7c0100000000000000000000000000000000000000000000000000000000028484604051602401611f01929190612787565b604051602081830303815290604052907bffffffffffffffffffffffffffffffffffffffffffffffffffffffff19166020820180517bffffffffffffffffffffffffffffffffffffffffffffffffffffffff83818316178352505050506120b6565b505050565b6001600081905550565b611f7a61217d565b73ffffffffffffffffffffffffffffffffffffffff16611f9861173d565b73ffffffffffffffffffffffffffffffffffffffff1614611fee576040517f08c379a0000000000000000000000000000000000000000000000000000000008152600401611fe590612d0d565b60405180910390fd5b565b6000600160009054906101000a900473ffffffffffffffffffffffffffffffffffffffff16905081600160006101000a81548173ffffffffffffffffffffffffffffffffffffffff021916908373ffffffffffffffffffffffffffffffffffffffff1602179055508173ffffffffffffffffffffffffffffffffffffffff168173ffffffffffffffffffffffffffffffffffffffff167f8be0079c531659141344cd1fd0a4f28419497f9722a3daafe3b4186f6b6457e060405160405180910390a35050565b6000612118826040518060400160405280602081526020017f5361666545524332303a206c6f772d6c6576656c2063616c6c206661696c65648152508573ffffffffffffffffffffffffffffffffffffffff166121859092919063ffffffff16565b905060008151111561217857808060200190518101906121389190612d59565b612177576040517f08c379a000000000000000000000000000000000000000000000000000000000815260040161216e90612df8565b60405180910390fd5b5b505050565b600033905090565b6060612194848460008561219d565b90509392505050565b6060823073ffffffffffffffffffffffffffffffffffffffff163110156121f9576040517f08c379a00000000000000000000000000000000000000000000000000000000081526004016121f090612e8a565b60405180910390fd5b6000808673ffffffffffffffffffffffffffffffffffffffff1685876040516122229190612f1b565b60006040518083038185875af1925050503d806000811461225f576040519150601f19603f3d011682016040523d82523d6000602084013e612264565b606091505b509150915061227587838387612281565b92505050949350505050565b606083156122e35760008351036122db5761229b856122f6565b6122da576040517f08c379a00000000000000000000000000000000000000000000000000000000081526004016122d190612f7e565b60405180910390fd5b5b8290506122ee565b6122ed8383612319565b5b949350505050565b6000808273ffffffffffffffffffffffffffffffffffffffff163b119050919050565b60008251111561232c5781518083602001fd5b806040517f08c379a00000000000000000000000000000000000000000000000000000000081526004016123609190612ff3565b60405180910390fd5b600080fd5b600073ffffffffffffffffffffffffffffffffffffffff82169050919050565b60006123998261236e565b9050919050565b6123a98161238e565b81146123b457600080fd5b50565b6000813590506123c6816123a0565b92915050565b6000602082840312156123e2576123e1612369565b5b60006123f0848285016123b7565b91505092915050565b6000819050919050565b61240c816123f9565b82525050565b60006020820190506124276000830184612403565b92915050565b612436816123f9565b811461244157600080fd5b50565b6000813590506124538161242d565b92915050565b6003811061246657600080fd5b50565b60008135905061247881612459565b92915050565b6000806040838503121561249557612494612369565b5b60006124a385828601612444565b92505060206124b485828601612469565b9150509250929050565b6124c78161238e565b82525050565b60006020820190506124e260008301846124be565b92915050565b60008115159050919050565b6124fd816124e8565b82525050565b600060208201905061251860008301846124f4565b92915050565b6000819050919050565b600061254361253e6125398461236e565b61251e565b61236e565b9050919050565b600061255582612528565b9050919050565b60006125678261254a565b9050919050565b6125778161255c565b82525050565b6000602082019050612592600083018461256e565b92915050565b600060c0820190506125ad6000830189612403565b6125ba6020830188612403565b6125c76040830187612403565b6125d46060830186612403565b6125e16080830185612403565b6125ee60a08301846124f4565b979650505050505050565b600082825260208201905092915050565b7f416d6f756e742063616e6e6f7420626520300000000000000000000000000000600082015250565b60006126406012836125f9565b915061264b8261260a565b602082019050919050565b6000602082019050818103600083015261266f81612633565b9050919050565b6000815190506126858161242d565b92915050565b6000602082840312156126a1576126a0612369565b5b60006126af84828501612676565b91505092915050565b7f4e6f7420656e6f75676820746f6b656e73000000000000000000000000000000600082015250565b60006126ee6011836125f9565b91506126f9826126b8565b602082019050919050565b6000602082019050818103600083015261271d816126e1565b9050919050565b7f4e487b7100000000000000000000000000000000000000000000000000000000600052601160045260246000fd5b600061275e826123f9565b9150612769836123f9565b925082820390508181111561278157612780612724565b5b92915050565b600060408201905061279c60008301856124be565b6127a96020830184612403565b9392505050565b7f4e487b7100000000000000000000000000000000000000000000000000000000600052602160045260246000fd5b7f496e76616c6964207374616b65206475726174696f6e00000000000000000000600082015250565b60006128156016836125f9565b9150612820826127df565b602082019050919050565b6000602082019050818103600083015261284481612808565b9050919050565b7f4e6f207374616b656420746f6b656e7300000000000000000000000000000000600082015250565b60006128816010836125f9565b915061288c8261284b565b602082019050919050565b600060208201905081810360008301526128b081612874565b9050919050565b60006128c2826123f9565b91506128cd836123f9565b92508282019050808211156128e5576128e4612724565b5b92915050565b7f4d696e696d756d207374616b6520706572696f64206e6f742072656163686564600082015250565b60006129216020836125f9565b915061292c826128eb565b602082019050919050565b6000602082019050818103600083015261295081612914565b9050919050565b7f416c726561647920756e7374616b656400000000000000000000000000000000600082015250565b600061298d6010836125f9565b915061299882612957565b602082019050919050565b600060208201905081810360008301526129bc81612980565b9050919050565b60006129ce826123f9565b91506129d9836123f9565b92508282026129e7816123f9565b915082820484148315176129fe576129fd612724565b5b5092915050565b7f4e487b7100000000000000000000000000000000000000000000000000000000600052601260045260246000fd5b6000612a3f826123f9565b9150612a4a836123f9565b925082612a5a57612a59612a05565b5b828204905092915050565b7f436f75706f6e73206c6f636b656420756e74696c20656e64206f66207374616b60008201527f6520706572696f64000000000000000000000000000000000000000000000000602082015250565b6000612ac16028836125f9565b9150612acc82612a65565b604082019050919050565b60006020820190508181036000830152612af081612ab4565b9050919050565b7f53656e646572206e6f742077686974656c697374656400000000000000000000600082015250565b6000612b2d6016836125f9565b9150612b3882612af7565b602082019050919050565b60006020820190508181036000830152612b5c81612b20565b9050919050565b7f4f776e61626c653a206e6577206f776e657220697320746865207a65726f206160008201527f6464726573730000000000000000000000000000000000000000000000000000602082015250565b6000612bbf6026836125f9565b9150612bca82612b63565b604082019050919050565b60006020820190508181036000830152612bee81612bb2565b9050919050565b7f5265656e7472616e637947756172643a207265656e7472616e742063616c6c00600082015250565b6000612c2b601f836125f9565b9150612c3682612bf5565b602082019050919050565b60006020820190508181036000830152612c5a81612c1e565b9050919050565b6000604082019050612c7660008301856124be565b612c8360208301846124be565b9392505050565b6000606082019050612c9f60008301866124be565b612cac60208301856124be565b612cb96040830184612403565b949350505050565b7f4f776e61626c653a2063616c6c6572206973206e6f7420746865206f776e6572600082015250565b6000612cf76020836125f9565b9150612d0282612cc1565b602082019050919050565b60006020820190508181036000830152612d2681612cea565b9050919050565b612d36816124e8565b8114612d4157600080fd5b50565b600081519050612d5381612d2d565b92915050565b600060208284031215612d6f57612d6e612369565b5b6000612d7d84828501612d44565b91505092915050565b7f5361666545524332303a204552433230206f7065726174696f6e20646964206e60008201527f6f74207375636365656400000000000000000000000000000000000000000000602082015250565b6000612de2602a836125f9565b9150612ded82612d86565b604082019050919050565b60006020820190508181036000830152612e1181612dd5565b9050919050565b7f416464726573733a20696e73756666696369656e742062616c616e636520666f60008201527f722063616c6c0000000000000000000000000000000000000000000000000000602082015250565b6000612e746026836125f9565b9150612e7f82612e18565b604082019050919050565b60006020820190508181036000830152612ea381612e67565b9050919050565b600081519050919050565b600081905092915050565b60005b83811015612ede578082015181840152602081019050612ec3565b60008484015250505050565b6000612ef582612eaa565b612eff8185612eb5565b9350612f0f818560208601612ec0565b80840191505092915050565b6000612f278284612eea565b915081905092915050565b7f416464726573733a2063616c6c20746f206e6f6e2d636f6e7472616374000000600082015250565b6000612f68601d836125f9565b9150612f7382612f32565b602082019050919050565b60006020820190508181036000830152612f9781612f5b565b9050919050565b600081519050919050565b6000601f19601f8301169050919050565b6000612fc582612f9e565b612fcf81856125f9565b9350612fdf818560208601612ec0565b612fe881612fa9565b840191505092915050565b6000602082019050818103600083015261300d8184612fba565b90509291505056fea2646970667358221220f078f0cbba3b112b8e1d9b6b826476e211865fdc629402cfd01ae2fdac4db59464736f6c63430008130033",
  "immutableReferences": {},
  "source": "// SPDX-License-Identifier: MIT\npragma solidity ^0.8.19;\n\nimport \"@openzeppelin/contracts/token/ERC20/IERC20.sol\";\nimport \"@openzeppelin/contracts/token/ERC20/utils/SafeERC20.sol\";\nimport \"@openzeppelin/contracts/security/ReentrancyGuard.sol\";\nimport \"@openzeppelin/contracts/access/Ownable.sol\";\nimport \"./CashToken.sol\";\nimport \"./Coupon.sol\";\nimport \"./IMintableToken.sol\";\n\ncontract StrategyOne is ReentrancyGuard, Ownable {\n    using SafeERC20 for IERC20;\n\n    IMintableToken private coupon;\n    IMintableToken public cashToken;\n\n    enum StakeDuration { SHORT, MEDIUM, LONG } // custom chosen by user\n\n    struct StakingData {\n        uint256 amount;\n        uint256 startStake;\n        uint256 endStake;\n        uint256 interestRate;\n        uint256 duration;\n        bool isCouponIssued;  \n        \n    }\n\n\n\n    mapping(address => StakingData) public stakingData;\n\n    mapping(address => bool) public whitelist; // tiene traccia degli utenti che hanno depositato\n\n    event Staked(address indexed user, uint256 amount);\n    event UnStaked(address indexed user, uint256 amount);\n    event RewardRateChanged(uint256 newRate);\n    event TopUp(uint256 amount);\n    event Withdrawn(uint256 amount);\n    event RewardReleased(uint256 amount);\n    event CouponIssued(address indexed user, uint256 amount);\n    event AddedToWhitelist(address indexed user);\n\n\n    constructor(IMintableToken _coupon, IMintableToken _cashToken) {\n        coupon = _coupon;\n        cashToken = _cashToken;\n    }\n\n   \n\n    function stake(uint256 _amount, StakeDuration _duration) public nonReentrant {\n        require(_amount > 0, \"Amount cannot be 0\");\n        require(cashToken.balanceOf(msg.sender) >= _amount, \"Not enough tokens\");\n        \n\n          // Add the user to the whitelist\n        whitelist[msg.sender] = true;\n        emit AddedToWhitelist(msg.sender);\n\n         // Approva l'importo per il trasferimento dei cash token\n        SafeERC20.safeIncreaseAllowance(cashToken, msg.sender, _amount);\n\n        // Trasferisci i cash token dal wallet dell'utente al contratto\n\n        SafeERC20.safeTransferFrom(cashToken, msg.sender, address(this), _amount);\n          \n        // Verifica se ci sono abbastanza coupon e minta se necessario\n        //cashToken.safeTransferFrom(msg.sender, address(this), _amount);\n        uint256 balance = coupon.balanceOf(address(this));\n        \n        if(coupon.balanceOf(address(this)) <  _amount){\n            coupon.mint(address(this), _amount - balance);    \n        }\n         // Trasferisci i coupon all'utente\n        SafeERC20.safeTransfer(coupon, msg.sender, _amount);\n\n        // Calcola il tasso di interesse e la durata\n        uint256 interestRate = 0;\n        uint256 duration;\n\n        if (_duration == StakeDuration.SHORT) {  // 1 day\n            interestRate = 2 ;\n            duration = 24 hours;\n        } else if (_duration == StakeDuration.MEDIUM) {  // 30 days\n            interestRate = 5 ;\n            duration = 30 days;\n        } else if (_duration == StakeDuration.LONG) {  // 90 days\n            interestRate = 10 ;\n            duration = 90 days;\n        } else {\n            revert(\"Invalid stake duration\");\n        }\n\n        stakingData[msg.sender] = StakingData({\n            amount: _amount,\n            startStake: block.timestamp,\n            endStake: 0,\n            interestRate: interestRate,\n            duration: duration,\n            isCouponIssued: false\n        });\n\n        emit Staked(msg.sender, _amount);\n    }\n\n    function hasStakedTokens(address _user) public view returns (bool) {\n        return stakingData[_user].amount > 0;\n    }\n\n    function unstake() public nonReentrant {\n        StakingData storage data = stakingData[msg.sender];\n        require(data.amount > 0, \"No staked tokens\");\n        require(block.timestamp >= data.startStake + data.duration, \"Minimum stake period not reached\");\n        require(data.endStake == 0, \"Already unstaked\");\n         // Calcola la ricompensa in cash token\n        uint256 reward = (data.amount * data.interestRate * (block.timestamp - data.startStake)) / (100 * 86400);\n        uint256 total = data.amount + reward;\n\n\n     \n        \n         // Verifica se l'utente ha i coupon bloccati\n        \n        if(block.timestamp < data.startStake + data.duration){\n        require(coupon.balanceOf(msg.sender) == 0, \"Coupons locked until end of stake period\");\n        }\n\n               // Restituisci i coupon se emessi\n        if (data.isCouponIssued) {\n            require(whitelist[msg.sender], \"Sender not whitelisted\");\n            //coupon.burnFrom(reward, msg.sender);\n            coupon.burnFrom(msg.sender, reward);\n            data.isCouponIssued = false;\n            coupon.burnFrom(address(this), reward);\n            // Sottrai i token coupon bruciati dal bilancio dei coupon del contratto\n            //uint256 balanceOfAddress= coupon.balanceOf(address(this));\n            //unit256 balanceOfAddress= coupon.balanceOf(address(this));\n           // balanceOfAddress = balanceOfAddress - coupon.balanceOf(address(this));\n           \n            //balanceOfAddress = balanceOfAddress - reward;\n            \n        }\n\n          // Mint cashToken se non sufficiente disponibile\n        uint256 balance = coupon.balanceOf(address(this));\n        if (cashToken.balanceOf(address(this)) < total) {\n            cashToken.mint(address(this), total - balance);\n        }\n        // Trasferisci l'importo totale (amount + reward) all'utente\n\n        SafeERC20.safeTransfer(cashToken, msg.sender, total);\n\n        data.amount = 0;\n        data.startStake = 0;\n        data.endStake = block.timestamp;\n        data.interestRate = 0;\n        data.duration = 0;\n        whitelist[msg.sender] = false;\n        data.isCouponIssued = false; \n        \n        // Restituisci i coupon al contratto\n       // SafeERC20.safeTransferFrom(coupon, msg.sender, address(this), total);\n\n        //SafeERC20.safeTransfer(cashToken, msg.sender, total);\n    \n        //cashToken.safeTransfer(msg.sender, total);\n    \n        emit UnStaked(msg.sender, total);\n    }\n\n    function getCashTokenBalance() public view returns (uint256) { // restituisce il saldo dei cash token dell'utente\n        return cashToken.balanceOf(msg.sender);\n    }\n    \n\n    // get\n    function getCouponBalance() public view returns (uint256) { // restituisce il saldo dei coupon dell'utente\n        return coupon.balanceOf(msg.sender);\n    }\n\n    /*function getStakingData(address _user) public view returns (StakingData memory) { // restituisce i dati di staking dell'utente\n        return stakingData[_user];\n    }*/\n    \n    function getStakingDataAmount(address _user) public view returns (uint256) { // restituisce l'importo di staking dell'utente\n        return stakingData[_user].amount;\n    }\n    function CouponAddress() public view returns (address) {  // restituisce l'indirizzo del contratto coupon\n        return address(coupon);\n    }\n    function CashTokenAddress() public view returns (address) {  // restituisce l'indirizzo del contratto cash token\n        return address(cashToken);\n    }\n    function getUnstakeTime(address _user) public view returns (uint256) {  // restituisce il tempo di unstake dell'utente\n        return stakingData[_user].startStake + stakingData[_user].duration;\n    }\n    function getInterestRate(address _user) public view returns (uint256) { //\n        return stakingData[_user].interestRate;\n    }\n    function getDuration(address _user) public view returns (uint256) {\n        return stakingData[_user].duration;\n    }\n    function getIsCouponIssued(address _user) public view returns (bool) {\n        return stakingData[_user].isCouponIssued;\n    }\n    function totalRewards(address _user) public view returns (uint256) {\n        StakingData memory data = stakingData[_user];\n        return (data.amount * data.interestRate * (block.timestamp - data.startStake)) / (100 * 86400);\n    }\n    function totalStaked(address _user) public view returns (uint256) {\n        StakingData memory data = stakingData[_user];\n        return data.amount + totalRewards(_user);\n    }\n    function getBalance(address ContractAddress) public view returns (uint256 _amount) {\n        return cashToken.balanceOf(ContractAddress);\n    }\n    function getOwner() public view returns (address) {\n        return owner();\n    }\n    function getReward(address ContractAddress) public view returns (uint256 _amount) {\n        return cashToken.balanceOf(ContractAddress);\n    }\n    function getStakingBalance(address ContractAddress) public view returns(uint256 _amount){\n        return stakingData[ContractAddress].amount;\n    }\n\n\n\n}\n\n",
  "sourcePath": "/Volumes/One Touch/ProjectCourseBcod/contracts/StrategyOne.sol",
  "compiler": {
    "name": "solc",
    "version": "0.8.19+commit.7dd6d404.Emscripten.clang"
  },
  "schemaVersion": "3.4.13",
  "updatedAt": "2023-05-09T19:18:59.204Z",
  "networkType": "ethereum",
  "devdoc": {
    "kind": "dev",
    "methods": {
      "owner()": {
        "details": "Returns the address of the current owner."
      },
      "renounceOwnership()": {
        "details": "Leaves the contract without owner. It will not be possible to call `onlyOwner` functions anymore. Can only be called by the current owner. NOTE: Renouncing ownership will leave the contract without an owner, thereby removing any functionality that is only available to the owner."
      },
      "transferOwnership(address)": {
        "details": "Transfers ownership of the contract to a new account (`newOwner`). Can only be called by the current owner."
      }
    },
    "version": 1
  },
  "userdoc": {
    "kind": "user",
    "methods": {},
    "version": 1
  }
}