{
  "contractName": "StrategyTwo",
  "abi": [
    {
      "inputs": [
        {
          "internalType": "address",
          "name": "_akkToken",
          "type": "address"
        },
        {
          "internalType": "address",
          "name": "_usdtCash",
          "type": "address"
        },
        {
          "internalType": "uint256",
          "name": "_rate",
          "type": "uint256"
        }
      ],
      "stateMutability": "nonpayable",
      "type": "constructor"
    },
    {
      "anonymous": false,
      "inputs": [
        {
          "indexed": true,
          "internalType": "address",
          "name": "user",
          "type": "address"
        }
      ],
      "name": "AddedToWhitelist",
      "type": "event"
    },
    {
      "anonymous": false,
      "inputs": [
        {
          "indexed": true,
          "internalType": "address",
          "name": "user",
          "type": "address"
        },
        {
          "indexed": false,
          "internalType": "uint256",
          "name": "amount",
          "type": "uint256"
        }
      ],
      "name": "AkkTokenBalanceUpdated",
      "type": "event"
    },
    {
      "anonymous": false,
      "inputs": [
        {
          "indexed": true,
          "internalType": "address",
          "name": "user",
          "type": "address"
        },
        {
          "indexed": false,
          "internalType": "uint256",
          "name": "cashTokenAmount",
          "type": "uint256"
        },
        {
          "indexed": false,
          "internalType": "uint256",
          "name": "akkTokenAmount",
          "type": "uint256"
        },
        {
          "indexed": false,
          "internalType": "enum StrategyTwo.AccumulationDuration",
          "name": "duration",
          "type": "uint8"
        }
      ],
      "name": "AkkTokenBought",
      "type": "event"
    },
    {
      "anonymous": false,
      "inputs": [
        {
          "indexed": false,
          "internalType": "uint256",
          "name": "amount",
          "type": "uint256"
        }
      ],
      "name": "AkkTokenRemaining",
      "type": "event"
    },
    {
      "anonymous": false,
      "inputs": [
        {
          "indexed": true,
          "internalType": "address",
          "name": "user",
          "type": "address"
        },
        {
          "indexed": false,
          "internalType": "uint256",
          "name": "akkTokenAmount",
          "type": "uint256"
        }
      ],
      "name": "AkkTokenWithdrawn",
      "type": "event"
    },
    {
      "anonymous": false,
      "inputs": [
        {
          "indexed": true,
          "internalType": "address",
          "name": "user",
          "type": "address"
        },
        {
          "indexed": false,
          "internalType": "uint256",
          "name": "cashTokenAmount",
          "type": "uint256"
        }
      ],
      "name": "CashTokenWithdrawn",
      "type": "event"
    },
    {
      "anonymous": false,
      "inputs": [
        {
          "indexed": true,
          "internalType": "address",
          "name": "previousOwner",
          "type": "address"
        },
        {
          "indexed": true,
          "internalType": "address",
          "name": "newOwner",
          "type": "address"
        }
      ],
      "name": "OwnershipTransferred",
      "type": "event"
    },
    {
      "anonymous": false,
      "inputs": [
        {
          "indexed": false,
          "internalType": "uint256",
          "name": "rate",
          "type": "uint256"
        }
      ],
      "name": "RateSet",
      "type": "event"
    },
    {
      "anonymous": false,
      "inputs": [
        {
          "indexed": false,
          "internalType": "address",
          "name": "add",
          "type": "address"
        },
        {
          "indexed": false,
          "internalType": "uint256",
          "name": "amm",
          "type": "uint256"
        }
      ],
      "name": "debug",
      "type": "event"
    },
    {
      "inputs": [],
      "name": "MIN_CASH_TOKEN_AMOUNT",
      "outputs": [
        {
          "internalType": "uint256",
          "name": "",
          "type": "uint256"
        }
      ],
      "stateMutability": "view",
      "type": "function",
      "constant": true
    },
    {
      "inputs": [],
      "name": "akkToken",
      "outputs": [
        {
          "internalType": "contract IMintableToken",
          "name": "",
          "type": "address"
        }
      ],
      "stateMutability": "view",
      "type": "function",
      "constant": true
    },
    {
      "inputs": [],
      "name": "owner",
      "outputs": [
        {
          "internalType": "address",
          "name": "",
          "type": "address"
        }
      ],
      "stateMutability": "view",
      "type": "function",
      "constant": true
    },
    {
      "inputs": [],
      "name": "rate",
      "outputs": [
        {
          "internalType": "uint256",
          "name": "",
          "type": "uint256"
        }
      ],
      "stateMutability": "view",
      "type": "function",
      "constant": true
    },
    {
      "inputs": [],
      "name": "renounceOwnership",
      "outputs": [],
      "stateMutability": "nonpayable",
      "type": "function"
    },
    {
      "inputs": [
        {
          "internalType": "address",
          "name": "newOwner",
          "type": "address"
        }
      ],
      "name": "transferOwnership",
      "outputs": [],
      "stateMutability": "nonpayable",
      "type": "function"
    },
    {
      "inputs": [],
      "name": "usdtCash",
      "outputs": [
        {
          "internalType": "contract USDTCash",
          "name": "",
          "type": "address"
        }
      ],
      "stateMutability": "view",
      "type": "function",
      "constant": true
    },
    {
      "inputs": [
        {
          "internalType": "address",
          "name": "",
          "type": "address"
        }
      ],
      "name": "users",
      "outputs": [
        {
          "internalType": "uint256",
          "name": "balance",
          "type": "uint256"
        },
        {
          "internalType": "uint256",
          "name": "firstDepositTime",
          "type": "uint256"
        },
        {
          "internalType": "uint256",
          "name": "lastDepositTime",
          "type": "uint256"
        },
        {
          "internalType": "enum StrategyTwo.AccumulationDuration",
          "name": "duration",
          "type": "uint8"
        }
      ],
      "stateMutability": "view",
      "type": "function",
      "constant": true
    },
    {
      "inputs": [
        {
          "internalType": "enum StrategyTwo.AccumulationDuration",
          "name": "_duration",
          "type": "uint8"
        }
      ],
      "name": "calculateDuration",
      "outputs": [
        {
          "internalType": "uint256",
          "name": "",
          "type": "uint256"
        }
      ],
      "stateMutability": "pure",
      "type": "function",
      "constant": true
    },
    {
      "inputs": [
        {
          "internalType": "uint256",
          "name": "_amount",
          "type": "uint256"
        },
        {
          "internalType": "enum StrategyTwo.AccumulationDuration",
          "name": "_duration",
          "type": "uint8"
        }
      ],
      "name": "buyAkkToken",
      "outputs": [],
      "stateMutability": "nonpayable",
      "type": "function"
    },
    {
      "inputs": [
        {
          "internalType": "uint256",
          "name": "_rate",
          "type": "uint256"
        }
      ],
      "name": "setRate",
      "outputs": [],
      "stateMutability": "nonpayable",
      "type": "function"
    },
    {
      "inputs": [
        {
          "internalType": "uint256",
          "name": "_amount",
          "type": "uint256"
        }
      ],
      "name": "withdrawAkkToken",
      "outputs": [],
      "stateMutability": "nonpayable",
      "type": "function"
    },
    {
      "inputs": [],
      "name": "getUSDTCashTokenBalance",
      "outputs": [
        {
          "internalType": "uint256",
          "name": "",
          "type": "uint256"
        }
      ],
      "stateMutability": "view",
      "type": "function",
      "constant": true
    },
    {
      "inputs": [],
      "name": "getMyAkTokenBalanceUser",
      "outputs": [
        {
          "internalType": "uint256",
          "name": "_amount",
          "type": "uint256"
        }
      ],
      "stateMutability": "view",
      "type": "function",
      "constant": true
    },
    {
      "inputs": [
        {
          "internalType": "address",
          "name": "ContractAddress",
          "type": "address"
        }
      ],
      "name": "getBalanceAkTokenStTwo",
      "outputs": [
        {
          "internalType": "uint256",
          "name": "_amount",
          "type": "uint256"
        }
      ],
      "stateMutability": "view",
      "type": "function",
      "constant": true
    },
    {
      "inputs": [
        {
          "internalType": "address",
          "name": "ContractAddress",
          "type": "address"
        }
      ],
      "name": "getUSDTBalanceStTwo",
      "outputs": [
        {
          "internalType": "uint256",
          "name": "_amount",
          "type": "uint256"
        }
      ],
      "stateMutability": "view",
      "type": "function",
      "constant": true
    }
  ],
  "bytecode": "0x60806040523480156200001157600080fd5b5060405162002de238038062002de2833981810160405281019062000037919062000273565b620000696200005462000102640100000000026401000000009004565b6200010a640100000000026401000000009004565b6001808190555082600260006101000a81548173ffffffffffffffffffffffffffffffffffffffff021916908373ffffffffffffffffffffffffffffffffffffffff16021790555081600360006101000a81548173ffffffffffffffffffffffffffffffffffffffff021916908373ffffffffffffffffffffffffffffffffffffffff16021790555080600481905550505050620002cf565b600033905090565b60008060009054906101000a900473ffffffffffffffffffffffffffffffffffffffff169050816000806101000a81548173ffffffffffffffffffffffffffffffffffffffff021916908373ffffffffffffffffffffffffffffffffffffffff1602179055508173ffffffffffffffffffffffffffffffffffffffff168173ffffffffffffffffffffffffffffffffffffffff167f8be0079c531659141344cd1fd0a4f28419497f9722a3daafe3b4186f6b6457e060405160405180910390a35050565b600080fd5b600073ffffffffffffffffffffffffffffffffffffffff82169050919050565b60006200020082620001d3565b9050919050565b6200021281620001f3565b81146200021e57600080fd5b50565b600081519050620002328162000207565b92915050565b6000819050919050565b6200024d8162000238565b81146200025957600080fd5b50565b6000815190506200026d8162000242565b92915050565b6000806000606084860312156200028f576200028e620001ce565b5b60006200029f8682870162000221565b9350506020620002b28682870162000221565b9250506040620002c5868287016200025c565b9150509250925092565b612b0380620002df6000396000f3fe608060405234801561001057600080fd5b506004361061011b576000357c010000000000000000000000000000000000000000000000000000000090048063715018a6116100b4578063d6ed99f011610083578063d6ed99f0146102a7578063d942fde7146102d7578063f2fde38b146102f5578063f91bd58c146103115761011b565b8063715018a61461023057806379a770351461023a5780638da5cb5b14610256578063a87430ba146102745761011b565b80632c4e722e116100f05780632c4e722e146101a85780632df687a0146101c657806334fcf437146101f657806359e2e1aa146102125761011b565b806202b6ac14610120578062a9dc101461013e57806318df7a8f1461015c5780632ad2b49b14610178575b600080fd5b61012861032f565b6040516101359190611dc7565b60405180910390f35b610146610355565b6040516101539190611dfb565b60405180910390f35b61017660048036038101906101719190611e6c565b610414565b005b610192600480360381019061018d9190611eac565b610aae565b60405161019f9190611dfb565b60405180910390f35b6101b0610bcb565b6040516101bd9190611dfb565b60405180910390f35b6101e060048036038101906101db9190611f17565b610bd1565b6040516101ed9190611dfb565b60405180910390f35b610210600480360381019061020b9190611f44565b610c92565b005b61021a610cdd565b6040516102279190611dfb565b60405180910390f35b610238610d9c565b005b610254600480360381019061024f9190611f44565b610db0565b005b61025e61148e565b60405161026b9190611f80565b60405180910390f35b61028e60048036038101906102899190611f17565b6114b7565b60405161029e9493929190612012565b60405180910390f35b6102c160048036038101906102bc9190611f17565b6114f4565b6040516102ce9190611dfb565b60405180910390f35b6102df6115b5565b6040516102ec9190611dfb565b60405180910390f35b61030f600480360381019061030a9190611f17565b6115c1565b005b610319611644565b6040516103269190612078565b60405180910390f35b600360009054906101000a900473ffffffffffffffffffffffffffffffffffffffff1681565b6000600360009054906101000a900473ffffffffffffffffffffffffffffffffffffffff1673ffffffffffffffffffffffffffffffffffffffff166370a08231336040518263ffffffff167c01000000000000000000000000000000000000000000000000000000000281526004016103ce9190611f80565b602060405180830381865afa1580156103eb573d6000803e3d6000fd5b505050506040513d601f19601f8201168201806040525081019061040f91906120a8565b905090565b61041c61166a565b60008290506000600454826104319190612133565b905060008203610476576040517f08c379a000000000000000000000000000000000000000000000000000000000815260040161046d906121c1565b60405180910390fd5b80600360009054906101000a900473ffffffffffffffffffffffffffffffffffffffff1673ffffffffffffffffffffffffffffffffffffffff166370a08231336040518263ffffffff167c01000000000000000000000000000000000000000000000000000000000281526004016104ee9190611f80565b602060405180830381865afa15801561050b573d6000803e3d6000fd5b505050506040513d601f19601f8201168201806040525081019061052f91906120a8565b1015610570576040517f08c379a00000000000000000000000000000000000000000000000000000000081526004016105679061222d565b60405180910390fd5b67016345785d8a00008110156105bb576040517f08c379a00000000000000000000000000000000000000000000000000000000081526004016105b290612299565b60405180910390fd5b600060038111156105cf576105ce611f9b565b5b8360038111156105e2576105e1611f9b565b5b14806106125750600160038111156105fd576105fc611f9b565b5b8360038111156106105761060f611f9b565b5b145b8061064157506002600381111561062c5761062b611f9b565b5b83600381111561063f5761063e611f9b565b5b145b8061066f575060038081111561065a57610659611f9b565b5b83600381111561066d5761066c611f9b565b5b145b6106ae576040517f08c379a00000000000000000000000000000000000000000000000000000000081526004016106a590612305565b60405180910390fd5b6106db600360009054906101000a900473ffffffffffffffffffffffffffffffffffffffff1633836116b9565b610709600360009054906101000a900473ffffffffffffffffffffffffffffffffffffffff16333084611803565b6000600260009054906101000a900473ffffffffffffffffffffffffffffffffffffffff1673ffffffffffffffffffffffffffffffffffffffff166370a08231306040518263ffffffff167c01000000000000000000000000000000000000000000000000000000000281526004016107829190611f80565b602060405180830381865afa15801561079f573d6000803e3d6000fd5b505050506040513d601f19601f820116820180604052508101906107c391906120a8565b90508281101561088457600260009054906101000a900473ffffffffffffffffffffffffffffffffffffffff1673ffffffffffffffffffffffffffffffffffffffff166340c10f193083866108189190612325565b6040518363ffffffff167c0100000000000000000000000000000000000000000000000000000000028152600401610851929190612359565b600060405180830381600087803b15801561086b57600080fd5b505af115801561087f573d6000803e3d6000fd5b505050505b6108b1600260009054906101000a900473ffffffffffffffffffffffffffffffffffffffff1633856118a8565b82600560003373ffffffffffffffffffffffffffffffffffffffff1673ffffffffffffffffffffffffffffffffffffffff16815260200190815260200160002060000160008282546109039190612382565b9250508190555042600560003373ffffffffffffffffffffffffffffffffffffffff1673ffffffffffffffffffffffffffffffffffffffff168152602001908152602001600020600201819055506000600560003373ffffffffffffffffffffffffffffffffffffffff1673ffffffffffffffffffffffffffffffffffffffff1681526020019081526020016000206001015403610a4d5742600560003373ffffffffffffffffffffffffffffffffffffffff1673ffffffffffffffffffffffffffffffffffffffff1681526020019081526020016000206001018190555083600560003373ffffffffffffffffffffffffffffffffffffffff1673ffffffffffffffffffffffffffffffffffffffff16815260200190815260200160002060030160006101000a81548160ff02191690836003811115610a4757610a46611f9b565b5b02179055505b3373ffffffffffffffffffffffffffffffffffffffff167fd7fcfbc59c6c3ef70dde86f47c947a51cdddd9a31197193ffcef9c130a6cf36d838587604051610a97939291906123b6565b60405180910390a2505050610aaa61194a565b5050565b6000806003811115610ac357610ac2611f9b565b5b826003811115610ad657610ad5611f9b565b5b03610ae457600a9050610bc6565b60016003811115610af857610af7611f9b565b5b826003811115610b0b57610b0a611f9b565b5b03610b1c5763096601809050610bc6565b60026003811115610b3057610b2f611f9b565b5b826003811115610b4357610b42611f9b565b5b03610b54576312cc03009050610bc6565b600380811115610b6757610b66611f9b565b5b826003811115610b7a57610b79611f9b565b5b03610b8b57631c3204809050610bc6565b6040517f08c379a0000000000000000000000000000000000000000000000000000000008152600401610bbd90612439565b60405180910390fd5b919050565b60045481565b6000600260009054906101000a900473ffffffffffffffffffffffffffffffffffffffff1673ffffffffffffffffffffffffffffffffffffffff166370a08231836040518263ffffffff167c0100000000000000000000000000000000000000000000000000000000028152600401610c4a9190611f80565b602060405180830381865afa158015610c67573d6000803e3d6000fd5b505050506040513d601f19601f82011682018060405250810190610c8b91906120a8565b9050919050565b610c9a611953565b806004819055507faaeb483bfbd8cfd510c2bf9558f92d3b588e733adf62f05e2e3de2486d13279d600454604051610cd29190611dfb565b60405180910390a150565b6000600260009054906101000a900473ffffffffffffffffffffffffffffffffffffffff1673ffffffffffffffffffffffffffffffffffffffff166370a08231336040518263ffffffff167c0100000000000000000000000000000000000000000000000000000000028152600401610d569190611f80565b602060405180830381865afa158015610d73573d6000803e3d6000fd5b505050506040513d601f19601f82011682018060405250810190610d9791906120a8565b905090565b610da4611953565b610dae60006119d1565b565b610db861166a565b60008111610dfb576040517f08c379a0000000000000000000000000000000000000000000000000000000008152600401610df2906124a5565b60405180910390fd5b80600560003373ffffffffffffffffffffffffffffffffffffffff1673ffffffffffffffffffffffffffffffffffffffff168152602001908152602001600020600001541015610e80576040517f08c379a0000000000000000000000000000000000000000000000000000000008152600401610e7790612511565b60405180910390fd5b6000819050600060045482610e959190612133565b9050610eef600560003373ffffffffffffffffffffffffffffffffffffffff1673ffffffffffffffffffffffffffffffffffffffff16815260200190815260200160002060030160009054906101000a900460ff16610aae565b600560003373ffffffffffffffffffffffffffffffffffffffff1673ffffffffffffffffffffffffffffffffffffffff16815260200190815260200160002060010154610f3c9190612382565b4211610fda5781600560003373ffffffffffffffffffffffffffffffffffffffff1673ffffffffffffffffffffffffffffffffffffffff16815260200190815260200160002060000154610f909190612325565b67016345785d8a000010610fd9576040517f08c379a0000000000000000000000000000000000000000000000000000000008152600401610fd0906125ef565b60405180910390fd5b5b81600560003373ffffffffffffffffffffffffffffffffffffffff1673ffffffffffffffffffffffffffffffffffffffff168152602001908152602001600020600001600082825461102c9190612325565b92505081905550611061600260009054906101000a900473ffffffffffffffffffffffffffffffffffffffff16333085611803565b600260009054906101000a900473ffffffffffffffffffffffffffffffffffffffff1673ffffffffffffffffffffffffffffffffffffffff166379cc679030846040518363ffffffff167c01000000000000000000000000000000000000000000000000000000000281526004016110da929190612359565b600060405180830381600087803b1580156110f457600080fd5b505af1158015611108573d6000803e3d6000fd5b505050506000600360009054906101000a900473ffffffffffffffffffffffffffffffffffffffff1673ffffffffffffffffffffffffffffffffffffffff166370a08231306040518263ffffffff167c01000000000000000000000000000000000000000000000000000000000281526004016111859190611f80565b602060405180830381865afa1580156111a2573d6000803e3d6000fd5b505050506040513d601f19601f820116820180604052508101906111c691906120a8565b90508181101561128757600360009054906101000a900473ffffffffffffffffffffffffffffffffffffffff1673ffffffffffffffffffffffffffffffffffffffff166340c10f1930838561121b9190612325565b6040518363ffffffff167c0100000000000000000000000000000000000000000000000000000000028152600401611254929190612359565b600060405180830381600087803b15801561126e57600080fd5b505af1158015611282573d6000803e3d6000fd5b505050505b6112b4600360009054906101000a900473ffffffffffffffffffffffffffffffffffffffff1633846118a8565b3373ffffffffffffffffffffffffffffffffffffffff167fc23438195fe8be4c5c988b4930db4ef2d076c730f8d560e220ea9105391f9d8b846040516112fa9190611dfb565b60405180910390a23373ffffffffffffffffffffffffffffffffffffffff167fb0ec936b489c141c9724e6e56d0f546de3da7fe870e87661d50edba5a4e4234a600560003373ffffffffffffffffffffffffffffffffffffffff1673ffffffffffffffffffffffffffffffffffffffff1681526020019081526020016000206000015460405161138a9190611dfb565b60405180910390a27f4bb6b05c6573b90c916ba0533b3b5330a9c169e12b2346c5815c09a0d07b6bfa600260009054906101000a900473ffffffffffffffffffffffffffffffffffffffff1673ffffffffffffffffffffffffffffffffffffffff166370a08231306040518263ffffffff167c010000000000000000000000000000000000000000000000000000000002815260040161142a9190611f80565b602060405180830381865afa158015611447573d6000803e3d6000fd5b505050506040513d601f19601f8201168201806040525081019061146b91906120a8565b6040516114789190611dfb565b60405180910390a150505061148b61194a565b50565b60008060009054906101000a900473ffffffffffffffffffffffffffffffffffffffff16905090565b60056020528060005260406000206000915090508060000154908060010154908060020154908060030160009054906101000a900460ff16905084565b6000600360009054906101000a900473ffffffffffffffffffffffffffffffffffffffff1673ffffffffffffffffffffffffffffffffffffffff166370a08231836040518263ffffffff167c010000000000000000000000000000000000000000000000000000000002815260040161156d9190611f80565b602060405180830381865afa15801561158a573d6000803e3d6000fd5b505050506040513d601f19601f820116820180604052508101906115ae91906120a8565b9050919050565b67016345785d8a000081565b6115c9611953565b600073ffffffffffffffffffffffffffffffffffffffff168173ffffffffffffffffffffffffffffffffffffffff1603611638576040517f08c379a000000000000000000000000000000000000000000000000000000000815260040161162f90612681565b60405180910390fd5b611641816119d1565b50565b600260009054906101000a900473ffffffffffffffffffffffffffffffffffffffff1681565b6002600154036116af576040517f08c379a00000000000000000000000000000000000000000000000000000000081526004016116a6906126ed565b60405180910390fd5b6002600181905550565b6000818473ffffffffffffffffffffffffffffffffffffffff1663dd62ed3e30866040518363ffffffff167c010000000000000000000000000000000000000000000000000000000002815260040161171392919061270d565b602060405180830381865afa158015611730573d6000803e3d6000fd5b505050506040513d601f19601f8201168201806040525081019061175491906120a8565b61175e9190612382565b90506117fd8463095ea7b37c010000000000000000000000000000000000000000000000000000000002858460405160240161179b929190612359565b604051602081830303815290604052907bffffffffffffffffffffffffffffffffffffffffffffffffffffffff19166020820180517bffffffffffffffffffffffffffffffffffffffffffffffffffffffff8381831617835250505050611a95565b50505050565b6118a2846323b872dd7c01000000000000000000000000000000000000000000000000000000000285858560405160240161184093929190612736565b604051602081830303815290604052907bffffffffffffffffffffffffffffffffffffffffffffffffffffffff19166020820180517bffffffffffffffffffffffffffffffffffffffffffffffffffffffff8381831617835250505050611a95565b50505050565b6119458363a9059cbb7c01000000000000000000000000000000000000000000000000000000000284846040516024016118e3929190612359565b604051602081830303815290604052907bffffffffffffffffffffffffffffffffffffffffffffffffffffffff19166020820180517bffffffffffffffffffffffffffffffffffffffffffffffffffffffff8381831617835250505050611a95565b505050565b60018081905550565b61195b611b5c565b73ffffffffffffffffffffffffffffffffffffffff1661197961148e565b73ffffffffffffffffffffffffffffffffffffffff16146119cf576040517f08c379a00000000000000000000000000000000000000000000000000000000081526004016119c6906127b9565b60405180910390fd5b565b60008060009054906101000a900473ffffffffffffffffffffffffffffffffffffffff169050816000806101000a81548173ffffffffffffffffffffffffffffffffffffffff021916908373ffffffffffffffffffffffffffffffffffffffff1602179055508173ffffffffffffffffffffffffffffffffffffffff168173ffffffffffffffffffffffffffffffffffffffff167f8be0079c531659141344cd1fd0a4f28419497f9722a3daafe3b4186f6b6457e060405160405180910390a35050565b6000611af7826040518060400160405280602081526020017f5361666545524332303a206c6f772d6c6576656c2063616c6c206661696c65648152508573ffffffffffffffffffffffffffffffffffffffff16611b649092919063ffffffff16565b9050600081511115611b575780806020019051810190611b179190612811565b611b56576040517f08c379a0000000000000000000000000000000000000000000000000000000008152600401611b4d906128b0565b60405180910390fd5b5b505050565b600033905090565b6060611b738484600085611b7c565b90509392505050565b6060823073ffffffffffffffffffffffffffffffffffffffff16311015611bd8576040517f08c379a0000000000000000000000000000000000000000000000000000000008152600401611bcf90612942565b60405180910390fd5b6000808673ffffffffffffffffffffffffffffffffffffffff168587604051611c0191906129d3565b60006040518083038185875af1925050503d8060008114611c3e576040519150601f19603f3d011682016040523d82523d6000602084013e611c43565b606091505b5091509150611c5487838387611c60565b92505050949350505050565b60608315611cc2576000835103611cba57611c7a85611cd5565b611cb9576040517f08c379a0000000000000000000000000000000000000000000000000000000008152600401611cb090612a36565b60405180910390fd5b5b829050611ccd565b611ccc8383611cf8565b5b949350505050565b6000808273ffffffffffffffffffffffffffffffffffffffff163b119050919050565b600082511115611d0b5781518083602001fd5b806040517f08c379a0000000000000000000000000000000000000000000000000000000008152600401611d3f9190612aab565b60405180910390fd5b600073ffffffffffffffffffffffffffffffffffffffff82169050919050565b6000819050919050565b6000611d8d611d88611d8384611d48565b611d68565b611d48565b9050919050565b6000611d9f82611d72565b9050919050565b6000611db182611d94565b9050919050565b611dc181611da6565b82525050565b6000602082019050611ddc6000830184611db8565b92915050565b6000819050919050565b611df581611de2565b82525050565b6000602082019050611e106000830184611dec565b92915050565b600080fd5b611e2481611de2565b8114611e2f57600080fd5b50565b600081359050611e4181611e1b565b92915050565b60048110611e5457600080fd5b50565b600081359050611e6681611e47565b92915050565b60008060408385031215611e8357611e82611e16565b5b6000611e9185828601611e32565b9250506020611ea285828601611e57565b9150509250929050565b600060208284031215611ec257611ec1611e16565b5b6000611ed084828501611e57565b91505092915050565b6000611ee482611d48565b9050919050565b611ef481611ed9565b8114611eff57600080fd5b50565b600081359050611f1181611eeb565b92915050565b600060208284031215611f2d57611f2c611e16565b5b6000611f3b84828501611f02565b91505092915050565b600060208284031215611f5a57611f59611e16565b5b6000611f6884828501611e32565b91505092915050565b611f7a81611ed9565b82525050565b6000602082019050611f956000830184611f71565b92915050565b7f4e487b7100000000000000000000000000000000000000000000000000000000600052602160045260246000fd5b60048110611fdb57611fda611f9b565b5b50565b6000819050611fec82611fca565b919050565b6000611ffc82611fde565b9050919050565b61200c81611ff1565b82525050565b60006080820190506120276000830187611dec565b6120346020830186611dec565b6120416040830185611dec565b61204e6060830184612003565b95945050505050565b600061206282611d94565b9050919050565b61207281612057565b82525050565b600060208201905061208d6000830184612069565b92915050565b6000815190506120a281611e1b565b92915050565b6000602082840312156120be576120bd611e16565b5b60006120cc84828501612093565b91505092915050565b7f4e487b7100000000000000000000000000000000000000000000000000000000600052601260045260246000fd5b7f4e487b7100000000000000000000000000000000000000000000000000000000600052601160045260246000fd5b600061213e82611de2565b915061214983611de2565b925082612159576121586120d5565b5b828204905092915050565b600082825260208201905092915050565b7f43616e206e6f7420627579203020416b6b546f6b656e20000000000000000000600082015250565b60006121ab601783612164565b91506121b682612175565b602082019050919050565b600060208201905081810360008301526121da8161219e565b9050919050565b7f4e6f7420656e6f756768204361736820546f6b656e0000000000000000000000600082015250565b6000612217601583612164565b9150612222826121e1565b602082019050919050565b600060208201905081810360008301526122468161220a565b9050919050565b7f416d6f756e7420746f6f206c6f77000000000000000000000000000000000000600082015250565b6000612283600e83612164565b915061228e8261224d565b602082019050919050565b600060208201905081810360008301526122b281612276565b9050919050565b7f496e76616c6964206475726174696f6e00000000000000000000000000000000600082015250565b60006122ef601083612164565b91506122fa826122b9565b602082019050919050565b6000602082019050818103600083015261231e816122e2565b9050919050565b600061233082611de2565b915061233b83611de2565b925082820390508181111561235357612352612104565b5b92915050565b600060408201905061236e6000830185611f71565b61237b6020830184611dec565b9392505050565b600061238d82611de2565b915061239883611de2565b92508282019050808211156123b0576123af612104565b5b92915050565b60006060820190506123cb6000830186611dec565b6123d86020830185611dec565b6123e56040830184612003565b949350505050565b7f4e4f2056414c4944204455524154494f4e000000000000000000000000000000600082015250565b6000612423601183612164565b915061242e826123ed565b602082019050919050565b6000602082019050818103600083015261245281612416565b9050919050565b7f416d6f756e74206d7573742062652067726561746572207468616e2030000000600082015250565b600061248f601d83612164565b915061249a82612459565b602082019050919050565b600060208201905081810360008301526124be81612482565b9050919050565b7f496e73756666696369656e742062616c616e6365000000000000000000000000600082015250565b60006124fb601483612164565b9150612506826124c5565b602082019050919050565b6000602082019050818103600083015261252a816124ee565b9050919050565b7f204e6f6e2070756f69207072656c6576657265207475747469206920746f6b6560008201527f6e2c206d61206465766920314554482066696e6f20616c6c612066696e65206460208201527f656c6c61206475726174612064656c207069616e6f20646920616363756d756c60408201527f6f00000000000000000000000000000000000000000000000000000000000000606082015250565b60006125d9606183612164565b91506125e482612531565b608082019050919050565b60006020820190508181036000830152612608816125cc565b9050919050565b7f4f776e61626c653a206e6577206f776e657220697320746865207a65726f206160008201527f6464726573730000000000000000000000000000000000000000000000000000602082015250565b600061266b602683612164565b91506126768261260f565b604082019050919050565b6000602082019050818103600083015261269a8161265e565b9050919050565b7f5265656e7472616e637947756172643a207265656e7472616e742063616c6c00600082015250565b60006126d7601f83612164565b91506126e2826126a1565b602082019050919050565b60006020820190508181036000830152612706816126ca565b9050919050565b60006040820190506127226000830185611f71565b61272f6020830184611f71565b9392505050565b600060608201905061274b6000830186611f71565b6127586020830185611f71565b6127656040830184611dec565b949350505050565b7f4f776e61626c653a2063616c6c6572206973206e6f7420746865206f776e6572600082015250565b60006127a3602083612164565b91506127ae8261276d565b602082019050919050565b600060208201905081810360008301526127d281612796565b9050919050565b60008115159050919050565b6127ee816127d9565b81146127f957600080fd5b50565b60008151905061280b816127e5565b92915050565b60006020828403121561282757612826611e16565b5b6000612835848285016127fc565b91505092915050565b7f5361666545524332303a204552433230206f7065726174696f6e20646964206e60008201527f6f74207375636365656400000000000000000000000000000000000000000000602082015250565b600061289a602a83612164565b91506128a58261283e565b604082019050919050565b600060208201905081810360008301526128c98161288d565b9050919050565b7f416464726573733a20696e73756666696369656e742062616c616e636520666f60008201527f722063616c6c0000000000000000000000000000000000000000000000000000602082015250565b600061292c602683612164565b9150612937826128d0565b604082019050919050565b6000602082019050818103600083015261295b8161291f565b9050919050565b600081519050919050565b600081905092915050565b60005b8381101561299657808201518184015260208101905061297b565b60008484015250505050565b60006129ad82612962565b6129b7818561296d565b93506129c7818560208601612978565b80840191505092915050565b60006129df82846129a2565b915081905092915050565b7f416464726573733a2063616c6c20746f206e6f6e2d636f6e7472616374000000600082015250565b6000612a20601d83612164565b9150612a2b826129ea565b602082019050919050565b60006020820190508181036000830152612a4f81612a13565b9050919050565b600081519050919050565b6000601f19601f8301169050919050565b6000612a7d82612a56565b612a878185612164565b9350612a97818560208601612978565b612aa081612a61565b840191505092915050565b60006020820190508181036000830152612ac58184612a72565b90509291505056fea2646970667358221220f46f697663d053d4104abbfced3994a01e0950bcce6803dbe8778589b326ed8f64736f6c63430008140033",
  "immutableReferences": {},
  "source": "// SPDX-License-Identifier: MIT\npragma solidity ^0.8.20;\n\nimport \"@openzeppelin/contracts/access/Ownable.sol\";\nimport \"@openzeppelin/contracts/security/ReentrancyGuard.sol\";\nimport \"@openzeppelin/contracts/token/ERC20/utils/SafeERC20.sol\";\nimport \"./IMintableToken.sol\";\nimport \"./USDTCash.sol\";\nimport \"./AkToken.sol\";\n\ncontract StrategyTwo is Ownable, ReentrancyGuard {\n    using SafeERC20 for USDTCash;\n    using SafeERC20 for IERC20;\n\n    IMintableToken public akkToken;\n    USDTCash public usdtCash;\n    uint256 public rate; // Tasso di conversione USDTCash/AkToken\n\n    uint256 public constant MIN_CASH_TOKEN_AMOUNT = 0.1e18; // Quantit minima di Cash Token richiesta per l'acquisto di AkToken\n\n    //tenere traccia del saldo dell'utente e dell'ultima volta che ha depositato\n    struct User {\n        uint256 balance;\n        uint256 firstDepositTime;\n        uint256 lastDepositTime;\n        AccumulationDuration duration; // Durata del piano di accumulo (in secondi)\n        \n    }\n\n    enum AccumulationDuration {\n        DEV, // Durata di 10 secondi per il test dello sviluppatore\n        FIVE_YEARS, // Durata di 5 anni\n        TEN_YEARS, // Durata di 10 anni\n        FIFTEEN_YEARS // Durata di 15 anni\n    }\n\n    mapping(address => User) public users; // Mapping degli utenti\n\n \n\n    // Dichiarazione degli eventi per notificare le azioni eseguite dal contratto\n    event AkkTokenBought(\n        address indexed user,\n        uint256 cashTokenAmount,\n        uint256 akkTokenAmount,\n        AccumulationDuration duration\n\n    );\n    event CashTokenWithdrawn(address indexed user, uint256 cashTokenAmount);\n    event RateSet(uint256 rate);\n    event AkkTokenWithdrawn(address indexed user, uint256 akkTokenAmount);\n    event AddedToWhitelist(address indexed user);\n    event AkkTokenBalanceUpdated(address indexed user, uint256 amount);\n    event AkkTokenRemaining(uint256 amount);\n    event debug(address add,uint256 amm);\n\n    // Dichiarazione del costruttore per inizializzare le variabili di stato\n    constructor(address _akkToken, address _usdtCash, uint256 _rate) {\n        akkToken = IMintableToken(_akkToken);\n        usdtCash = USDTCash(_usdtCash);\n        rate = _rate;\n    }\n    function calculateDuration(AccumulationDuration _duration) public pure returns (uint256){\n        if(_duration == AccumulationDuration.DEV){\n            return 10;\n        }else if(_duration == AccumulationDuration.FIVE_YEARS){\n            return 60*60*24*365*5;\n        }else if(_duration == AccumulationDuration.TEN_YEARS){\n            return 60*60*24*365*10;\n        }else if(_duration == AccumulationDuration.FIFTEEN_YEARS){\n            return 60*60*24*365*15;\n        }else{\n            //require(false, \"NO VALID DURATION\");\n            revert(\"NO VALID DURATION\");\n        }\n    }\n    function buyAkkToken(\n        uint256 _amount, // akktoken\n        AccumulationDuration _duration\n    ) external nonReentrant {\n        uint256 akkTokenAmount = _amount;\n        //                     10    / 5   => 2\n        uint256 usdtCashAmount = akkTokenAmount / rate;\n        require(akkTokenAmount != 0, \"Can not buy 0 AkkToken \");\n        require(\n            usdtCash.balanceOf(msg.sender) >= usdtCashAmount,\n            \"Not enough Cash Token\"\n        );\n\n        require(usdtCashAmount >= MIN_CASH_TOKEN_AMOUNT, \"Amount too low\");\n        require(\n            _duration == AccumulationDuration.DEV ||\n                _duration == AccumulationDuration.FIVE_YEARS ||\n                _duration == AccumulationDuration.TEN_YEARS ||\n                _duration == AccumulationDuration.FIFTEEN_YEARS,\n            \"Invalid duration\"\n        );\n\n       \n\n        // Approva l'importo per il trasferimento dei cash token\n        SafeERC20.safeIncreaseAllowance(usdtCash, msg.sender, usdtCashAmount); /// fino a qua\n\n\n        // contratto riceve tot cash contispondente al rate toke/ cash\n        SafeERC20.safeTransferFrom(\n            usdtCash,\n            msg.sender,\n            address(this),\n            usdtCashAmount\n        );\n\n        // Verifica se ci sono abbastanza akkToken e minta se necessario\n        uint256 balance = akkToken.balanceOf(address(this));\n        if (balance < akkTokenAmount) {\n            akkToken.mint(address(this), akkTokenAmount - balance);\n        }\n\n        SafeERC20.safeTransfer(akkToken, msg.sender, akkTokenAmount);\n\n        // Aggiornamento del saldo dell'utente, dell'ultima volta che ha depositato e della durata del piano di accumulo\n        // comprare multiple volte consecutive\n        users[msg.sender].balance += akkTokenAmount;\n        users[msg.sender].lastDepositTime = block.timestamp;\n\n        if (users[msg.sender].firstDepositTime == 0) {\n            // il primo deposito\n            users[msg.sender].firstDepositTime = block.timestamp;\n            users[msg.sender].duration = _duration;\n        }\n\n        // Emissione dell'evento AkkTokenBought per notificare l'acquisto di Akk Token da parte dell'utente\n        emit AkkTokenBought(msg.sender, usdtCashAmount, akkTokenAmount, _duration);\n    }\n\n    // Metodo che consente all'owner di impostare il tasso di conversione USDTCash/AkToken\n    function setRate(uint256 _rate) external onlyOwner {\n        rate = _rate;\n\n        // Emissione dell'evento RateSet per notificare l'aggiornamento del tasso di conversione\n        emit RateSet(rate);\n    }\n\n    // Metodo che consente all'owner di ritirare gli Akk Token accumulati dal contratto\n    function withdrawAkkToken(uint256 _amount) external nonReentrant {\n        require(_amount > 0, \"Amount must be greater than 0\");\n        require(users[msg.sender].balance >= _amount, \"Insufficient balance\");\n        uint256 akkTokenAmount = _amount;\n        //                               20    / 5  => 4\n        uint256 usdtCashAmount = akkTokenAmount / rate;\n        //  35                                    30                        10\n        if (block.timestamp <= (users[msg.sender].firstDepositTime +  calculateDuration(users[msg.sender].duration))){\n            // true ergo la duration non e finita\n            //             100                      1           => 99 >    50\n            require( MIN_CASH_TOKEN_AMOUNT < (users[msg.sender].balance - akkTokenAmount)  ,\" Non puoi prelevere tutti i token, ma devi 1ETH fino alla fine della durata del piano di accumulo\");\n        }\n        users[msg.sender].balance -= akkTokenAmount;\n\n        // Trasferisce la quantit di akkToken user => StrategyTwo\n        // lato cliente approvazione di akktoken.approve(strategy.address,akktoken,account)\n        SafeERC20.safeTransferFrom(\n            akkToken,\n            msg.sender,\n            address(this),\n            akkTokenAmount\n        );\n\n        // Brucia gli AkToken ricevuti dall'utente\n        akkToken.burnFrom(address(this), akkTokenAmount);\n\n        // Mint usdtCash se non sufficiente disponibile;\n        uint256 balance = usdtCash.balanceOf(address(this));\n        if (balance < usdtCashAmount) {\n            usdtCash.mint(address(this), usdtCashAmount - balance);\n        }\n\n        // Trasferisci l'importo totale all'utente;\n        SafeERC20.safeTransfer(usdtCash, msg.sender, usdtCashAmount);\n\n        // Emissione dell'evento AkkTokenWithdrawn per notificare il prelievo degli Akk Token da parte dell'utente\n        emit AkkTokenWithdrawn(msg.sender, akkTokenAmount);\n\n        // Emissione dell'evento AkkTokenBalanceUpdated per notificare il saldo di AkToken rimanente per l'utente\n        emit AkkTokenBalanceUpdated(msg.sender, users[msg.sender].balance);\n\n        // Emissione dell'evento AkkTokenRemaining per notificare il saldo di AkToken rimanente all'interno del contratto StrategyTwo\n        emit AkkTokenRemaining(akkToken.balanceOf(address(this)));\n    }\n    function getUSDTCashTokenBalance() public view returns (uint256) {\n        // restituisce il saldo dei Usdt dell'utente\n        return usdtCash.balanceOf(msg.sender);\n    }\n\n    \n   \n     function getMyAkTokenBalanceUser() public view returns (uint256 _amount) {\n        // restituisce il saldo dei AkToken dell'utente\n        //emit debug(msg.sender,akkToken.balanceOf(msg.sender));\n        return akkToken.balanceOf(msg.sender);\n    }\n    \n   function getBalanceAkTokenStTwo(\n        address ContractAddress\n    ) public view returns (uint256 _amount) {\n        return akkToken.balanceOf(ContractAddress); \n    }\n\n    function getUSDTBalanceStTwo(\n        address ContractAddress\n    ) public view returns (uint256 _amount) {\n        return usdtCash.balanceOf(ContractAddress); \n    }\n\n    //function getAkTokenBalanceUser() public view returns (uint256 _amount) {\n    //    return users[msg.sender].balance; \n   // }\n}\n\n// second Strategy",
  "sourcePath": "/Volumes/One Touch/ProjectCourseBcod/Strategy/contracts/StrategyTwo.sol",
  "compiler": {
    "name": "solc",
    "version": "0.8.20+commit.a1b79de6.Emscripten.clang"
  },
  "schemaVersion": "3.4.13",
  "updatedAt": "2023-05-18T17:48:16.156Z",
  "networkType": "ethereum",
  "devdoc": {
    "kind": "dev",
    "methods": {
      "owner()": {
        "details": "Returns the address of the current owner."
      },
      "renounceOwnership()": {
        "details": "Leaves the contract without owner. It will not be possible to call `onlyOwner` functions anymore. Can only be called by the current owner. NOTE: Renouncing ownership will leave the contract without an owner, thereby removing any functionality that is only available to the owner."
      },
      "transferOwnership(address)": {
        "details": "Transfers ownership of the contract to a new account (`newOwner`). Can only be called by the current owner."
      }
    },
    "version": 1
  },
  "userdoc": {
    "kind": "user",
    "methods": {},
    "version": 1
  }
}