{
  "contractName": "StrategyOne",
  "abi": [
    {
      "inputs": [
        {
          "internalType": "contract IMintableToken",
          "name": "_coupon",
          "type": "address"
        },
        {
          "internalType": "contract IMintableToken",
          "name": "_cashToken",
          "type": "address"
        }
      ],
      "stateMutability": "nonpayable",
      "type": "constructor"
    },
    {
      "anonymous": false,
      "inputs": [
        {
          "indexed": true,
          "internalType": "address",
          "name": "user",
          "type": "address"
        }
      ],
      "name": "AddedToWhitelist",
      "type": "event"
    },
    {
      "anonymous": false,
      "inputs": [
        {
          "indexed": true,
          "internalType": "address",
          "name": "user",
          "type": "address"
        },
        {
          "indexed": false,
          "internalType": "uint256",
          "name": "amount",
          "type": "uint256"
        }
      ],
      "name": "CouponIssued",
      "type": "event"
    },
    {
      "anonymous": false,
      "inputs": [
        {
          "indexed": true,
          "internalType": "address",
          "name": "previousOwner",
          "type": "address"
        },
        {
          "indexed": true,
          "internalType": "address",
          "name": "newOwner",
          "type": "address"
        }
      ],
      "name": "OwnershipTransferred",
      "type": "event"
    },
    {
      "anonymous": false,
      "inputs": [
        {
          "indexed": false,
          "internalType": "uint256",
          "name": "newRate",
          "type": "uint256"
        }
      ],
      "name": "RewardRateChanged",
      "type": "event"
    },
    {
      "anonymous": false,
      "inputs": [
        {
          "indexed": false,
          "internalType": "uint256",
          "name": "amount",
          "type": "uint256"
        }
      ],
      "name": "RewardReleased",
      "type": "event"
    },
    {
      "anonymous": false,
      "inputs": [
        {
          "indexed": true,
          "internalType": "address",
          "name": "user",
          "type": "address"
        },
        {
          "indexed": false,
          "internalType": "uint256",
          "name": "amount",
          "type": "uint256"
        }
      ],
      "name": "Staked",
      "type": "event"
    },
    {
      "anonymous": false,
      "inputs": [
        {
          "indexed": true,
          "internalType": "address",
          "name": "user",
          "type": "address"
        },
        {
          "indexed": false,
          "internalType": "uint256",
          "name": "amount",
          "type": "uint256"
        },
        {
          "indexed": false,
          "internalType": "uint256",
          "name": "reward",
          "type": "uint256"
        }
      ],
      "name": "UnStaked",
      "type": "event"
    },
    {
      "inputs": [],
      "name": "cashToken",
      "outputs": [
        {
          "internalType": "contract IMintableToken",
          "name": "",
          "type": "address"
        }
      ],
      "stateMutability": "view",
      "type": "function",
      "constant": true
    },
    {
      "inputs": [],
      "name": "owner",
      "outputs": [
        {
          "internalType": "address",
          "name": "",
          "type": "address"
        }
      ],
      "stateMutability": "view",
      "type": "function",
      "constant": true
    },
    {
      "inputs": [],
      "name": "renounceOwnership",
      "outputs": [],
      "stateMutability": "nonpayable",
      "type": "function"
    },
    {
      "inputs": [
        {
          "internalType": "address",
          "name": "",
          "type": "address"
        }
      ],
      "name": "stakingData",
      "outputs": [
        {
          "internalType": "uint256",
          "name": "amount",
          "type": "uint256"
        },
        {
          "internalType": "uint256",
          "name": "startStake",
          "type": "uint256"
        },
        {
          "internalType": "uint256",
          "name": "endStake",
          "type": "uint256"
        },
        {
          "internalType": "uint256",
          "name": "interestRate",
          "type": "uint256"
        },
        {
          "internalType": "uint256",
          "name": "duration",
          "type": "uint256"
        },
        {
          "internalType": "bool",
          "name": "isCouponIssued",
          "type": "bool"
        }
      ],
      "stateMutability": "view",
      "type": "function",
      "constant": true
    },
    {
      "inputs": [
        {
          "internalType": "address",
          "name": "newOwner",
          "type": "address"
        }
      ],
      "name": "transferOwnership",
      "outputs": [],
      "stateMutability": "nonpayable",
      "type": "function"
    },
    {
      "inputs": [
        {
          "internalType": "address",
          "name": "",
          "type": "address"
        }
      ],
      "name": "whitelist",
      "outputs": [
        {
          "internalType": "bool",
          "name": "",
          "type": "bool"
        }
      ],
      "stateMutability": "view",
      "type": "function",
      "constant": true
    },
    {
      "inputs": [
        {
          "components": [
            {
              "internalType": "uint256",
              "name": "amount",
              "type": "uint256"
            },
            {
              "internalType": "uint256",
              "name": "startStake",
              "type": "uint256"
            },
            {
              "internalType": "uint256",
              "name": "endStake",
              "type": "uint256"
            },
            {
              "internalType": "uint256",
              "name": "interestRate",
              "type": "uint256"
            },
            {
              "internalType": "uint256",
              "name": "duration",
              "type": "uint256"
            },
            {
              "internalType": "bool",
              "name": "isCouponIssued",
              "type": "bool"
            }
          ],
          "internalType": "struct StrategyOne.StakingData",
          "name": "_details",
          "type": "tuple"
        }
      ],
      "name": "updateStakingData",
      "outputs": [],
      "stateMutability": "nonpayable",
      "type": "function"
    },
    {
      "inputs": [
        {
          "internalType": "uint256",
          "name": "_amount",
          "type": "uint256"
        },
        {
          "internalType": "enum StrategyOne.StakeDuration",
          "name": "_duration",
          "type": "uint8"
        }
      ],
      "name": "stake",
      "outputs": [],
      "stateMutability": "nonpayable",
      "type": "function"
    },
    {
      "inputs": [
        {
          "internalType": "address",
          "name": "_user",
          "type": "address"
        }
      ],
      "name": "hasStakedTokens",
      "outputs": [
        {
          "internalType": "bool",
          "name": "",
          "type": "bool"
        }
      ],
      "stateMutability": "view",
      "type": "function",
      "constant": true
    },
    {
      "inputs": [],
      "name": "unstake",
      "outputs": [],
      "stateMutability": "nonpayable",
      "type": "function"
    },
    {
      "inputs": [
        {
          "internalType": "address",
          "name": "_user",
          "type": "address"
        }
      ],
      "name": "getTotalBalanceWithRewards",
      "outputs": [
        {
          "internalType": "uint256",
          "name": "",
          "type": "uint256"
        }
      ],
      "stateMutability": "view",
      "type": "function",
      "constant": true
    },
    {
      "inputs": [
        {
          "internalType": "address",
          "name": "_user",
          "type": "address"
        }
      ],
      "name": "getStakingDataAmount",
      "outputs": [
        {
          "internalType": "uint256",
          "name": "",
          "type": "uint256"
        }
      ],
      "stateMutability": "view",
      "type": "function",
      "constant": true
    },
    {
      "inputs": [],
      "name": "CouponAddress",
      "outputs": [
        {
          "internalType": "address",
          "name": "",
          "type": "address"
        }
      ],
      "stateMutability": "view",
      "type": "function",
      "constant": true
    },
    {
      "inputs": [],
      "name": "CashTokenAddress",
      "outputs": [
        {
          "internalType": "address",
          "name": "",
          "type": "address"
        }
      ],
      "stateMutability": "view",
      "type": "function",
      "constant": true
    },
    {
      "inputs": [
        {
          "internalType": "address",
          "name": "_user",
          "type": "address"
        }
      ],
      "name": "CashTokenBalanceUser",
      "outputs": [
        {
          "internalType": "uint256",
          "name": "",
          "type": "uint256"
        }
      ],
      "stateMutability": "view",
      "type": "function",
      "constant": true
    },
    {
      "inputs": [
        {
          "internalType": "address",
          "name": "_user",
          "type": "address"
        }
      ],
      "name": "CouponBalanceUser",
      "outputs": [
        {
          "internalType": "uint256",
          "name": "",
          "type": "uint256"
        }
      ],
      "stateMutability": "view",
      "type": "function",
      "constant": true
    },
    {
      "inputs": [],
      "name": "CouponBalanceContract",
      "outputs": [
        {
          "internalType": "uint256",
          "name": "",
          "type": "uint256"
        }
      ],
      "stateMutability": "view",
      "type": "function",
      "constant": true
    },
    {
      "inputs": [
        {
          "internalType": "address",
          "name": "ContractAddress",
          "type": "address"
        }
      ],
      "name": "getBalanceCashToken",
      "outputs": [
        {
          "internalType": "uint256",
          "name": "_amount",
          "type": "uint256"
        }
      ],
      "stateMutability": "view",
      "type": "function",
      "constant": true
    },
    {
      "inputs": [],
      "name": "getOwner",
      "outputs": [
        {
          "internalType": "address",
          "name": "",
          "type": "address"
        }
      ],
      "stateMutability": "view",
      "type": "function",
      "constant": true
    },
    {
      "inputs": [
        {
          "internalType": "address",
          "name": "ContractAddress",
          "type": "address"
        }
      ],
      "name": "getReward",
      "outputs": [
        {
          "internalType": "uint256",
          "name": "_amount",
          "type": "uint256"
        }
      ],
      "stateMutability": "view",
      "type": "function",
      "constant": true
    },
    {
      "inputs": [
        {
          "internalType": "address",
          "name": "ContractAddress",
          "type": "address"
        }
      ],
      "name": "getStakingBalance",
      "outputs": [
        {
          "internalType": "uint256",
          "name": "_amount",
          "type": "uint256"
        }
      ],
      "stateMutability": "view",
      "type": "function",
      "constant": true
    },
    {
      "inputs": [
        {
          "internalType": "address",
          "name": "ContractAddress",
          "type": "address"
        }
      ],
      "name": "getBalanceCoupon",
      "outputs": [
        {
          "internalType": "uint256",
          "name": "_amount",
          "type": "uint256"
        }
      ],
      "stateMutability": "view",
      "type": "function",
      "constant": true
    },
    {
      "inputs": [
        {
          "internalType": "address",
          "name": "ContractAddress",
          "type": "address"
        }
      ],
      "name": "getCashTokenBalance",
      "outputs": [
        {
          "internalType": "uint256",
          "name": "_amount",
          "type": "uint256"
        }
      ],
      "stateMutability": "view",
      "type": "function",
      "constant": true
    },
    {
      "inputs": [],
      "name": "getCashTokenBalance",
      "outputs": [
        {
          "internalType": "uint256",
          "name": "",
          "type": "uint256"
        }
      ],
      "stateMutability": "view",
      "type": "function",
      "constant": true
    },
    {
      "inputs": [],
      "name": "getCouponBalanceUser",
      "outputs": [
        {
          "internalType": "uint256",
          "name": "",
          "type": "uint256"
        }
      ],
      "stateMutability": "view",
      "type": "function",
      "constant": true
    }
  ],
  "bytecode": "0x60806040523480156200001157600080fd5b506040516200359438038062003594833981810160405281019062000037919062000247565b6001600081905550620000716200005c620000fb640100000000026401000000009004565b62000103640100000000026401000000009004565b81600260006101000a81548173ffffffffffffffffffffffffffffffffffffffff021916908373ffffffffffffffffffffffffffffffffffffffff16021790555080600360006101000a81548173ffffffffffffffffffffffffffffffffffffffff021916908373ffffffffffffffffffffffffffffffffffffffff16021790555050506200028e565b600033905090565b6000600160009054906101000a900473ffffffffffffffffffffffffffffffffffffffff16905081600160006101000a81548173ffffffffffffffffffffffffffffffffffffffff021916908373ffffffffffffffffffffffffffffffffffffffff1602179055508173ffffffffffffffffffffffffffffffffffffffff168173ffffffffffffffffffffffffffffffffffffffff167f8be0079c531659141344cd1fd0a4f28419497f9722a3daafe3b4186f6b6457e060405160405180910390a35050565b600080fd5b600073ffffffffffffffffffffffffffffffffffffffff82169050919050565b6000620001fb82620001ce565b9050919050565b60006200020f82620001ee565b9050919050565b620002218162000202565b81146200022d57600080fd5b50565b600081519050620002418162000216565b92915050565b60008060408385031215620002615762000260620001c9565b5b6000620002718582860162000230565b9250506020620002848582860162000230565b9150509250929050565b6132f6806200029e6000396000f3fe608060405234801561001057600080fd5b5060043610610190576000357c010000000000000000000000000000000000000000000000000000000090048063715018a6116100fb5780639b19251a116100b4578063c00007b01161008e578063c00007b014610481578063cd536d98146104b1578063eca51139146104e1578063f2fde38b1461051657610190565b80639b19251a14610403578063a722468714610433578063b04ef9c21461045157610190565b8063715018a61461033f578063752bb33014610349578063784c2b3c14610367578063893d20e8146103975780638ce5597e146103b55780638da5cb5b146103e557610190565b80632def66201161014d5780632def66201461026957806334b3b5301461027357806349576b001461029157806352a4e037146102af5780635f5724c1146102df5780636328f6291461030f57610190565b806301199de51461019557806301c44b35146101c557806310087fb1146101f5578063111f8470146102115780631b7a461e1461022d578063216578711461024b575b600080fd5b6101af60048036038101906101aa91906124ec565b610532565b6040516101bc9190612532565b60405180910390f35b6101df60048036038101906101da91906124ec565b6105f3565b6040516101ec9190612532565b60405180910390f35b61020f600480360381019061020a919061259e565b61063f565b005b61022b60048036038101906102269190612747565b610daf565b005b610235610e0a565b6040516102429190612532565b60405180910390f35b610253610ec9565b6040516102609190612783565b60405180910390f35b610271610ef3565b005b61027b6114e9565b6040516102889190612532565b60405180910390f35b6102996115a8565b6040516102a69190612532565b60405180910390f35b6102c960048036038101906102c491906124ec565b611667565b6040516102d69190612532565b60405180910390f35b6102f960048036038101906102f491906124ec565b611728565b60405161030691906127ad565b60405180910390f35b610329600480360381019061032491906124ec565b611776565b6040516103369190612532565b60405180910390f35b610347611837565b005b61035161184b565b60405161035e9190612783565b60405180910390f35b610381600480360381019061037c91906124ec565b611875565b60405161038e9190612532565b60405180910390f35b61039f611936565b6040516103ac9190612783565b60405180910390f35b6103cf60048036038101906103ca91906124ec565b611945565b6040516103dc9190612532565b60405180910390f35b6103ed611a94565b6040516103fa9190612783565b60405180910390f35b61041d600480360381019061041891906124ec565b611abe565b60405161042a91906127ad565b60405180910390f35b61043b611ade565b6040516104489190612827565b60405180910390f35b61046b600480360381019061046691906124ec565b611b04565b6040516104789190612532565b60405180910390f35b61049b600480360381019061049691906124ec565b611b50565b6040516104a89190612532565b60405180910390f35b6104cb60048036038101906104c691906124ec565b611c11565b6040516104d89190612532565b60405180910390f35b6104fb60048036038101906104f691906124ec565b611cd2565b60405161050d96959493929190612842565b60405180910390f35b610530600480360381019061052b91906124ec565b611d1b565b005b6000600360009054906101000a900473ffffffffffffffffffffffffffffffffffffffff1673ffffffffffffffffffffffffffffffffffffffff166370a08231836040518263ffffffff167c01000000000000000000000000000000000000000000000000000000000281526004016105ab9190612783565b602060405180830381865afa1580156105c8573d6000803e3d6000fd5b505050506040513d601f19601f820116820180604052508101906105ec91906128b8565b9050919050565b6000600a60008373ffffffffffffffffffffffffffffffffffffffff1673ffffffffffffffffffffffffffffffffffffffff168152602001908152602001600020600001549050919050565b610647611d9e565b6000600a60003373ffffffffffffffffffffffffffffffffffffffff1673ffffffffffffffffffffffffffffffffffffffff168152602001908152602001600020905060008160000154146106d1576040517f08c379a00000000000000000000000000000000000000000000000000000000081526004016106c890612968565b60405180910390fd5b60008311610714576040517f08c379a000000000000000000000000000000000000000000000000000000000815260040161070b906129d4565b60405180910390fd5b82600360009054906101000a900473ffffffffffffffffffffffffffffffffffffffff1673ffffffffffffffffffffffffffffffffffffffff166370a08231336040518263ffffffff167c010000000000000000000000000000000000000000000000000000000002815260040161078c9190612783565b602060405180830381865afa1580156107a9573d6000803e3d6000fd5b505050506040513d601f19601f820116820180604052508101906107cd91906128b8565b101561080e576040517f08c379a000000000000000000000000000000000000000000000000000000000815260040161080590612a40565b60405180910390fd5b6001600b60003373ffffffffffffffffffffffffffffffffffffffff1673ffffffffffffffffffffffffffffffffffffffff16815260200190815260200160002060006101000a81548160ff0219169083151502179055503373ffffffffffffffffffffffffffffffffffffffff167fa850ae9193f515cbae8d35e8925bd2be26627fc91bce650b8652ed254e9cab0360405160405180910390a26108d6600360009054906101000a900473ffffffffffffffffffffffffffffffffffffffff163385611ded565b610904600360009054906101000a900473ffffffffffffffffffffffffffffffffffffffff16333086611f37565b6000600260009054906101000a900473ffffffffffffffffffffffffffffffffffffffff1673ffffffffffffffffffffffffffffffffffffffff166370a08231306040518263ffffffff167c010000000000000000000000000000000000000000000000000000000002815260040161097d9190612783565b602060405180830381865afa15801561099a573d6000803e3d6000fd5b505050506040513d601f19601f820116820180604052508101906109be91906128b8565b905083600260009054906101000a900473ffffffffffffffffffffffffffffffffffffffff1673ffffffffffffffffffffffffffffffffffffffff166370a08231306040518263ffffffff167c0100000000000000000000000000000000000000000000000000000000028152600401610a389190612783565b602060405180830381865afa158015610a55573d6000803e3d6000fd5b505050506040513d601f19601f82011682018060405250810190610a7991906128b8565b1015610b3657600260009054906101000a900473ffffffffffffffffffffffffffffffffffffffff1673ffffffffffffffffffffffffffffffffffffffff166340c10f19308387610aca9190612a8f565b6040518363ffffffff167c0100000000000000000000000000000000000000000000000000000000028152600401610b03929190612ac3565b600060405180830381600087803b158015610b1d57600080fd5b505af1158015610b31573d6000803e3d6000fd5b505050505b610b63600260009054906101000a900473ffffffffffffffffffffffffffffffffffffffff163386611fdc565b600080806003811115610b7957610b78612aec565b5b856003811115610b8c57610b8b612aec565b5b03610ba05760029150620151809050610c8c565b60016003811115610bb457610bb3612aec565b5b856003811115610bc757610bc6612aec565b5b03610bdb576005915062278d009050610c8b565b60026003811115610bef57610bee612aec565b5b856003811115610c0257610c01612aec565b5b03610c1657600a91506276a7009050610c8a565b600380811115610c2957610c28612aec565b5b856003811115610c3c57610c3b612aec565b5b03610c4e5760649150600f9050610c89565b6040517f08c379a0000000000000000000000000000000000000000000000000000000008152600401610c8090612b67565b60405180910390fd5b5b5b5b6040518060c001604052808781526020014281526020016000815260200183815260200182815260200160001515815250600a60003373ffffffffffffffffffffffffffffffffffffffff1673ffffffffffffffffffffffffffffffffffffffff168152602001908152602001600020600082015181600001556020820151816001015560408201518160020155606082015181600301556080820151816004015560a08201518160050160006101000a81548160ff0219169083151502179055509050503373ffffffffffffffffffffffffffffffffffffffff167f9e71bc8eea02a63969f509818f2dafb9254532904319f9dbda79b67bd34a5f3d87604051610d979190612532565b60405180910390a250505050610dab61207e565b5050565b806004600082015181600001556020820151816001015560408201518160020155606082015181600301556080820151816004015560a08201518160050160006101000a81548160ff02191690831515021790555090505050565b6000600360009054906101000a900473ffffffffffffffffffffffffffffffffffffffff1673ffffffffffffffffffffffffffffffffffffffff166370a08231336040518263ffffffff167c0100000000000000000000000000000000000000000000000000000000028152600401610e839190612783565b602060405180830381865afa158015610ea0573d6000803e3d6000fd5b505050506040513d601f19601f82011682018060405250810190610ec491906128b8565b905090565b6000600360009054906101000a900473ffffffffffffffffffffffffffffffffffffffff16905090565b610efb611d9e565b6000600a60003373ffffffffffffffffffffffffffffffffffffffff1673ffffffffffffffffffffffffffffffffffffffff16815260200190815260200160002090506000816000015411610f85576040517f08c379a0000000000000000000000000000000000000000000000000000000008152600401610f7c90612bd3565b60405180910390fd5b80600401548160010154610f999190612bf3565b421015610fdb576040517f08c379a0000000000000000000000000000000000000000000000000000000008152600401610fd290612c73565b60405180910390fd5b6000816002015414611022576040517f08c379a000000000000000000000000000000000000000000000000000000000815260040161101990612cdf565b60405180910390fd5b6000606482600301546110359190612d2e565b82600001546110449190612d5f565b905060008183600001546110589190612bf3565b90508260000154600260009054906101000a900473ffffffffffffffffffffffffffffffffffffffff1673ffffffffffffffffffffffffffffffffffffffff166370a08231336040518263ffffffff167c01000000000000000000000000000000000000000000000000000000000281526004016110d69190612783565b602060405180830381865afa1580156110f3573d6000803e3d6000fd5b505050506040513d601f19601f8201168201806040525081019061111791906128b8565b1015611158576040517f08c379a000000000000000000000000000000000000000000000000000000000815260040161114f90612ded565b60405180910390fd5b61118a600260009054906101000a900473ffffffffffffffffffffffffffffffffffffffff1633308660000154611f37565b600260009054906101000a900473ffffffffffffffffffffffffffffffffffffffff1673ffffffffffffffffffffffffffffffffffffffff166379cc67903085600001546040518363ffffffff167c0100000000000000000000000000000000000000000000000000000000028152600401611207929190612ac3565b600060405180830381600087803b15801561122157600080fd5b505af1158015611235573d6000803e3d6000fd5b5050505060008360000154905081600360009054906101000a900473ffffffffffffffffffffffffffffffffffffffff1673ffffffffffffffffffffffffffffffffffffffff166370a08231306040518263ffffffff167c01000000000000000000000000000000000000000000000000000000000281526004016112ba9190612783565b602060405180830381865afa1580156112d7573d6000803e3d6000fd5b505050506040513d601f19601f820116820180604052508101906112fb91906128b8565b10156113b857600360009054906101000a900473ffffffffffffffffffffffffffffffffffffffff1673ffffffffffffffffffffffffffffffffffffffff166340c10f1930838561134c9190612a8f565b6040518363ffffffff167c0100000000000000000000000000000000000000000000000000000000028152600401611385929190612ac3565b600060405180830381600087803b15801561139f57600080fd5b505af11580156113b3573d6000803e3d6000fd5b505050505b6113e5600360009054906101000a900473ffffffffffffffffffffffffffffffffffffffff163384611fdc565b600084600001819055506000846001018190555042846002018190555060008460030181905550600084600401819055506000600b60003373ffffffffffffffffffffffffffffffffffffffff1673ffffffffffffffffffffffffffffffffffffffff16815260200190815260200160002060006101000a81548160ff02191690831515021790555060008460050160006101000a81548160ff0219169083151502179055503373ffffffffffffffffffffffffffffffffffffffff167ff26c0304cc83daf500e1dc22ab2e3cf954b3d506d62e34d70cc054255079e39783856040516114d3929190612e0d565b60405180910390a2505050506114e761207e565b565b6000600260009054906101000a900473ffffffffffffffffffffffffffffffffffffffff1673ffffffffffffffffffffffffffffffffffffffff166370a08231336040518263ffffffff167c01000000000000000000000000000000000000000000000000000000000281526004016115629190612783565b602060405180830381865afa15801561157f573d6000803e3d6000fd5b505050506040513d601f19601f820116820180604052508101906115a391906128b8565b905090565b6000600260009054906101000a900473ffffffffffffffffffffffffffffffffffffffff1673ffffffffffffffffffffffffffffffffffffffff166370a08231306040518263ffffffff167c01000000000000000000000000000000000000000000000000000000000281526004016116219190612783565b602060405180830381865afa15801561163e573d6000803e3d6000fd5b505050506040513d601f19601f8201168201806040525081019061166291906128b8565b905090565b6000600260009054906101000a900473ffffffffffffffffffffffffffffffffffffffff1673ffffffffffffffffffffffffffffffffffffffff166370a08231836040518263ffffffff167c01000000000000000000000000000000000000000000000000000000000281526004016116e09190612783565b602060405180830381865afa1580156116fd573d6000803e3d6000fd5b505050506040513d601f19601f8201168201806040525081019061172191906128b8565b9050919050565b600080600a60008473ffffffffffffffffffffffffffffffffffffffff1673ffffffffffffffffffffffffffffffffffffffff16815260200190815260200160002060000154119050919050565b6000600360009054906101000a900473ffffffffffffffffffffffffffffffffffffffff1673ffffffffffffffffffffffffffffffffffffffff166370a08231836040518263ffffffff167c01000000000000000000000000000000000000000000000000000000000281526004016117ef9190612783565b602060405180830381865afa15801561180c573d6000803e3d6000fd5b505050506040513d601f19601f8201168201806040525081019061183091906128b8565b9050919050565b61183f612088565b6118496000612106565b565b6000600260009054906101000a900473ffffffffffffffffffffffffffffffffffffffff16905090565b6000600360009054906101000a900473ffffffffffffffffffffffffffffffffffffffff1673ffffffffffffffffffffffffffffffffffffffff166370a08231836040518263ffffffff167c01000000000000000000000000000000000000000000000000000000000281526004016118ee9190612783565b602060405180830381865afa15801561190b573d6000803e3d6000fd5b505050506040513d601f19601f8201168201806040525081019061192f91906128b8565b9050919050565b6000611940611a94565b905090565b600080600a60008473ffffffffffffffffffffffffffffffffffffffff1673ffffffffffffffffffffffffffffffffffffffff168152602001908152602001600020905060006064826003015461199c9190612d2e565b82600001546119ab9190612d5f565b905060008183600001546119bf9190612bf3565b90506000600360009054906101000a900473ffffffffffffffffffffffffffffffffffffffff1673ffffffffffffffffffffffffffffffffffffffff166370a08231876040518263ffffffff167c0100000000000000000000000000000000000000000000000000000000028152600401611a3a9190612783565b602060405180830381865afa158015611a57573d6000803e3d6000fd5b505050506040513d601f19601f82011682018060405250810190611a7b91906128b8565b90508181611a899190612bf3565b945050505050919050565b6000600160009054906101000a900473ffffffffffffffffffffffffffffffffffffffff16905090565b600b6020528060005260406000206000915054906101000a900460ff1681565b600360009054906101000a900473ffffffffffffffffffffffffffffffffffffffff1681565b6000600a60008373ffffffffffffffffffffffffffffffffffffffff1673ffffffffffffffffffffffffffffffffffffffff168152602001908152602001600020600001549050919050565b6000600360009054906101000a900473ffffffffffffffffffffffffffffffffffffffff1673ffffffffffffffffffffffffffffffffffffffff166370a08231836040518263ffffffff167c0100000000000000000000000000000000000000000000000000000000028152600401611bc99190612783565b602060405180830381865afa158015611be6573d6000803e3d6000fd5b505050506040513d601f19601f82011682018060405250810190611c0a91906128b8565b9050919050565b6000600260009054906101000a900473ffffffffffffffffffffffffffffffffffffffff1673ffffffffffffffffffffffffffffffffffffffff166370a08231836040518263ffffffff167c0100000000000000000000000000000000000000000000000000000000028152600401611c8a9190612783565b602060405180830381865afa158015611ca7573d6000803e3d6000fd5b505050506040513d601f19601f82011682018060405250810190611ccb91906128b8565b9050919050565b600a6020528060005260406000206000915090508060000154908060010154908060020154908060030154908060040154908060050160009054906101000a900460ff16905086565b611d23612088565b600073ffffffffffffffffffffffffffffffffffffffff168173ffffffffffffffffffffffffffffffffffffffff1603611d92576040517f08c379a0000000000000000000000000000000000000000000000000000000008152600401611d8990612ea8565b60405180910390fd5b611d9b81612106565b50565b600260005403611de3576040517f08c379a0000000000000000000000000000000000000000000000000000000008152600401611dda90612f14565b60405180910390fd5b6002600081905550565b6000818473ffffffffffffffffffffffffffffffffffffffff1663dd62ed3e30866040518363ffffffff167c0100000000000000000000000000000000000000000000000000000000028152600401611e47929190612f34565b602060405180830381865afa158015611e64573d6000803e3d6000fd5b505050506040513d601f19601f82011682018060405250810190611e8891906128b8565b611e929190612bf3565b9050611f318463095ea7b37c0100000000000000000000000000000000000000000000000000000000028584604051602401611ecf929190612ac3565b604051602081830303815290604052907bffffffffffffffffffffffffffffffffffffffffffffffffffffffff19166020820180517bffffffffffffffffffffffffffffffffffffffffffffffffffffffff83818316178352505050506121cc565b50505050565b611fd6846323b872dd7c010000000000000000000000000000000000000000000000000000000002858585604051602401611f7493929190612f5d565b604051602081830303815290604052907bffffffffffffffffffffffffffffffffffffffffffffffffffffffff19166020820180517bffffffffffffffffffffffffffffffffffffffffffffffffffffffff83818316178352505050506121cc565b50505050565b6120798363a9059cbb7c0100000000000000000000000000000000000000000000000000000000028484604051602401612017929190612ac3565b604051602081830303815290604052907bffffffffffffffffffffffffffffffffffffffffffffffffffffffff19166020820180517bffffffffffffffffffffffffffffffffffffffffffffffffffffffff83818316178352505050506121cc565b505050565b6001600081905550565b612090612293565b73ffffffffffffffffffffffffffffffffffffffff166120ae611a94565b73ffffffffffffffffffffffffffffffffffffffff1614612104576040517f08c379a00000000000000000000000000000000000000000000000000000000081526004016120fb90612fe0565b60405180910390fd5b565b6000600160009054906101000a900473ffffffffffffffffffffffffffffffffffffffff16905081600160006101000a81548173ffffffffffffffffffffffffffffffffffffffff021916908373ffffffffffffffffffffffffffffffffffffffff1602179055508173ffffffffffffffffffffffffffffffffffffffff168173ffffffffffffffffffffffffffffffffffffffff167f8be0079c531659141344cd1fd0a4f28419497f9722a3daafe3b4186f6b6457e060405160405180910390a35050565b600061222e826040518060400160405280602081526020017f5361666545524332303a206c6f772d6c6576656c2063616c6c206661696c65648152508573ffffffffffffffffffffffffffffffffffffffff1661229b9092919063ffffffff16565b905060008151111561228e578080602001905181019061224e9190613015565b61228d576040517f08c379a0000000000000000000000000000000000000000000000000000000008152600401612284906130b4565b60405180910390fd5b5b505050565b600033905090565b60606122aa84846000856122b3565b90509392505050565b6060823073ffffffffffffffffffffffffffffffffffffffff1631101561230f576040517f08c379a000000000000000000000000000000000000000000000000000000000815260040161230690613146565b60405180910390fd5b6000808673ffffffffffffffffffffffffffffffffffffffff16858760405161233891906131d7565b60006040518083038185875af1925050503d8060008114612375576040519150601f19603f3d011682016040523d82523d6000602084013e61237a565b606091505b509150915061238b87838387612397565b92505050949350505050565b606083156123f95760008351036123f1576123b18561240c565b6123f0576040517f08c379a00000000000000000000000000000000000000000000000000000000081526004016123e79061323a565b60405180910390fd5b5b829050612404565b612403838361242f565b5b949350505050565b6000808273ffffffffffffffffffffffffffffffffffffffff163b119050919050565b6000825111156124425781518083602001fd5b806040517f08c379a0000000000000000000000000000000000000000000000000000000008152600401612476919061329e565b60405180910390fd5b6000604051905090565b600080fd5b600073ffffffffffffffffffffffffffffffffffffffff82169050919050565b60006124b98261248e565b9050919050565b6124c9816124ae565b81146124d457600080fd5b50565b6000813590506124e6816124c0565b92915050565b60006020828403121561250257612501612489565b5b6000612510848285016124d7565b91505092915050565b6000819050919050565b61252c81612519565b82525050565b60006020820190506125476000830184612523565b92915050565b61255681612519565b811461256157600080fd5b50565b6000813590506125738161254d565b92915050565b6004811061258657600080fd5b50565b60008135905061259881612579565b92915050565b600080604083850312156125b5576125b4612489565b5b60006125c385828601612564565b92505060206125d485828601612589565b9150509250929050565b600080fd5b6000601f19601f8301169050919050565b7f4e487b7100000000000000000000000000000000000000000000000000000000600052604160045260246000fd5b61262c826125e3565b810181811067ffffffffffffffff8211171561264b5761264a6125f4565b5b80604052505050565b600061265e61247f565b905061266a8282612623565b919050565b60008115159050919050565b6126848161266f565b811461268f57600080fd5b50565b6000813590506126a18161267b565b92915050565b600060c082840312156126bd576126bc6125de565b5b6126c760c0612654565b905060006126d784828501612564565b60008301525060206126eb84828501612564565b60208301525060406126ff84828501612564565b604083015250606061271384828501612564565b606083015250608061272784828501612564565b60808301525060a061273b84828501612692565b60a08301525092915050565b600060c0828403121561275d5761275c612489565b5b600061276b848285016126a7565b91505092915050565b61277d816124ae565b82525050565b60006020820190506127986000830184612774565b92915050565b6127a78161266f565b82525050565b60006020820190506127c2600083018461279e565b92915050565b6000819050919050565b60006127ed6127e86127e38461248e565b6127c8565b61248e565b9050919050565b60006127ff826127d2565b9050919050565b6000612811826127f4565b9050919050565b61282181612806565b82525050565b600060208201905061283c6000830184612818565b92915050565b600060c0820190506128576000830189612523565b6128646020830188612523565b6128716040830187612523565b61287e6060830186612523565b61288b6080830185612523565b61289860a083018461279e565b979650505050505050565b6000815190506128b28161254d565b92915050565b6000602082840312156128ce576128cd612489565b5b60006128dc848285016128a3565b91505092915050565b600082825260208201905092915050565b7f416c7265616479207374616b65642c20706c6561736520756e7374616b65206660008201527f6972737400000000000000000000000000000000000000000000000000000000602082015250565b60006129526024836128e5565b915061295d826128f6565b604082019050919050565b6000602082019050818103600083015261298181612945565b9050919050565b7f416d6f756e742063616e6e6f7420626520300000000000000000000000000000600082015250565b60006129be6012836128e5565b91506129c982612988565b602082019050919050565b600060208201905081810360008301526129ed816129b1565b9050919050565b7f4e6f7420656e6f75676820746f6b656e73000000000000000000000000000000600082015250565b6000612a2a6011836128e5565b9150612a35826129f4565b602082019050919050565b60006020820190508181036000830152612a5981612a1d565b9050919050565b7f4e487b7100000000000000000000000000000000000000000000000000000000600052601160045260246000fd5b6000612a9a82612519565b9150612aa583612519565b9250828203905081811115612abd57612abc612a60565b5b92915050565b6000604082019050612ad86000830185612774565b612ae56020830184612523565b9392505050565b7f4e487b7100000000000000000000000000000000000000000000000000000000600052602160045260246000fd5b7f496e76616c6964207374616b65206475726174696f6e00000000000000000000600082015250565b6000612b516016836128e5565b9150612b5c82612b1b565b602082019050919050565b60006020820190508181036000830152612b8081612b44565b9050919050565b7f4e6f207374616b656420746f6b656e7300000000000000000000000000000000600082015250565b6000612bbd6010836128e5565b9150612bc882612b87565b602082019050919050565b60006020820190508181036000830152612bec81612bb0565b9050919050565b6000612bfe82612519565b9150612c0983612519565b9250828201905080821115612c2157612c20612a60565b5b92915050565b7f4d696e696d756d207374616b6520706572696f64206e6f742072656163686564600082015250565b6000612c5d6020836128e5565b9150612c6882612c27565b602082019050919050565b60006020820190508181036000830152612c8c81612c50565b9050919050565b7f416c726561647920756e7374616b656400000000000000000000000000000000600082015250565b6000612cc96010836128e5565b9150612cd482612c93565b602082019050919050565b60006020820190508181036000830152612cf881612cbc565b9050919050565b7f4e487b7100000000000000000000000000000000000000000000000000000000600052601260045260246000fd5b6000612d3982612519565b9150612d4483612519565b925082612d5457612d53612cff565b5b828204905092915050565b6000612d6a82612519565b9150612d7583612519565b9250828202612d8381612519565b91508282048414831517612d9a57612d99612a60565b5b5092915050565b7f496e73756666696369656e7420636f75706f6e2062616c616e63650000000000600082015250565b6000612dd7601b836128e5565b9150612de282612da1565b602082019050919050565b60006020820190508181036000830152612e0681612dca565b9050919050565b6000604082019050612e226000830185612523565b612e2f6020830184612523565b9392505050565b7f4f776e61626c653a206e6577206f776e657220697320746865207a65726f206160008201527f6464726573730000000000000000000000000000000000000000000000000000602082015250565b6000612e926026836128e5565b9150612e9d82612e36565b604082019050919050565b60006020820190508181036000830152612ec181612e85565b9050919050565b7f5265656e7472616e637947756172643a207265656e7472616e742063616c6c00600082015250565b6000612efe601f836128e5565b9150612f0982612ec8565b602082019050919050565b60006020820190508181036000830152612f2d81612ef1565b9050919050565b6000604082019050612f496000830185612774565b612f566020830184612774565b9392505050565b6000606082019050612f726000830186612774565b612f7f6020830185612774565b612f8c6040830184612523565b949350505050565b7f4f776e61626c653a2063616c6c6572206973206e6f7420746865206f776e6572600082015250565b6000612fca6020836128e5565b9150612fd582612f94565b602082019050919050565b60006020820190508181036000830152612ff981612fbd565b9050919050565b60008151905061300f8161267b565b92915050565b60006020828403121561302b5761302a612489565b5b600061303984828501613000565b91505092915050565b7f5361666545524332303a204552433230206f7065726174696f6e20646964206e60008201527f6f74207375636365656400000000000000000000000000000000000000000000602082015250565b600061309e602a836128e5565b91506130a982613042565b604082019050919050565b600060208201905081810360008301526130cd81613091565b9050919050565b7f416464726573733a20696e73756666696369656e742062616c616e636520666f60008201527f722063616c6c0000000000000000000000000000000000000000000000000000602082015250565b60006131306026836128e5565b915061313b826130d4565b604082019050919050565b6000602082019050818103600083015261315f81613123565b9050919050565b600081519050919050565b600081905092915050565b60005b8381101561319a57808201518184015260208101905061317f565b60008484015250505050565b60006131b182613166565b6131bb8185613171565b93506131cb81856020860161317c565b80840191505092915050565b60006131e382846131a6565b915081905092915050565b7f416464726573733a2063616c6c20746f206e6f6e2d636f6e7472616374000000600082015250565b6000613224601d836128e5565b915061322f826131ee565b602082019050919050565b6000602082019050818103600083015261325381613217565b9050919050565b600081519050919050565b60006132708261325a565b61327a81856128e5565b935061328a81856020860161317c565b613293816125e3565b840191505092915050565b600060208201905081810360008301526132b88184613265565b90509291505056fea264697066735822122011cf9755255a3e0cc15628859587832d2e3f6fa661d8dc74009ac9af1a5c856364736f6c63430008140033",
  "immutableReferences": {},
  "source": "// SPDX-License-Identifier: MIT\npragma solidity ^0.8.20;\n\nimport \"@openzeppelin/contracts/token/ERC20/IERC20.sol\";\nimport \"@openzeppelin/contracts/token/ERC20/utils/SafeERC20.sol\";\nimport \"@openzeppelin/contracts/security/ReentrancyGuard.sol\";\nimport \"@openzeppelin/contracts/access/Ownable.sol\";\nimport \"./CashToken.sol\";\nimport \"./Coupon.sol\";\nimport \"./IMintableToken.sol\";\n\ncontract StrategyOne is ReentrancyGuard, Ownable {\n    using SafeERC20 for IERC20;\n\n    IMintableToken private coupon;\n    IMintableToken public cashToken;\n\n    enum StakeDuration {\n        SHORT,\n        MEDIUM,\n        LONG,\n        DEV\n    } // custom chosen by user;\n\n    struct StakingData {\n        uint256 amount;\n        uint256 startStake;\n        uint256 endStake;\n        uint256 interestRate;\n        uint256 duration;\n        bool isCouponIssued;\n    }\n    StakingData details;\n\n    function updateStakingData(StakingData memory _details) public {\n        details = _details;\n    }\n\n    mapping(address => StakingData) public stakingData; // tiene tracccia degli address\n\n    mapping(address => bool) public whitelist; // tiene traccia degli utenti che hanno depositato;\n\n    event Staked(address indexed user, uint256 amount);\n    event UnStaked(address indexed user, uint256 amount, uint256 reward);\n    event RewardRateChanged(uint256 newRate);\n    event RewardReleased(uint256 amount);\n    event CouponIssued(address indexed user, uint256 amount);\n    event AddedToWhitelist(address indexed user);\n\n    //event BurnProcess(uint256 number);\n\n    constructor(IMintableToken _coupon, IMintableToken _cashToken) {\n        coupon = _coupon;\n        cashToken = _cashToken;\n    }\n\n    // stake\n    function stake(\n        uint256 _amount,\n        StakeDuration _duration\n    ) public nonReentrant {\n        StakingData storage data = stakingData[msg.sender];\n\n        require(data.amount == 0, \"Already staked, please unstake first\");\n        require(_amount > 0, \"Amount cannot be 0\");\n        require(\n            cashToken.balanceOf(msg.sender) >= _amount,\n            \"Not enough tokens\"\n        );\n\n        // Add the user to the whitelist\n        whitelist[msg.sender] = true;\n        emit AddedToWhitelist(msg.sender);\n\n        // Approva l'importo per il trasferimento dei cash token\n        SafeERC20.safeIncreaseAllowance(cashToken, msg.sender, _amount);\n\n        // Trasferisci i cash token dal wallet dell'utente al contratto\n        SafeERC20.safeTransferFrom(\n            cashToken,\n            msg.sender,\n            address(this),\n            _amount\n        );\n\n        // Verifica se ci sono abbastanza coupon e minta se necessario\n        uint256 balance = coupon.balanceOf(address(this));\n\n        // mint su StrategyOne\n        if (coupon.balanceOf(address(this)) < _amount) {\n            coupon.mint(address(this), _amount - balance);\n        }\n        // Trasferisci i coupon all'utente\n        SafeERC20.safeTransfer(coupon, msg.sender, _amount);\n\n        // Calcola il tasso di interesse e la durata\n        uint256 interestRate = 0;\n        uint256 duration;\n\n        if (_duration == StakeDuration.SHORT) {\n            // 1 day\n            interestRate = 2;\n            duration = 24 hours;\n        } else if (_duration == StakeDuration.MEDIUM) {\n            // 30 days\n            interestRate = 5;\n            duration = 30 days;\n        } else if (_duration == StakeDuration.LONG) {\n            // 90 days\n            interestRate = 10;\n            duration = 90 days;\n            // Dev utilizzato per lo sviluppo\n        } else if (_duration == StakeDuration.DEV) {\n            // 1 second\n            interestRate = 100;\n            duration = 15 seconds;\n        } else {\n            revert(\"Invalid stake duration\");\n        }\n        //reset valori\n        stakingData[msg.sender] = StakingData({\n            amount: _amount,\n            startStake: block.timestamp,\n            endStake: 0,\n            interestRate: interestRate,\n            duration: duration,\n            isCouponIssued: false\n        });\n\n        emit Staked(msg.sender, _amount);\n    }\n\n    function hasStakedTokens(address _user) public view returns (bool) {\n        return stakingData[_user].amount > 0;\n    }\n\n    // unstake\n\n    function unstake() public nonReentrant {\n        StakingData storage data = stakingData[msg.sender];\n        require(data.amount > 0, \"No staked tokens\");\n        require(\n            block.timestamp >= data.startStake + data.duration,\n            \"Minimum stake period not reached\"\n        );\n        require(data.endStake == 0, \"Already unstaked\");\n        // Calcola la ricompensa in cash token in % ;\n        uint256 reward = (data.amount * (data.interestRate / 100));\n        uint256 total = data.amount + reward;\n\n        // Controlla i coupon\n        require(\n            coupon.balanceOf(msg.sender) >= data.amount,\n            \"Insufficient coupon balance\"\n        );\n\n        // Trasferisci i coupon dall'utente a StrategyOne;\n        SafeERC20.safeTransferFrom(\n            coupon,\n            msg.sender,\n            address(this),\n            data.amount\n        );\n\n        // Brucia i coupon ricevuti dal contratto StrategyOne;\n        coupon.burnFrom(address(this), data.amount);\n\n        // Mint cashToken se non sufficiente disponibile;\n        uint256 balance = data.amount;\n        if (cashToken.balanceOf(address(this)) < total) {\n            cashToken.mint(address(this), total - balance);\n        }\n        // Trasferisci l'importo totale (amount + reward) all'utente;\n        SafeERC20.safeTransfer(cashToken, msg.sender, total);\n\n        // Aggiorna i dati ;\n        data.amount = 0;\n        data.startStake = 0;\n        data.endStake = block.timestamp;\n        data.interestRate = 0;\n        data.duration = 0;\n        whitelist[msg.sender] = false;\n        data.isCouponIssued = false;\n\n        emit UnStaked(msg.sender, total, reward);\n    }\n\n    // se l'utente volesse avere info sulla sul reward\n    function getTotalBalanceWithRewards(\n        address _user\n    ) public view returns (uint256) {\n        StakingData storage data = stakingData[_user];\n        uint256 reward = (data.amount * (data.interestRate / 100));\n        uint256 total = data.amount + reward;\n        uint256 cashTokenBalance = cashToken.balanceOf(_user);\n        return cashTokenBalance + total;\n    }\n\n    function getCashTokenBalance() public view returns (uint256) {\n        // restituisce il saldo dei cash token dell'utente\n        return cashToken.balanceOf(msg.sender);\n    }\n\n    \n\n    function getStakingDataAmount(address _user) public view returns (uint256) {\n        // restituisce l'importo di staking dell'utente\n        return stakingData[_user].amount;\n    }\n\n    function CouponAddress() public view returns (address) {\n        // restituisce l'indirizzo del contratto coupon\n        return address(coupon);\n    }\n\n    function CashTokenAddress() public view returns (address) {\n        // restituisce l'indirizzo del contratto cash token\n        return address(cashToken);\n    }\n\n    function CashTokenBalanceUser(address _user) public view returns (uint256) {\n        // restituisce il saldo dei cash token dell'utente     //ok usata\n        return cashToken.balanceOf(_user);\n    }\n\n    function CouponBalanceUser(address _user) public view returns (uint256) {\n        // restituisce il saldo dei coupon dell'utente\n        return coupon.balanceOf(_user);\n    }\n\n    function CouponBalanceContract() public view returns (uint256) {\n        // restituisce il saldo dei coupon del contratto\n        return coupon.balanceOf(address(this));\n    }\n\n\n\n    function getBalanceCashToken(\n        address ContractAddress\n    ) public view returns (uint256 _amount) {\n        return cashToken.balanceOf(ContractAddress);\n    }\n\n    function getOwner() public view returns (address) {\n        return owner();\n    }\n\n    function getReward(\n        address ContractAddress\n    ) public view returns (uint256 _amount) {\n        return cashToken.balanceOf(ContractAddress);\n    }\n\n    function getStakingBalance(\n        address ContractAddress\n    ) public view returns (uint256 _amount) {\n        //restituisce l'importo di staking del contratto\n        return stakingData[ContractAddress].amount; // ok usata\n    }\n\n    function getBalanceCoupon(\n        address ContractAddress\n    ) public view returns (uint256 _amount) {\n        return coupon.balanceOf(ContractAddress); // ok\n    }\n\n    function getCashTokenBalance(\n        address ContractAddress\n    ) public view returns (uint256 _amount) {\n        return cashToken.balanceOf(ContractAddress); // ok \n    }\n    // ok \n    function getCouponBalanceUser() public view returns (uint256) {\n        // restituisce il saldo dei coupon dell'utente\n        return coupon.balanceOf(msg.sender);\n    }\n   \n\n    \n}\n",
  "sourcePath": "/Volumes/One Touch/ProjectCourseBcod/Strategy/contracts/StrategyOne.sol",
  "compiler": {
    "name": "solc",
    "version": "0.8.20+commit.a1b79de6.Emscripten.clang"
  },
  "schemaVersion": "3.4.13",
  "updatedAt": "2023-05-22T18:25:19.020Z",
  "networkType": "ethereum",
  "devdoc": {
    "kind": "dev",
    "methods": {
      "owner()": {
        "details": "Returns the address of the current owner."
      },
      "renounceOwnership()": {
        "details": "Leaves the contract without owner. It will not be possible to call `onlyOwner` functions anymore. Can only be called by the current owner. NOTE: Renouncing ownership will leave the contract without an owner, thereby removing any functionality that is only available to the owner."
      },
      "transferOwnership(address)": {
        "details": "Transfers ownership of the contract to a new account (`newOwner`). Can only be called by the current owner."
      }
    },
    "version": 1
  },
  "userdoc": {
    "kind": "user",
    "methods": {},
    "version": 1
  }
}