{
  "contractName": "StrategyTwo",
  "abi": [
    {
      "inputs": [
        {
          "internalType": "address",
          "name": "_akkToken",
          "type": "address"
        },
        {
          "internalType": "address",
          "name": "_usdtCash",
          "type": "address"
        },
        {
          "internalType": "uint256",
          "name": "_rate",
          "type": "uint256"
        }
      ],
      "stateMutability": "nonpayable",
      "type": "constructor"
    },
    {
      "anonymous": false,
      "inputs": [
        {
          "indexed": true,
          "internalType": "address",
          "name": "user",
          "type": "address"
        }
      ],
      "name": "AddedToWhitelist",
      "type": "event"
    },
    {
      "anonymous": false,
      "inputs": [
        {
          "indexed": true,
          "internalType": "address",
          "name": "user",
          "type": "address"
        },
        {
          "indexed": false,
          "internalType": "uint256",
          "name": "amount",
          "type": "uint256"
        }
      ],
      "name": "AkkTokenBalanceUpdated",
      "type": "event"
    },
    {
      "anonymous": false,
      "inputs": [
        {
          "indexed": true,
          "internalType": "address",
          "name": "user",
          "type": "address"
        },
        {
          "indexed": false,
          "internalType": "uint256",
          "name": "cashTokenAmount",
          "type": "uint256"
        },
        {
          "indexed": false,
          "internalType": "uint256",
          "name": "akkTokenAmount",
          "type": "uint256"
        },
        {
          "indexed": false,
          "internalType": "enum StrategyTwo.AccumulationDuration",
          "name": "duration",
          "type": "uint8"
        }
      ],
      "name": "AkkTokenBought",
      "type": "event"
    },
    {
      "anonymous": false,
      "inputs": [
        {
          "indexed": false,
          "internalType": "uint256",
          "name": "amount",
          "type": "uint256"
        }
      ],
      "name": "AkkTokenRemaining",
      "type": "event"
    },
    {
      "anonymous": false,
      "inputs": [
        {
          "indexed": true,
          "internalType": "address",
          "name": "user",
          "type": "address"
        },
        {
          "indexed": false,
          "internalType": "uint256",
          "name": "akkTokenAmount",
          "type": "uint256"
        }
      ],
      "name": "AkkTokenWithdrawn",
      "type": "event"
    },
    {
      "anonymous": false,
      "inputs": [
        {
          "indexed": true,
          "internalType": "address",
          "name": "user",
          "type": "address"
        },
        {
          "indexed": false,
          "internalType": "uint256",
          "name": "cashTokenAmount",
          "type": "uint256"
        }
      ],
      "name": "CashTokenWithdrawn",
      "type": "event"
    },
    {
      "anonymous": false,
      "inputs": [
        {
          "indexed": true,
          "internalType": "address",
          "name": "previousOwner",
          "type": "address"
        },
        {
          "indexed": true,
          "internalType": "address",
          "name": "newOwner",
          "type": "address"
        }
      ],
      "name": "OwnershipTransferred",
      "type": "event"
    },
    {
      "anonymous": false,
      "inputs": [
        {
          "indexed": false,
          "internalType": "uint256",
          "name": "rate",
          "type": "uint256"
        }
      ],
      "name": "RateSet",
      "type": "event"
    },
    {
      "inputs": [],
      "name": "MIN_CASH_TOKEN_AMOUNT",
      "outputs": [
        {
          "internalType": "uint256",
          "name": "",
          "type": "uint256"
        }
      ],
      "stateMutability": "view",
      "type": "function",
      "constant": true
    },
    {
      "inputs": [],
      "name": "akkToken",
      "outputs": [
        {
          "internalType": "contract IMintableToken",
          "name": "",
          "type": "address"
        }
      ],
      "stateMutability": "view",
      "type": "function",
      "constant": true
    },
    {
      "inputs": [],
      "name": "owner",
      "outputs": [
        {
          "internalType": "address",
          "name": "",
          "type": "address"
        }
      ],
      "stateMutability": "view",
      "type": "function",
      "constant": true
    },
    {
      "inputs": [],
      "name": "rate",
      "outputs": [
        {
          "internalType": "uint256",
          "name": "",
          "type": "uint256"
        }
      ],
      "stateMutability": "view",
      "type": "function",
      "constant": true
    },
    {
      "inputs": [],
      "name": "renounceOwnership",
      "outputs": [],
      "stateMutability": "nonpayable",
      "type": "function"
    },
    {
      "inputs": [
        {
          "internalType": "address",
          "name": "newOwner",
          "type": "address"
        }
      ],
      "name": "transferOwnership",
      "outputs": [],
      "stateMutability": "nonpayable",
      "type": "function"
    },
    {
      "inputs": [],
      "name": "usdtCash",
      "outputs": [
        {
          "internalType": "contract USDTCash",
          "name": "",
          "type": "address"
        }
      ],
      "stateMutability": "view",
      "type": "function",
      "constant": true
    },
    {
      "inputs": [
        {
          "internalType": "address",
          "name": "",
          "type": "address"
        }
      ],
      "name": "users",
      "outputs": [
        {
          "internalType": "uint256",
          "name": "balance",
          "type": "uint256"
        },
        {
          "internalType": "uint256",
          "name": "firstDepositTime",
          "type": "uint256"
        },
        {
          "internalType": "uint256",
          "name": "lastDepositTime",
          "type": "uint256"
        },
        {
          "internalType": "enum StrategyTwo.AccumulationDuration",
          "name": "duration",
          "type": "uint8"
        }
      ],
      "stateMutability": "view",
      "type": "function",
      "constant": true
    },
    {
      "inputs": [
        {
          "internalType": "enum StrategyTwo.AccumulationDuration",
          "name": "_duration",
          "type": "uint8"
        }
      ],
      "name": "calculateDuration",
      "outputs": [
        {
          "internalType": "uint256",
          "name": "",
          "type": "uint256"
        }
      ],
      "stateMutability": "pure",
      "type": "function",
      "constant": true
    },
    {
      "inputs": [
        {
          "internalType": "uint256",
          "name": "_amount",
          "type": "uint256"
        },
        {
          "internalType": "enum StrategyTwo.AccumulationDuration",
          "name": "_duration",
          "type": "uint8"
        }
      ],
      "name": "buyAkkToken",
      "outputs": [],
      "stateMutability": "nonpayable",
      "type": "function"
    },
    {
      "inputs": [
        {
          "internalType": "uint256",
          "name": "_rate",
          "type": "uint256"
        }
      ],
      "name": "setRate",
      "outputs": [],
      "stateMutability": "nonpayable",
      "type": "function"
    },
    {
      "inputs": [
        {
          "internalType": "uint256",
          "name": "_amount",
          "type": "uint256"
        }
      ],
      "name": "withdrawAkkToken",
      "outputs": [],
      "stateMutability": "nonpayable",
      "type": "function"
    },
    {
      "inputs": [],
      "name": "getUSDTCashTokenBalance",
      "outputs": [
        {
          "internalType": "uint256",
          "name": "",
          "type": "uint256"
        }
      ],
      "stateMutability": "view",
      "type": "function",
      "constant": true
    },
    {
      "inputs": [],
      "name": "getAkTokenBalanceUser",
      "outputs": [
        {
          "internalType": "uint256",
          "name": "",
          "type": "uint256"
        }
      ],
      "stateMutability": "view",
      "type": "function",
      "constant": true
    }
  ],
  "bytecode": "0x60806040523480156200001157600080fd5b5060405162002bc638038062002bc6833981810160405281019062000037919062000273565b620000696200005462000102640100000000026401000000009004565b6200010a640100000000026401000000009004565b6001808190555082600260006101000a81548173ffffffffffffffffffffffffffffffffffffffff021916908373ffffffffffffffffffffffffffffffffffffffff16021790555081600360006101000a81548173ffffffffffffffffffffffffffffffffffffffff021916908373ffffffffffffffffffffffffffffffffffffffff16021790555080600481905550505050620002cf565b600033905090565b60008060009054906101000a900473ffffffffffffffffffffffffffffffffffffffff169050816000806101000a81548173ffffffffffffffffffffffffffffffffffffffff021916908373ffffffffffffffffffffffffffffffffffffffff1602179055508173ffffffffffffffffffffffffffffffffffffffff168173ffffffffffffffffffffffffffffffffffffffff167f8be0079c531659141344cd1fd0a4f28419497f9722a3daafe3b4186f6b6457e060405160405180910390a35050565b600080fd5b600073ffffffffffffffffffffffffffffffffffffffff82169050919050565b60006200020082620001d3565b9050919050565b6200021281620001f3565b81146200021e57600080fd5b50565b600081519050620002328162000207565b92915050565b6000819050919050565b6200024d8162000238565b81146200025957600080fd5b50565b6000815190506200026d8162000242565b92915050565b6000806000606084860312156200028f576200028e620001ce565b5b60006200029f8682870162000221565b9350506020620002b28682870162000221565b9250506040620002c5868287016200025c565b9150509250925092565b6128e780620002df6000396000f3fe608060405234801561001057600080fd5b5060043610610105576000357c01000000000000000000000000000000000000000000000000000000009004806379a77035116100a9578063b6f27afe11610083578063b6f27afe14610243578063d942fde714610261578063f2fde38b1461027f578063f91bd58c1461029b57610105565b806379a77035146101d65780638da5cb5b146101f2578063a87430ba1461021057610105565b80632ad2b49b116100e55780632ad2b49b146101625780632c4e722e1461019257806334fcf437146101b0578063715018a6146101cc57610105565b806202b6ac1461010a578062a9dc101461012857806318df7a8f14610146575b600080fd5b6101126102b9565b60405161011f9190611bd1565b60405180910390f35b6101306102df565b60405161013d9190611c05565b60405180910390f35b610160600480360381019061015b9190611c76565b61039e565b005b61017c60048036038101906101779190611cb6565b610a33565b6040516101899190611c05565b60405180910390f35b61019a610b57565b6040516101a79190611c05565b60405180910390f35b6101ca60048036038101906101c59190611ce3565b610b5d565b005b6101d4610ba8565b005b6101f060048036038101906101eb9190611ce3565b610bbc565b005b6101fa61129a565b6040516102079190611d31565b60405180910390f35b61022a60048036038101906102259190611d78565b6112c3565b60405161023a9493929190611e1c565b60405180910390f35b61024b611300565b6040516102589190611c05565b60405180910390f35b6102696113bf565b6040516102769190611c05565b60405180910390f35b61029960048036038101906102949190611d78565b6113cb565b005b6102a361144e565b6040516102b09190611e82565b60405180910390f35b600360009054906101000a900473ffffffffffffffffffffffffffffffffffffffff1681565b6000600360009054906101000a900473ffffffffffffffffffffffffffffffffffffffff1673ffffffffffffffffffffffffffffffffffffffff166370a08231336040518263ffffffff167c01000000000000000000000000000000000000000000000000000000000281526004016103589190611d31565b602060405180830381865afa158015610375573d6000803e3d6000fd5b505050506040513d601f19601f820116820180604052508101906103999190611eb2565b905090565b6103a6611474565b60008290506000600454826103bb9190611f3d565b905060008203610400576040517f08c379a00000000000000000000000000000000000000000000000000000000081526004016103f790611fcb565b60405180910390fd5b80600360009054906101000a900473ffffffffffffffffffffffffffffffffffffffff1673ffffffffffffffffffffffffffffffffffffffff166370a08231336040518263ffffffff167c01000000000000000000000000000000000000000000000000000000000281526004016104789190611d31565b602060405180830381865afa158015610495573d6000803e3d6000fd5b505050506040513d601f19601f820116820180604052508101906104b99190611eb2565b10156104fa576040517f08c379a00000000000000000000000000000000000000000000000000000000081526004016104f190612037565b60405180910390fd5b67016345785d8a0000811015610545576040517f08c379a000000000000000000000000000000000000000000000000000000000815260040161053c906120a3565b60405180910390fd5b6000600381111561055957610558611da5565b5b83600381111561056c5761056b611da5565b5b148061059c57506001600381111561058757610586611da5565b5b83600381111561059a57610599611da5565b5b145b806105cb5750600260038111156105b6576105b5611da5565b5b8360038111156105c9576105c8611da5565b5b145b806105f957506003808111156105e4576105e3611da5565b5b8360038111156105f7576105f6611da5565b5b145b610638576040517f08c379a000000000000000000000000000000000000000000000000000000000815260040161062f9061210f565b60405180910390fd5b610665600360009054906101000a900473ffffffffffffffffffffffffffffffffffffffff1633836114c3565b610693600360009054906101000a900473ffffffffffffffffffffffffffffffffffffffff1633308461160d565b6000600260009054906101000a900473ffffffffffffffffffffffffffffffffffffffff1673ffffffffffffffffffffffffffffffffffffffff166370a08231306040518263ffffffff167c010000000000000000000000000000000000000000000000000000000002815260040161070c9190611d31565b602060405180830381865afa158015610729573d6000803e3d6000fd5b505050506040513d601f19601f8201168201806040525081019061074d9190611eb2565b90508281101561080e57600260009054906101000a900473ffffffffffffffffffffffffffffffffffffffff1673ffffffffffffffffffffffffffffffffffffffff166340c10f193083866107a2919061212f565b6040518363ffffffff167c01000000000000000000000000000000000000000000000000000000000281526004016107db929190612163565b600060405180830381600087803b1580156107f557600080fd5b505af1158015610809573d6000803e3d6000fd5b505050505b61083b600260009054906101000a900473ffffffffffffffffffffffffffffffffffffffff1633856116b2565b82600560003373ffffffffffffffffffffffffffffffffffffffff1673ffffffffffffffffffffffffffffffffffffffff168152602001908152602001600020600001600082825461088d919061218c565b9250508190555042600560003373ffffffffffffffffffffffffffffffffffffffff1673ffffffffffffffffffffffffffffffffffffffff168152602001908152602001600020600201819055506000600560003373ffffffffffffffffffffffffffffffffffffffff1673ffffffffffffffffffffffffffffffffffffffff16815260200190815260200160002060010154036109d25742600560003373ffffffffffffffffffffffffffffffffffffffff1673ffffffffffffffffffffffffffffffffffffffff168152602001908152602001600020505083600560003373ffffffffffffffffffffffffffffffffffffffff1673ffffffffffffffffffffffffffffffffffffffff16815260200190815260200160002060030160006101000a81548160ff021916908360038111156109cc576109cb611da5565b5b02179055505b3373ffffffffffffffffffffffffffffffffffffffff167fd7fcfbc59c6c3ef70dde86f47c947a51cdddd9a31197193ffcef9c130a6cf36d838587604051610a1c939291906121c0565b60405180910390a2505050610a2f611754565b5050565b6000806003811115610a4857610a47611da5565b5b826003811115610a5b57610a5a611da5565b5b03610a6957600a9050610b52565b60016003811115610a7d57610a7c611da5565b5b826003811115610a9057610a8f611da5565b5b03610aa15763096601809050610b52565b60026003811115610ab557610ab4611da5565b5b826003811115610ac857610ac7611da5565b5b03610ad9576312cc03009050610b52565b600380811115610aec57610aeb611da5565b5b826003811115610aff57610afe611da5565b5b03610b1057631c3204809050610b52565b6000610b51576040517f08c379a0000000000000000000000000000000000000000000000000000000008152600401610b4890612243565b60405180910390fd5b5b919050565b60045481565b610b6561175d565b806004819055507faaeb483bfbd8cfd510c2bf9558f92d3b588e733adf62f05e2e3de2486d13279d600454604051610b9d9190611c05565b60405180910390a150565b610bb061175d565b610bba60006117db565b565b610bc4611474565b60008111610c07576040517f08c379a0000000000000000000000000000000000000000000000000000000008152600401610bfe906122af565b60405180910390fd5b80600560003373ffffffffffffffffffffffffffffffffffffffff1673ffffffffffffffffffffffffffffffffffffffff168152602001908152602001600020600001541015610c8c576040517f08c379a0000000000000000000000000000000000000000000000000000000008152600401610c839061231b565b60405180910390fd5b6000819050600060045482610ca19190611f3d565b9050610cfb600560003373ffffffffffffffffffffffffffffffffffffffff1673ffffffffffffffffffffffffffffffffffffffff16815260200190815260200160002060030160009054906101000a900460ff16610a33565b600560003373ffffffffffffffffffffffffffffffffffffffff1673ffffffffffffffffffffffffffffffffffffffff16815260200190815260200160002060010154610d48919061218c565b4211610de65767016345785d8a000082600560003373ffffffffffffffffffffffffffffffffffffffff1673ffffffffffffffffffffffffffffffffffffffff16815260200190815260200160002060000154610da5919061212f565b11610de5576040517f08c379a0000000000000000000000000000000000000000000000000000000008152600401610ddc906123d3565b60405180910390fd5b5b81600560003373ffffffffffffffffffffffffffffffffffffffff1673ffffffffffffffffffffffffffffffffffffffff1681526020019081526020016000206000016000828254610e38919061212f565b92505081905550610e6d600260009054906101000a900473ffffffffffffffffffffffffffffffffffffffff1633308561160d565b600260009054906101000a900473ffffffffffffffffffffffffffffffffffffffff1673ffffffffffffffffffffffffffffffffffffffff166379cc679030846040518363ffffffff167c0100000000000000000000000000000000000000000000000000000000028152600401610ee6929190612163565b600060405180830381600087803b158015610f0057600080fd5b505af1158015610f14573d6000803e3d6000fd5b505050506000600360009054906101000a900473ffffffffffffffffffffffffffffffffffffffff1673ffffffffffffffffffffffffffffffffffffffff166370a08231306040518263ffffffff167c0100000000000000000000000000000000000000000000000000000000028152600401610f919190611d31565b602060405180830381865afa158015610fae573d6000803e3d6000fd5b505050506040513d601f19601f82011682018060405250810190610fd29190611eb2565b90508181101561109357600360009054906101000a900473ffffffffffffffffffffffffffffffffffffffff1673ffffffffffffffffffffffffffffffffffffffff166340c10f19308385611027919061212f565b6040518363ffffffff167c0100000000000000000000000000000000000000000000000000000000028152600401611060929190612163565b600060405180830381600087803b15801561107a57600080fd5b505af115801561108e573d6000803e3d6000fd5b505050505b6110c0600360009054906101000a900473ffffffffffffffffffffffffffffffffffffffff1633846116b2565b3373ffffffffffffffffffffffffffffffffffffffff167fc23438195fe8be4c5c988b4930db4ef2d076c730f8d560e220ea9105391f9d8b846040516111069190611c05565b60405180910390a23373ffffffffffffffffffffffffffffffffffffffff167fb0ec936b489c141c9724e6e56d0f546de3da7fe870e87661d50edba5a4e4234a600560003373ffffffffffffffffffffffffffffffffffffffff1673ffffffffffffffffffffffffffffffffffffffff168152602001908152602001600020600001546040516111969190611c05565b60405180910390a27f4bb6b05c6573b90c916ba0533b3b5330a9c169e12b2346c5815c09a0d07b6bfa600260009054906101000a900473ffffffffffffffffffffffffffffffffffffffff1673ffffffffffffffffffffffffffffffffffffffff166370a08231306040518263ffffffff167c01000000000000000000000000000000000000000000000000000000000281526004016112369190611d31565b602060405180830381865afa158015611253573d6000803e3d6000fd5b505050506040513d601f19601f820116820180604052508101906112779190611eb2565b6040516112849190611c05565b60405180910390a1505050611297611754565b50565b60008060009054906101000a900473ffffffffffffffffffffffffffffffffffffffff16905090565b60056020528060005260406000206000915090508060000154908060010154908060020154908060030160009054906101000a900460ff16905084565b6000600260009054906101000a900473ffffffffffffffffffffffffffffffffffffffff1673ffffffffffffffffffffffffffffffffffffffff166370a08231336040518263ffffffff167c01000000000000000000000000000000000000000000000000000000000281526004016113799190611d31565b602060405180830381865afa158015611396573d6000803e3d6000fd5b505050506040513d601f19601f820116820180604052508101906113ba9190611eb2565b905090565b67016345785d8a000081565b6113d361175d565b600073ffffffffffffffffffffffffffffffffffffffff168173ffffffffffffffffffffffffffffffffffffffff1603611442576040517f08c379a000000000000000000000000000000000000000000000000000000000815260040161143990612465565b60405180910390fd5b61144b816117db565b50565b600260009054906101000a900473ffffffffffffffffffffffffffffffffffffffff1681565b6002600154036114b9576040517f08c379a00000000000000000000000000000000000000000000000000000000081526004016114b0906124d1565b60405180910390fd5b6002600181905550565b6000818473ffffffffffffffffffffffffffffffffffffffff1663dd62ed3e30866040518363ffffffff167c010000000000000000000000000000000000000000000000000000000002815260040161151d9291906124f1565b602060405180830381865afa15801561153a573d6000803e3d6000fd5b505050506040513d601f19601f8201168201806040525081019061155e9190611eb2565b611568919061218c565b90506116078463095ea7b37c01000000000000000000000000000000000000000000000000000000000285846040516024016115a5929190612163565b604051602081830303815290604052907bffffffffffffffffffffffffffffffffffffffffffffffffffffffff19166020820180517bffffffffffffffffffffffffffffffffffffffffffffffffffffffff838183161783525050505061189f565b50505050565b6116ac846323b872dd7c01000000000000000000000000000000000000000000000000000000000285858560405160240161164a9392919061251a565b604051602081830303815290604052907bffffffffffffffffffffffffffffffffffffffffffffffffffffffff19166020820180517bffffffffffffffffffffffffffffffffffffffffffffffffffffffff838183161783525050505061189f565b50505050565b61174f8363a9059cbb7c01000000000000000000000000000000000000000000000000000000000284846040516024016116ed929190612163565b604051602081830303815290604052907bffffffffffffffffffffffffffffffffffffffffffffffffffffffff19166020820180517bffffffffffffffffffffffffffffffffffffffffffffffffffffffff838183161783525050505061189f565b505050565b60018081905550565b611765611966565b73ffffffffffffffffffffffffffffffffffffffff1661178361129a565b73ffffffffffffffffffffffffffffffffffffffff16146117d9576040517f08c379a00000000000000000000000000000000000000000000000000000000081526004016117d09061259d565b60405180910390fd5b565b60008060009054906101000a900473ffffffffffffffffffffffffffffffffffffffff169050816000806101000a81548173ffffffffffffffffffffffffffffffffffffffff021916908373ffffffffffffffffffffffffffffffffffffffff1602179055508173ffffffffffffffffffffffffffffffffffffffff168173ffffffffffffffffffffffffffffffffffffffff167f8be0079c531659141344cd1fd0a4f28419497f9722a3daafe3b4186f6b6457e060405160405180910390a35050565b6000611901826040518060400160405280602081526020017f5361666545524332303a206c6f772d6c6576656c2063616c6c206661696c65648152508573ffffffffffffffffffffffffffffffffffffffff1661196e9092919063ffffffff16565b9050600081511115611961578080602001905181019061192191906125f5565b611960576040517f08c379a000000000000000000000000000000000000000000000000000000000815260040161195790612694565b60405180910390fd5b5b505050565b600033905090565b606061197d8484600085611986565b90509392505050565b6060823073ffffffffffffffffffffffffffffffffffffffff163110156119e2576040517f08c379a00000000000000000000000000000000000000000000000000000000081526004016119d990612726565b60405180910390fd5b6000808673ffffffffffffffffffffffffffffffffffffffff168587604051611a0b91906127b7565b60006040518083038185875af1925050503d8060008114611a48576040519150601f19603f3d011682016040523d82523d6000602084013e611a4d565b606091505b5091509150611a5e87838387611a6a565b92505050949350505050565b60608315611acc576000835103611ac457611a8485611adf565b611ac3576040517f08c379a0000000000000000000000000000000000000000000000000000000008152600401611aba9061281a565b60405180910390fd5b5b829050611ad7565b611ad68383611b02565b5b949350505050565b6000808273ffffffffffffffffffffffffffffffffffffffff163b119050919050565b600082511115611b155781518083602001fd5b806040517f08c379a0000000000000000000000000000000000000000000000000000000008152600401611b49919061288f565b60405180910390fd5b600073ffffffffffffffffffffffffffffffffffffffff82169050919050565b6000819050919050565b6000611b97611b92611b8d84611b52565b611b72565b611b52565b9050919050565b6000611ba982611b7c565b9050919050565b6000611bbb82611b9e565b9050919050565b611bcb81611bb0565b82525050565b6000602082019050611be66000830184611bc2565b92915050565b6000819050919050565b611bff81611bec565b82525050565b6000602082019050611c1a6000830184611bf6565b92915050565b600080fd5b611c2e81611bec565b8114611c3957600080fd5b50565b600081359050611c4b81611c25565b92915050565b60048110611c5e57600080fd5b50565b600081359050611c7081611c51565b92915050565b60008060408385031215611c8d57611c8c611c20565b5b6000611c9b85828601611c3c565b9250506020611cac85828601611c61565b9150509250929050565b600060208284031215611ccc57611ccb611c20565b5b6000611cda84828501611c61565b91505092915050565b600060208284031215611cf957611cf8611c20565b5b6000611d0784828501611c3c565b91505092915050565b6000611d1b82611b52565b9050919050565b611d2b81611d10565b82525050565b6000602082019050611d466000830184611d22565b92915050565b611d5581611d10565b8114611d6057600080fd5b50565b600081359050611d7281611d4c565b92915050565b600060208284031215611d8e57611d8d611c20565b5b6000611d9c84828501611d63565b91505092915050565b7f4e487b7100000000000000000000000000000000000000000000000000000000600052602160045260246000fd5b60048110611de557611de4611da5565b5b50565b6000819050611df682611dd4565b919050565b6000611e0682611de8565b9050919050565b611e1681611dfb565b82525050565b6000608082019050611e316000830187611bf6565b611e3e6020830186611bf6565b611e4b6040830185611bf6565b611e586060830184611e0d565b95945050505050565b6000611e6c82611b9e565b9050919050565b611e7c81611e61565b82525050565b6000602082019050611e976000830184611e73565b92915050565b600081519050611eac81611c25565b92915050565b600060208284031215611ec857611ec7611c20565b5b6000611ed684828501611e9d565b91505092915050565b7f4e487b7100000000000000000000000000000000000000000000000000000000600052601260045260246000fd5b7f4e487b7100000000000000000000000000000000000000000000000000000000600052601160045260246000fd5b6000611f4882611bec565b9150611f5383611bec565b925082611f6357611f62611edf565b5b828204905092915050565b600082825260208201905092915050565b7f43616e206e6f7420627579203020416b6b546f6b656e20000000000000000000600082015250565b6000611fb5601783611f6e565b9150611fc082611f7f565b602082019050919050565b60006020820190508181036000830152611fe481611fa8565b9050919050565b7f4e6f7420656e6f756768204361736820546f6b656e0000000000000000000000600082015250565b6000612021601583611f6e565b915061202c82611feb565b602082019050919050565b6000602082019050818103600083015261205081612014565b9050919050565b7f416d6f756e7420746f6f206c6f77000000000000000000000000000000000000600082015250565b600061208d600e83611f6e565b915061209882612057565b602082019050919050565b600060208201905081810360008301526120bc81612080565b9050919050565b7f496e76616c6964206475726174696f6e00000000000000000000000000000000600082015250565b60006120f9601083611f6e565b9150612104826120c3565b602082019050919050565b60006020820190508181036000830152612128816120ec565b9050919050565b600061213a82611bec565b915061214583611bec565b925082820390508181111561215d5761215c611f0e565b5b92915050565b60006040820190506121786000830185611d22565b6121856020830184611bf6565b9392505050565b600061219782611bec565b91506121a283611bec565b92508282019050808211156121ba576121b9611f0e565b5b92915050565b60006060820190506121d56000830186611bf6565b6121e26020830185611bf6565b6121ef6040830184611e0d565b949350505050565b7f4e4f2056414c4944204455524154494f4e000000000000000000000000000000600082015250565b600061222d601183611f6e565b9150612238826121f7565b602082019050919050565b6000602082019050818103600083015261225c81612220565b9050919050565b7f416d6f756e74206d7573742062652067726561746572207468616e2030000000600082015250565b6000612299601d83611f6e565b91506122a482612263565b602082019050919050565b600060208201905081810360008301526122c88161228c565b9050919050565b7f496e73756666696369656e742062616c616e6365000000000000000000000000600082015250565b6000612305601483611f6e565b9150612310826122cf565b602082019050919050565b60006020820190508181036000830152612334816122f8565b9050919050565b7f204e6f6e2070756f69207072656c6576657265207175616e746920746f6b656e60008201527f2070657263686520737570657261726120696c206c696d697465207072696d6160208201527f2064656c2066696e650000000000000000000000000000000000000000000000604082015250565b60006123bd604983611f6e565b91506123c88261233b565b606082019050919050565b600060208201905081810360008301526123ec816123b0565b9050919050565b7f4f776e61626c653a206e6577206f776e657220697320746865207a65726f206160008201527f6464726573730000000000000000000000000000000000000000000000000000602082015250565b600061244f602683611f6e565b915061245a826123f3565b604082019050919050565b6000602082019050818103600083015261247e81612442565b9050919050565b7f5265656e7472616e637947756172643a207265656e7472616e742063616c6c00600082015250565b60006124bb601f83611f6e565b91506124c682612485565b602082019050919050565b600060208201905081810360008301526124ea816124ae565b9050919050565b60006040820190506125066000830185611d22565b6125136020830184611d22565b9392505050565b600060608201905061252f6000830186611d22565b61253c6020830185611d22565b6125496040830184611bf6565b949350505050565b7f4f776e61626c653a2063616c6c6572206973206e6f7420746865206f776e6572600082015250565b6000612587602083611f6e565b915061259282612551565b602082019050919050565b600060208201905081810360008301526125b68161257a565b9050919050565b60008115159050919050565b6125d2816125bd565b81146125dd57600080fd5b50565b6000815190506125ef816125c9565b92915050565b60006020828403121561260b5761260a611c20565b5b6000612619848285016125e0565b91505092915050565b7f5361666545524332303a204552433230206f7065726174696f6e20646964206e60008201527f6f74207375636365656400000000000000000000000000000000000000000000602082015250565b600061267e602a83611f6e565b915061268982612622565b604082019050919050565b600060208201905081810360008301526126ad81612671565b9050919050565b7f416464726573733a20696e73756666696369656e742062616c616e636520666f60008201527f722063616c6c0000000000000000000000000000000000000000000000000000602082015250565b6000612710602683611f6e565b915061271b826126b4565b604082019050919050565b6000602082019050818103600083015261273f81612703565b9050919050565b600081519050919050565b600081905092915050565b60005b8381101561277a57808201518184015260208101905061275f565b60008484015250505050565b600061279182612746565b61279b8185612751565b93506127ab81856020860161275c565b80840191505092915050565b60006127c38284612786565b915081905092915050565b7f416464726573733a2063616c6c20746f206e6f6e2d636f6e7472616374000000600082015250565b6000612804601d83611f6e565b915061280f826127ce565b602082019050919050565b60006020820190508181036000830152612833816127f7565b9050919050565b600081519050919050565b6000601f19601f8301169050919050565b60006128618261283a565b61286b8185611f6e565b935061287b81856020860161275c565b61288481612845565b840191505092915050565b600060208201905081810360008301526128a98184612856565b90509291505056fea264697066735822122044cbeb949e3a36af5a5c2ad46ad3b44bc963a93dea9b85992ad5f6f8517c976d64736f6c63430008130033",
  "immutableReferences": {},
  "source": "// SPDX-License-Identifier: MIT\npragma solidity ^0.8.19;\n\nimport \"@openzeppelin/contracts/access/Ownable.sol\";\nimport \"@openzeppelin/contracts/security/ReentrancyGuard.sol\";\nimport \"@openzeppelin/contracts/token/ERC20/utils/SafeERC20.sol\";\nimport \"./IMintableToken.sol\";\nimport \"./USDTCash.sol\";\nimport \"./AkToken.sol\";\n\ncontract StrategyTwo is Ownable, ReentrancyGuard {\n    using SafeERC20 for USDTCash;\n    using SafeERC20 for IERC20;\n\n    IMintableToken public akkToken;\n    USDTCash public usdtCash;\n    uint256 public rate; // Tasso di conversione USDTCash/AkToken\n\n    uint256 public constant MIN_CASH_TOKEN_AMOUNT = 0.1e18; // Quantit minima di Cash Token richiesta per l'acquisto di AkToken\n\n    //tenere traccia del saldo dell'utente e dell'ultima volta che ha depositato\n    struct User {\n        uint256 balance;\n        uint256 firstDepositTime;\n        uint256 lastDepositTime;\n        AccumulationDuration duration; // Durata del piano di accumulo (in secondi)\n    }\n\n    enum AccumulationDuration {\n        DEV, // Durata di 10 secondi per il test dello sviluppatore\n        FIVE_YEARS, // Durata di 5 anni\n        TEN_YEARS, // Durata di 10 anni\n        FIFTEEN_YEARS // Durata di 15 anni\n    }\n\n    mapping(address => User) public users; // Mapping degli utenti\n\n \n\n    // Dichiarazione degli eventi per notificare le azioni eseguite dal contratto\n    event AkkTokenBought(\n        address indexed user,\n        uint256 cashTokenAmount,\n        uint256 akkTokenAmount,\n        AccumulationDuration duration\n    );\n    event CashTokenWithdrawn(address indexed user, uint256 cashTokenAmount);\n    event RateSet(uint256 rate);\n    event AkkTokenWithdrawn(address indexed user, uint256 akkTokenAmount);\n    event AddedToWhitelist(address indexed user);\n    event AkkTokenBalanceUpdated(address indexed user, uint256 amount);\n    event AkkTokenRemaining(uint256 amount);\n\n    // Dichiarazione del costruttore per inizializzare le variabili di stato\n    constructor(address _akkToken, address _usdtCash, uint256 _rate) {\n        akkToken = IMintableToken(_akkToken);\n        usdtCash = USDTCash(_usdtCash);\n        rate = _rate;\n    }\n    function calculateDuration(AccumulationDuration _duration) public pure returns (uint256){\n        if(_duration == AccumulationDuration.DEV){\n            return 10;\n        }else if(_duration == AccumulationDuration.FIVE_YEARS){\n            return 60*60*24*365*5;\n        }else if(_duration == AccumulationDuration.TEN_YEARS){\n            return 60*60*24*365*10;\n        }else if(_duration == AccumulationDuration.FIFTEEN_YEARS){\n            return 60*60*24*365*15;\n        }else{\n            require(false, \"NO VALID DURATION\");\n        }\n    }\n    function buyAkkToken(\n        uint256 _amount, // akktoken\n        AccumulationDuration _duration\n    ) external nonReentrant {\n        uint256 akkTokenAmount = _amount;\n        //                     10    / 5   => 2\n        uint256 usdtCashAmount = akkTokenAmount / rate;\n        require(akkTokenAmount != 0, \"Can not buy 0 AkkToken \");\n        require(\n            usdtCash.balanceOf(msg.sender) >= usdtCashAmount,\n            \"Not enough Cash Token\"\n        );\n\n        require(usdtCashAmount >= MIN_CASH_TOKEN_AMOUNT, \"Amount too low\");\n        require(\n            _duration == AccumulationDuration.DEV ||\n                _duration == AccumulationDuration.FIVE_YEARS ||\n                _duration == AccumulationDuration.TEN_YEARS ||\n                _duration == AccumulationDuration.FIFTEEN_YEARS,\n            \"Invalid duration\"\n        );\n\n       \n\n        // Approva l'importo per il trasferimento dei cash token\n        SafeERC20.safeIncreaseAllowance(usdtCash, msg.sender, usdtCashAmount); /// fino a qua\n\n\n        // contratto riceve tot cash contispondente al rate toke/ cash\n        SafeERC20.safeTransferFrom(\n            usdtCash,\n            msg.sender,\n            address(this),\n            usdtCashAmount\n        );\n\n        // Verifica se ci sono abbastanza akkToken e minta se necessario\n        uint256 balance = akkToken.balanceOf(address(this));\n        if (balance < akkTokenAmount) {\n            akkToken.mint(address(this), akkTokenAmount - balance);\n        }\n\n        SafeERC20.safeTransfer(akkToken, msg.sender, akkTokenAmount);\n\n        // Aggiornamento del saldo dell'utente, dell'ultima volta che ha depositato e della durata del piano di accumulo\n        // comprare multiple volte consecutive\n        users[msg.sender].balance += akkTokenAmount;\n        users[msg.sender].lastDepositTime = block.timestamp;\n\n        if (users[msg.sender].firstDepositTime == 0) {\n            // il primo deposito\n            users[msg.sender].firstDepositTime == block.timestamp;\n            users[msg.sender].duration = _duration;\n        }\n\n        // Emissione dell'evento AkkTokenBought per notificare l'acquisto di Akk Token da parte dell'utente\n        emit AkkTokenBought(msg.sender, usdtCashAmount, akkTokenAmount, _duration);\n    }\n\n    // Metodo che consente all'owner di impostare il tasso di conversione USDTCash/AkToken\n    function setRate(uint256 _rate) external onlyOwner {\n        rate = _rate;\n\n        // Emissione dell'evento RateSet per notificare l'aggiornamento del tasso di conversione\n        emit RateSet(rate);\n    }\n\n    // Metodo che consente all'owner di ritirare gli Akk Token accumulati dal contratto\n    function withdrawAkkToken(uint256 _amount) external nonReentrant {\n        require(_amount > 0, \"Amount must be greater than 0\");\n        require(users[msg.sender].balance >= _amount, \"Insufficient balance\");\n        uint256 akkTokenAmount = _amount;\n        //                               20    / 5  => 4\n        uint256 usdtCashAmount = akkTokenAmount / rate;\n        //  35                                    30                 10\n        if (block.timestamp <= (users[msg.sender].firstDepositTime +  calculateDuration(users[msg.sender].duration)))\n            // true ergo la duration non e finita\n            //             100                      1           => 99 >    50\n            require( (users[msg.sender].balance - akkTokenAmount) > MIN_CASH_TOKEN_AMOUNT,\" Non puoi prelevere quanti token perche superara il limite prima del fine\");\n\n        users[msg.sender].balance -= akkTokenAmount;\n\n        // Trasferisce la quantit di akkToken user => StrategyTwo\n        // lato cliente approvazione di akktoken.approve(strategy.address,akktoken,account)\n        SafeERC20.safeTransferFrom(\n            akkToken,\n            msg.sender,\n            address(this),\n            akkTokenAmount\n        );\n\n        // Brucia gli AkToken ricevuti dall'utente\n        akkToken.burnFrom(address(this), akkTokenAmount);\n\n        // Mint usdtCash se non sufficiente disponibile;\n        uint256 balance = usdtCash.balanceOf(address(this));\n        if (balance < usdtCashAmount) {\n            usdtCash.mint(address(this), usdtCashAmount - balance);\n        }\n\n        // Trasferisci l'importo totale all'utente;\n        SafeERC20.safeTransfer(usdtCash, msg.sender, usdtCashAmount);\n\n        // Emissione dell'evento AkkTokenWithdrawn per notificare il prelievo degli Akk Token da parte dell'utente\n        emit AkkTokenWithdrawn(msg.sender, akkTokenAmount);\n\n        // Emissione dell'evento AkkTokenBalanceUpdated per notificare il saldo di AkToken rimanente per l'utente\n        emit AkkTokenBalanceUpdated(msg.sender, users[msg.sender].balance);\n\n        // Emissione dell'evento AkkTokenRemaining per notificare il saldo di AkToken rimanente all'interno del contratto StrategyTwo\n        emit AkkTokenRemaining(akkToken.balanceOf(address(this)));\n    }\n    function getUSDTCashTokenBalance() public view returns (uint256) {\n        // restituisce il saldo dei Usdt dell'utente\n        return usdtCash.balanceOf(msg.sender);\n    }\n\n    // get\n    function getAkTokenBalanceUser() public view returns (uint256) {\n        // restituisce il saldo dei AkToken dell'utente\n        return akkToken.balanceOf(msg.sender);\n    }\n}\n\n",
  "sourcePath": "/Volumes/One Touch/ProjectCourseBcod/Strategy/contracts/StrategyTwo.sol",
  "compiler": {
    "name": "solc",
    "version": "0.8.19+commit.7dd6d404.Emscripten.clang"
  },
  "schemaVersion": "3.4.13",
  "updatedAt": "2023-05-16T16:53:28.645Z",
  "networkType": "ethereum",
  "devdoc": {
    "kind": "dev",
    "methods": {
      "owner()": {
        "details": "Returns the address of the current owner."
      },
      "renounceOwnership()": {
        "details": "Leaves the contract without owner. It will not be possible to call `onlyOwner` functions anymore. Can only be called by the current owner. NOTE: Renouncing ownership will leave the contract without an owner, thereby removing any functionality that is only available to the owner."
      },
      "transferOwnership(address)": {
        "details": "Transfers ownership of the contract to a new account (`newOwner`). Can only be called by the current owner."
      }
    },
    "version": 1
  },
  "userdoc": {
    "kind": "user",
    "methods": {},
    "version": 1
  }
}